:020000040800F2
:1000000000500020095E0008C55D0008C75D0008BB
:10001000C95D0008CB5D0008CD5D00080000000050
:10002000000000000000000000000000CF5D00089C
:10003000D15D000800000000D35D000865320008B3
:10004000515E0008515E0008515E0008515E0008D4
:10005000515E0008515E0008515E0008515E0008C4
:10006000515E0008515E0008515E0008515E0008B4
:10007000D9300008515E0008515E0008E9300008E0
:10008000515E0008F9300008515E0008515E00081A
:10009000515E0008515E0008515E0008515E000884
:1000A000515E0008515E0008515E0008515E000874
:1000B00009310008515E0008515E0008515E0008D9
:1000C000515E0008515E0008515E0008515E000854
:1000D000D55D0008E55D0008F55D0008515E00088B
:1000E000515E0008515E0008515E000800000000EB
:1000F0000000000000000000000000000000000000
:0C01000000000000000000005FF808F1A3
:1001100081F0004102E000BF83F0004330B54FEAB8
:1001200041044FEA430594EA050F08BF90EA020F25
:100130001FBF54EA000C55EA020C7FEA645C7FEAB8
:10014000655C00F0E2804FEA5454D4EB5555B8BFDB
:100150006D420CDD2C4480EA020281EA030382EA4C
:10016000000083EA010180EA020281EA0303362DDE
:1001700088BF30BD11F0004F4FEA01314FF4801CB1
:100180004CEA113102D0404261EB410113F0004FC3
:100190004FEA03334CEA133302D0524263EB43037A
:1001A00094EA050F00F0A780A4F10104D5F1200E18
:1001B0000DDB02FA0EFC22FA05F2801841F1000173
:1001C00003FA0EF2801843FA05F359410EE0A5F147
:1001D00020050EF1200E012A03FA0EFC28BF4CF078
:1001E000020C43FA05F3C01851EBE37101F000452E
:1001F00007D54FF0000EDCF1000C7EEB00006EEB3B
:100200000101B1F5801F1BD3B1F5001F0CD34908C4
:100210005FEA30004FEA3C0C04F101044FEA44521B
:1002200012F5800F80F09A80BCF1004F08BF5FEAA2
:10023000500C50F1000041EB045141EA050130BD82
:100240005FEA4C0C404141EB0101013C28BFB1F594
:10025000801FE9D291F0000F04BF01460020B1FADF
:1002600081F308BF2033A3F10B03B3F120020CDAB2
:100270000C3208DD02F1140CC2F10C0201FA0CF090
:1002800021FA02F10CE002F11402D8BFC2F1200CF5
:1002900001FA02F120FA0CFCDCBF41EA0C019040AB
:1002A000E41AA2BF01EB0451294330BD6FEA0404F4
:1002B0001F3C1CDA0C340EDC04F11404C4F12002DF
:1002C00020FA04F001FA02F340EA030021FA04F3F1
:1002D00045EA030130BDC4F10C04C4F1200220FA48
:1002E00002F001FA04F340EA0300294630BD21FA86
:1002F00004F0294630BD94F0000F83F4801306BF4C
:1003000081F480110134013D4EE77FEA645C18BF3F
:100310007FEA655C29D094EA050F08BF90EA020FD6
:1003200005D054EA000C04BF1946104630BD91EACE
:10033000030F1EBF0021002030BD5FEA545C05D1D1
:100340004000494128BF41F0004130BD14F5800410
:100350003CBF01F5801130BD01F0004545F0FE4184
:1003600041F470014FF0000030BD7FEA645C1ABFB9
:10037000194610467FEA655C1CBF0B46024650EAF0
:10038000013406BF52EA033591EA030F41F400211C
:1003900030BD00BF90F0000F04BF0021704730B5A2
:1003A0004FF4806404F132044FF000054FF0000177
:1003B00050E700BF90F0000F04BF0021704730B538
:1003C0004FF4806404F1320410F0004548BF40420D
:1003D0004FF000013EE700BF42004FEAE2014FEA62
:1003E00031014FEA02701FBF12F07F4393F07F4F3D
:1003F00081F06051704732F07F4208BF704793F040
:100400007F4F04BF41F40021704730B54FF4607452
:1004100001F0004521F000411CE700BF50EA010255
:1004200008BF704730B54FF000050AE050EA0102FE
:1004300008BF704730B511F0004502D5404261EB6E
:1004400041014FF4806404F132045FEA915C3FF4AF
:10045000D8AE4FF003025FEADC0C18BF03325FEA4C
:10046000DC0C18BF033202EBDC02C2F1200300FAFD
:1004700003FC20FA02F001FA03FE40EA0E0021FA22
:1004800002F11444BDE600BF70B54FF0FF0C4CF410
:10049000E06C1CEA11541DBF1CEA135594EA0C0FC2
:1004A00095EA0C0F00F0DEF82C4481EA030621EAFD
:1004B0004C5123EA4C5350EA013518BF52EA033538
:1004C00041F4801143F4801338D0A0FB02CE4FF0EA
:1004D0000005E1FB02E506F00042E0FB03E54FF01A
:1004E0000006E1FB03569CF0000F18BF4EF0010E12
:1004F000A4F1FF04B6F5007F64F5407404D25FEA0E
:100500004E0E6D4146EB060642EAC62141EA5551C0
:100510004FEAC52040EA5E504FEACE2EB4F1FD0C02
:1005200088BFBCF5E06F1ED8BEF1004F08BF5FEA80
:10053000500E50F1000041EB045170BD06F0004632
:1005400046EA010140EA020081EA0301B4EB5C04DF
:10055000C2BFD4EB0C0541EA045170BD41F48011D7
:100560004FF0000E013C00F3AB8014F1360FDEBFFC
:10057000002001F0004170BDC4F10004203C35DAD8
:100580000C341BDC04F11404C4F1200500FA05F35B
:1005900020FA04F001FA05F240EA020001F00042FC
:1005A00021F0004110EBD37021FA04F642EB060172
:1005B0005EEA430E08BF20EAD37070BDC4F10C049C
:1005C000C4F1200500FA04F320FA05F001FA04F260
:1005D00040EA020001F0004110EBD37041F100014C
:1005E0005EEA430E08BF20EAD37070BDC4F1200557
:1005F00000FA05F24EEA020E20FA04F301FA05F2BF
:1006000043EA020321FA04F001F0004121FA04F266
:1006100020EA020000EBD3705EEA430E08BF20EA36
:10062000D37070BD94F0000F0FD101F00046400070
:1006300041EB010111F4801F08BF013CF7D041EAF2
:10064000060195F0000F18BF704703F000465200F6
:1006500043EB030313F4801F08BF013DF7D043EAC7
:100660000603704794EA0C0F0CEA135518BF95EA7D
:100670000C0F0CD050EA410618BF52EA4306D1D104
:1006800081EA030101F000414FF0000070BD50EA23
:10069000410606BF1046194652EA430619D094EAAD
:1006A0000C0F02D150EA013613D195EA0C0F05D197
:1006B00052EA03361CBF104619460AD181EA0301EB
:1006C00001F0004141F0FE4141F470014FF00000A3
:1006D00070BD41F0FE4141F4780170BD70B54FF03E
:1006E000FF0C4CF4E06C1CEA11541DBF1CEA1355BE
:1006F00094EA0C0F95EA0C0F00F0A7F8A4EB0504A0
:1007000081EA030E52EA03354FEA013100F0888096
:100710004FEA03334FF0805545EA131343EA12635F
:100720004FEA022245EA111545EA10654FEA002614
:100730000EF000419D4208BF964244F1FD0404F5CD
:10074000407402D25B084FEA3202B61A65EB030529
:100750005B084FEA32024FF480104FF4002CB6EBE6
:10076000020E75EB030E22BFB61A754640EA0C0066
:100770005B084FEA3202B6EB020E75EB030E22BFA6
:10078000B61A754640EA5C005B084FEA3202B6EBE7
:10079000020E75EB030E22BFB61A754640EA9C00A6
:1007A0005B084FEA3202B6EB020E75EB030E22BF76
:1007B000B61A754640EADC0055EA060E18D04FEA34
:1007C000051545EA16754FEA06164FEAC30343EAD4
:1007D00052734FEAC2025FEA1C1CC0D111F4801FA1
:1007E0000BD141EA00014FF000004FF0004CB6E79A
:1007F00011F4801F04BF01430020B4F1FD0C88BF39
:10080000BCF5E06F3FF6AFAEB5EB030C04BFB6EB43
:10081000020C5FEA500C50F1000041EB045170BD36
:100820000EF0004E4EEA113114EB5C04C2BFD4EB63
:100830000C0541EA045170BD41F480114FF0000EE7
:10084000013C90E645EA060E8DE60CEA135594EA63
:100850000C0F08BF95EA0C0F3FF43BAF94EA0C0F66
:100860000AD150EA01347FF434AF95EA0C0F7FF4DB
:1008700025AF104619462CE795EA0C0F06D152EA2F
:1008800003353FF4FDAE1046194622E750EA410613
:1008900018BF52EA43067FF4C5AE50EA41047FF424
:1008A0000DAF52EA43057FF4EBAE12E74FF0FF3C89
:1008B00006E000BF4FF0010C02E000BF4FF0010C5A
:1008C0004DF804CD4FEA410C7FEA6C5C4FEA430CD3
:1008D00018BF7FEA6C5C1BD001B050EA410C0CBF22
:1008E00052EA430C91EA030F02BF90EA020F002084
:1008F000704710F1000F91EA030F58BF994208BFEB
:1009000090422CBFD8176FEAE37040F001007047A7
:100910004FEA410C7FEA6C5C02D150EA013C07D1FE
:100920004FEA430C7FEA6C5CD6D152EA033CD3D049
:100930005DF8040B704700BF8446104662468C4643
:100940001946634600E000BF01B5FFF7B7FF002876
:1009500048BF10F1000F01BD4DF808EDFFF7F4FF9F
:100960000CBF012000205DF808FB00BF4DF808ED2A
:10097000FFF7EAFF34BF012000205DF808FB00BF4D
:100980004DF808EDFFF7E0FF94BF012000205DF86F
:1009900008FB00BF4DF808EDFFF7CEFF94BF012024
:1009A00000205DF808FB00BF4DF808EDFFF7C4FF1D
:1009B00034BF012000205DF808FB00BF4FEA410C66
:1009C0007FEA6C5C02D150EA013C0AD14FEA430C49
:1009D0007FEA6C5C02D152EA033C02D14FF0000086
:1009E00070474FF0010070474FEA410212F50012C4
:1009F00015D211D56FF47873B3EB625212D94FEA66
:100A0000C12343F0004343EA505311F0004F23FA4F
:100A100002F018BF404270474FF00000704750EAA4
:100A2000013005D111F0004008BF6FF00040704761
:100A30004FF00000704700BF80F0004002E000BFB0
:100A400081F0004142001FBF5FEA410392EA030FB9
:100A50007FEA226C7FEA236C6AD04FEA1262D2EB03
:100A60001363C1BFD218414048404140B8BF5B4208
:100A7000192B88BF704710F0004F40F4000020F0A1
:100A80007F4018BF404211F0004F41F4000121F0B7
:100A90007F4118BF494292EA030F3FD0A2F1010201
:100AA00041FA03FC10EB0C00C3F1200301FA03F13F
:100AB00000F0004302D5494260EB4000B0F5000F62
:100AC00013D3B0F1807F06D340084FEA310102F121
:100AD0000102FE2A51D2B1F1004F40EBC25008BFD3
:100AE00020F0010040EA03007047490040EB00009D
:100AF000013A28BFB0F5000FEDD2B0FA80FCACF19E
:100B0000080CB2EB0C0200FA0CF0AABF00EBC250CA
:100B100052421843BCBFD0401843704792F0000FB8
:100B200081F4000106BF80F400000132013BB5E70B
:100B30004FEA41037FEA226C18BF7FEA236C21D081
:100B400092EA030F04D092F0000F08BF08467047E6
:100B500090EA010F1CBF0020704712F07F4F04D1B4
:100B6000400028BF40F00040704712F100723CBFC7
:100B700000F50000704700F0004343F0FE4040F4F1
:100B8000000070477FEA226216BF08467FEA2363AF
:100B90000146420206BF5FEA412390EA010F40F49A
:100BA000800070474FF0000304E000BF10F00043E6
:100BB00048BF40425FEA000C08BF704743F09643CD
:100BC00001464FF000001CE050EA010208BF7047E8
:100BD0004FF000030AE000BF50EA010208BF70476F
:100BE00011F0004302D5404261EB41015FEA010C84
:100BF00002BF84460146002043F0B64308BFA3F17C
:100C00008053A3F50003BCFA8CF2083AA3EBC2535D
:100C100010DB01FA02FC634400FA02FCC2F120027C
:100C2000BCF1004F20FA02F243EB020008BF20F0B3
:100C30000100704702F1200201FA02FCC2F1200219
:100C400050EA4C0021FA02F243EB020008BF20EA0E
:100C5000DC7070474FF0FF0C1CEAD0521EBF1CEA3C
:100C6000D15392EA0C0F93EA0C0F6FD01A4480EA2A
:100C7000010C400218BF5FEA41211ED04FF0006313
:100C800043EA501043EA5111A0FB01310CF000403F
:100C9000B1F5000F3EBF490041EAD3715B0040EA65
:100CA000010062F17F02FD2A1DD8B3F1004F40EB35
:100CB000C25008BF20F00100704790F0000F0CF008
:100CC000004C08BF49024CEA502040EA51207F3ACC
:100CD000C2BFD2F1FF0340EAC250704740F40000A7
:100CE0004FF00003013A5DDC12F1190FDCBF00F098
:100CF00000407047C2F10002410021FA02F1C2F146
:100D0000200200FA02FC5FEA310040F1000053EAE1
:100D10004C0308BF20EADC70704792F0000F00F02F
:100D2000004C02BF400010F4000F013AF9D040EA35
:100D30000C0093F0000F01F0004C02BF490011F4C9
:100D4000000F013BF9D041EA0C018FE70CEAD153C7
:100D500092EA0C0F18BF93EA0C0F0AD030F0004C47
:100D600018BF31F0004CD8D180EA010000F00040FB
:100D7000704790F0000F17BF90F0004F084691F0B9
:100D8000000F91F0004F14D092EA0C0F01D14202F3
:100D90000FD193EA0C0F03D14B0218BF084608D1BC
:100DA00080EA010000F0004040F0FE4040F4000006
:100DB000704740F0FE4040F4400070474FF0FF0C99
:100DC0001CEAD0521EBF1CEAD15392EA0C0F93EAE0
:100DD0000C0F69D0A2EB030280EA010C49024FEA32
:100DE000402037D04FF0805343EA111143EA1013EB
:100DF0000CF000408B4238BF5B0042F17D024FF4A3
:100E0000000C8B4224BF5B1A40EA0C00B3EB510F7D
:100E100024BFA3EB510340EA5C00B3EB910F24BF66
:100E2000A3EB910340EA9C00B3EBD10F24BFA3EBEB
:100E3000D10340EADC001B0118BF5FEA1C1CE0D1B3
:100E4000FD2A3FF650AF8B4240EBC25008BF20F066
:100E5000010070470CF0004C4CEA50207F32C2BFBA
:100E6000D2F1FF0340EAC250704740F400004FF057
:100E70000003013A37E792F0000F00F0004C02BF88
:100E8000400010F4000F013AF9D040EA0C0093F052
:100E9000000F01F0004C02BF490011F4000F013BAC
:100EA000F9D041EA0C0195E70CEAD15392EA0C0F14
:100EB00008D142027FF47DAF93EA0C0F7FF470AF4C
:100EC000084676E793EA0C0F04D14B023FF44CAF8F
:100ED00008466EE730F0004C18BF31F0004CCAD124
:100EE00030F000427FF45CAF31F000437FF43CAF60
:100EF0005FE700BF42000ED2B2F1FE4F0BD34FF0BE
:100F00009E03B3EB126209D44FEA002343F000437F
:100F100023FA02F070474FF00000704712F1610FA2
:100F200001D1420202D14FF0FF3070474FF0000074
:100F3000704700BF10B5054C237833B9044B13B18B
:100F40000448AFF300800123237010BD800000200F
:100F500000000000447E000808B5034B1BB10349A4
:100F60000348AFF3008008BD0000000084000020AB
:100F7000447E0008017042708370704700B583B0F2
:100F800000238DF800308DF801308DF802300B28E9
:100F90000DD8DFE800F006222930373E454C535A81
:100FA0006168FF23002211466846FFF7E3FF009BBC
:100FB000ADF804301B0C8DF8063000209DF804308D
:100FC00063F307009DF8053063F30F209DF80630AA
:100FD00063F3174003B05DF804FBFF237F22002179
:100FE0006846FFF7C7FFE2E7FF231A46002168467D
:100FF000FFF7C0FFDBE77F23FF2200216846FFF7F2
:10100000B9FFD4E70023FF2219466846FFF7B2FF75
:10101000CDE70023FF227F216846FFF7ABFFC6E73D
:101020000023FF2211466846FFF7A4FFBFE7002315
:101030007F22FF216846FFF79DFFB8E700231A468D
:10104000FF216846FFF796FFB1E77F230022FF21CB
:101050006846FFF78FFFAAE7FF230022194668467C
:10106000FFF788FFA3E7FF2300227F216846FFF7F1
:1010700081FF9CE710B4816E04680023012000E02A
:1010800001338B4205D22268B2F1FF3FF8D1002034
:10109000F6E710BC70470160826000234360704730
:1010A00001600023436670470B6803608B688360B0
:1010B00000234360704738B50446406E072800D9C6
:1010C00038BD0D4600EB400004EB80000430FFF714
:1010D000EBFF2168A26E636E881803EB430104EBFB
:1010E0008101886001336366AB681A44A266E7E752
:1010F0002DE9F04389B000AF8146D0F80080866EBC
:10110000B50826F00302073222F00702ADEB020D0C
:101110006C46C6F387260136F6B24FF0000E7246D3
:1011200009E051F8040B44F8220001320133634511
:10113000F7D30EF1010ED9F86430734509D90EEBDF
:101140004E0309EB83035968DB684FEA930C0023D5
:10115000EDE702F0EBFF03F00DF80023FB77BB6136
:101160007B617B60C7F80C803E613946381D03F017
:10117000C7F8F8777B69AB4216D2FB7F002BF9D119
:10118000B9697B6954F8232000234144022003F00D
:1011900043F8F877FB7F002BECD1BB690433BB61CC
:1011A0007B6901337B61E5E702F0F8FF02F0D8FFCD
:1011B0002437BD46BDE8F08310B504464FF0000E5D
:1011C00008E051F8040B42F8040B01336345F8D3EF
:1011D0000EF1010E636E73450AD90EEB4E0304EB5C
:1011E000830399685A68DB684FEA930C0023EDE7A4
:1011F00010BD00687047037C63B10368C268134484
:1012000003608268934213DD0260002303740123AC
:1012100043747047437C5BB10368C2689B1A0360E8
:101220004268934204DA026000234374012303748A
:1012300070470160416082600122027400224274A2
:10124000C36070472DE9F04395B006460D46002473
:101250002C22214609A804F040FF0420FFF78EFE4F
:101260008DF82000C0F307238DF82130C0F3074329
:101270008DF8223007940694059404940394029404
:10128000019400942346224608A909A801F042F8D7
:10129000EB68103B432B00F21982DFE813F04400A7
:1012A0001702170217021702170217021702170276
:1012B0001702170217021702170217021702170266
:1012C0001702170217021702170217021702170256
:1012D0001702170217021702170217021702A201BC
:1012E000B401D70117021702EA0117021702170209
:1012F0001702170217021702170217021702170226
:101300001702170217021702170217021702170215
:1013100017021702170217021702170217025A00C4
:10132000B3000C0165012B7C4FF0000163F30F212A
:101330006B7C63F307018CB2631E9BB2B3F5007F35
:1013400001D30120C3E1304600F062FFB460012008
:10135000BDE12B7C202B4ED06B7CFF2B4ED000238D
:101360008DF84D30AB7C4FF0000163F30F21EB7C27
:1013700063F307018AB22B7D63F30F216B7D63F367
:1013800007018BB2A87D60F30F21E87D60F30701B0
:101390008CB2287E60F30F21687E60F3070189B26A
:1013A000A87E8DF84A00E87E8DF84B00287F8DF8E6
:1013B0004C0009AF9DF84D0007909DF84E00069037
:1013C00000200590049003900290019100940DF18B
:1013D0004A01384600F09EFF6C460CAD0FCD0FC49D
:1013E00095E80F0084E80F0097E80E00304601F002
:1013F0009EF801206BE18DF84E30ADE701238DF8AA
:101400004D30AFE72B7C212B4ED06B7CFF2B4ED089
:1014100000238DF84D30AB7C4FF0000163F30F21BA
:10142000EB7C63F307018AB22B7D63F30F216B7DA5
:1014300063F307018BB2A87D60F30F21E87D60F3B1
:1014400007018CB2287E60F30F21687E60F30701EC
:1014500089B2A87E8DF84A00E87E8DF84B00287F7F
:101460008DF84C0009AF9DF84D0007909DF84E0097
:101470000690002005900490039002900191009442
:101480000DF14A01384600F045FF6C460CAD0FCD1A
:101490000FC495E80F0084E80F0097E80E0030466F
:1014A00001F045F8012012E18DF84E30ADE701233F
:1014B0008DF84D30AFE72B7C222B4ED06B7CFF2B71
:1014C0004ED000238DF84D30AB7C4FF0000163F31C
:1014D0000F21EB7C63F307018AB22B7D63F30F21AD
:1014E0006B7D63F307018BB2A87D60F30F21E87D6C
:1014F00060F307018CB2287E60F30F21687E60F3F1
:10150000070189B2A87E8DF84A00E87E8DF84B006D
:10151000287F8DF84C0009AF9DF84D0007909DF88D
:101520004E000690002005900490039002900191D7
:1015300000940DF14A01384600F0ECFE6C460CAD0B
:101540000FCD0FC495E80F0084E80F0097E80E0058
:10155000304600F0ECFF0120B9E08DF84E30ADE7E9
:1015600001238DF84D30AFE72B7C222B32D06B7CE2
:10157000FF2B32D000238DF84D30AB7C8DF84A30F4
:10158000EB7C8DF84B302B7D8DF84C3009AF9DF8FE
:101590004D3007939DF84E30069300230593049336
:1015A0000393029301940094234622460DF14A01CD
:1015B000384600F0AFFE6C460CAD0FCD0FC495E879
:1015C0000F0084E80F0097E80E00304600F0AFFFF0
:1015D00001207CE08DF84E30C9E701238DF84D30B5
:1015E000CBE72B7C4FF0000163F30F216B7C63F39F
:1015F00007012B7D0093EB7CAA7C89B2304600F07A
:10160000F3FD012063E02B7C4FF0000163F30F2119
:101610006B7C63F307011FFA81F9AB7C63F30F2145
:10162000EB7C63F307018CB295F814806F7DAD7D80
:10163000A14509DA00953B4642464946304600F04E
:10164000D3FD09F10109F3E7012040E095F810808E
:101650006F7CAD7C0024B368A34208DD00953B4657
:1016600042462146304600F0BFFD0134F3E7012039
:101670002DE06423F360002386F8393086F8653066
:101680002B7C4FF0000163F30F216B7C63F30701A8
:101690008CB2B368A34201DA012018E04FF00008D1
:1016A0000227A04510DA791CEA19BB1C29442B44F7
:1016B0001B7C00930B7C127C03374146304600F0C4
:1016C00093FD08F10108ECE7012000E0002015B0CF
:1016D000BDE8F08382B001909DF804305BB99DF8BD
:1016E00005207F2A01D0002006E09DF80620FF2A71
:1016F00021D0002000E000201BB99DF80520FF2A22
:101700001BD01BB99DF80520FF2A1CD01BB99DF8E2
:101710000520FF2A1ED07F2B23D0FF2B2CD0FF2BA0
:1017200035D0FF2B3ED0FF2B47D0FF2B50D07F2B47
:1017300059D002B070477F20DEE79DF80620FF2ACF
:10174000DFD1FE20DDE79DF806207F2ADED140F2C2
:101750007D10DBE79DF80620002ADCD14FF4FE70F7
:10176000D9E79DF80520FF2AD7D19DF80620002A49
:10177000D3D140F27B20D0E79DF80520FF2ACED1BF
:101780009DF80620002ACAD140F2FA20C7E79DF84A
:1017900005207F2AC5D19DF80620002AC1D140F23C
:1017A0007930BEE79DF80520002ABCD19DF80620BF
:1017B000002AB8D14FF47E70B5E79DF80520002AC5
:1017C000B3D19DF806207F2AAFD140F27740ACE735
:1017D0009DF80520002AAAD19DF80620FF2AA6D14F
:1017E00040F2F640A3E79DF80530002BA1D19DF80B
:1017F0000630FF2B9DD140F275509AE72DE9F84352
:1018000007460E4601F1FF380025A94600E00135E4
:10181000B54216DA7C5D303CE4B2092CF7D840467C
:10182000FEF7C8FD02460B460020074905F000FB05
:10183000FFF7DAF800FB04941FFA84F908F1FF3887
:10184000E5E74846BDE8F883000024400278A2F1AD
:101850003003DBB2092B04D9A2F16101C9B2052919
:101860000FD94178A1F13002D2B2092A04D9A1F1ED
:101870006100C0B2052807D91801C0B21044C0B237
:101880007047573AD3B2ECE75739CAB2F4E710B50C
:1018900084B0044600238DF808308DF809308DF8A7
:1018A0000A3006290FD1FFF7D1FF8DF80800A01CE0
:1018B000FFF7CCFF8DF80900201DFFF7C7FF8DF85B
:1018C0000A003CE001342378282BFBD101340021AD
:1018D00007E001F110026A4402F80C3C01340131C6
:1018E000C9B223782C2BF4D101A8FFF787FF8DF81C
:1018F00008000234002107E001F110026A4402F8F6
:101900000C3C01340131C9B223782C2BF4D101A84D
:10191000FFF774FF8DF809000234002107E001F1A0
:1019200010026A4402F80C3C01340131C9B2237838
:101930002C2BF4D101A8FFF761FF8DF80A00029B60
:10194000ADF80C301B0C8DF80E3000209DF80C30DB
:1019500063F307009DF80D3063F30F209DF80E3000
:1019600063F3174004B010BD4FF0000C9C450EDA35
:1019700010B5845C11F80CE0744506D101320CF10D
:10198000010C9C45F5DB012010BD0020FCE7012087
:10199000704700002DE9F04F99B007460D461646F6
:1019A00000248DF85C408DF85D408DF85E402C225F
:1019B00021460CA804F091FB7DE20234A4B22B5D19
:1019C000422B7DD101E00134A4B22B5D2F2BFAD143
:1019D0000134A4B2002108E001F160026A4402F877
:1019E000403C013189B20134A4B22B5D2F2BF3D1DD
:1019F00008A8FFF703FF80460134A4B2002108E0E5
:101A000001F160026A4402F8403C013189B20134BC
:101A1000A4B22B5D2F2BF3D108A8FFF7EFFE814670
:101A20000134A4B2002108E001F160026A4402F826
:101A3000403C013189B20134A4B22B5D2F2BF3D18C
:101A400008A8FFF7DBFE82460134A4B2002308E0B9
:101A500003F16001694401F8402C01339BB2013469
:101A6000A4B22A5D2F2AF3D104230022B14908A889
:101A7000FFF77AFF0DF1300B07902023069300212A
:101A80000591049103910291CDF80490CDF8008066
:101A900001235246584600F03DFCEC460DF13C0E49
:101AA000BEE80F00ACE80F009EE80F008CE80F00C6
:101AB0009BE80E00384600F03AFD01E00134A4B284
:101AC0002B5D522BFAD101E00134A4B22B5D2F2BF8
:101AD000FAD10234A4B2002108E001F160026A44A4
:101AE00002F8403C013189B20134A4B22B5D2F2BA6
:101AF000F3D108A8FFF7CBFE8DF85C00C0F30723F5
:101B00008DF85D30C0F307408DF85E001798FFF741
:101B1000E1FD80460234A4B2002108E001F1600238
:101B20006A4402F8403C013189B20134A4B22B5D11
:101B30002F2BF3D108A8FFF7AAFE8DF85C00C0F3A5
:101B400007238DF85D30C0F307408DF85E001798CD
:101B5000FFF7C0FD81460134A4B2002108E001F185
:101B600060026A4402F8403C013189B20134A4B2F7
:101B70002B5D2F2BF3D108A8FFF740FE82460134DE
:101B8000A4B2002308E003F16001694401F8402C8D
:101B900001339BB20134A4B22A5D2F2AF3D104236E
:101BA0000022644908A8FFF7DFFE0DF1300B079013
:101BB0002123069300210591049103910291CDF810
:101BC0000490CDF8008001235246584600F0A2FB55
:101BD000EC460DF13C0EBEE80F00ACE80F009EE8AD
:101BE0000F008CE80F009BE80E00384600F09FFCC9
:101BF00001E00134A4B22B5D442BFAD101E00134A1
:101C0000A4B22B5D2F2BFAD10234A4B2002108E03C
:101C100001F160026A4402F8403C013189B20134AA
:101C2000A4B22B5D2F2BF3D108A8FFF730FE8DF85F
:101C30005C00C0F307238DF85D30C0F307408DF8DA
:101C40005E000134A4B2002108E001F160026A44A0
:101C500002F8403C013189B20134A4B22B5D2F2B34
:101C6000F3D108A8FFF7CAFD80460134A4B20023CF
:101C700008E003F16001694401F8402C01339BB294
:101C80000134A4B22A5D2F2AF3D10423002229496A
:101C900008A8FFF769FE0DF130090790222306938B
:101CA000002305930493039302930193009301236C
:101CB000424617A9484600F02DFBEC460DF13C0EBC
:101CC000BEE80F00ACE80F009EE80F008CE80F00A4
:101CD00099E80E00384600F02AFC01E00134A4B275
:101CE0002B5D572BFAD101E00134A4B22B5D2F2BD1
:101CF000FAD10234A4B2002108E001F160026A4482
:101D000002F8403C013189B20134A4B22B5D2F2B83
:101D1000F3D108A8FFF7BBFD8DF85C00C0F30723E3
:101D20008DF85D30C0F307408DF85E000134A4B239
:101D300000210AE05C7E000801F160026A4402F8BA
:101D4000403C013189B20134A4B22B5D2F2BF3D179
:101D500008A8FFF753FD81460134A4B2002108E032
:101D600001F160026A4402F8403C013189B2013459
:101D7000A4B22B5D2F2BF3D108A8FFF73FFD8046BF
:101D80000134A4B2002308E003F16001694401F8C2
:101D9000402C01339BB20134A4B22A5D2F2AF3D127
:101DA000042300224C4908A8FFF7DEFD0DF1300A9C
:101DB0000790232306930021059104910391CDF808
:101DC00008900191009101234246504600F0A2FA8A
:101DD000EC460DF13C0EBEE80F00ACE80F009EE8AB
:101DE0000F008CE80F009AE80E00384600F09FFBC9
:101DF00001E00134A4B22B5D532BFAD101E0013490
:101E0000A4B22B5D2F2BFAD10234A4B2002108E03A
:101E100001F160026A4402F8403C013189B20134A8
:101E2000A4B22B5D2F2BF3D108A8FFF730FD8DF85E
:101E30005C00C0F307238DF85D30C0F307408DF8D8
:101E40005E000134A4B2002308E003F1600169449C
:101E500001F8402C01339BB20134A4B22A5D2F2A31
:101E6000F3D1042300221C4908A8FFF77DFD0DF1E2
:101E700030090790242306930023059304930393CA
:101E80000293019300930123424617A9484600F0AC
:101E900041FAEC460DF13C0EBEE80F00ACE80F0035
:101EA0009EE80F008CE80F0099E80E00384600F01D
:101EB0003EFB0134A4B2B4420ADA2B5D262BF8D1E2
:101EC000631C9BB2EA5C2F2A3FF477AD1C46F0E717
:101ED000012019B0BDE8F08F5C7E000820B100221F
:101EE00042710271016082607047836801338360D0
:101EF000027922B90268934201D3012343717047EA
:101F00000346407910B11B7903B1002070470023CC
:101F1000437183607047B0F82826A0F82A2600F5A0
:101F20000572C0F814260022A0F8282680F8302672
:101F3000012280F82E26704708B586460846002301
:101F400006E00EEB03024FF0000C82F814C20133DE
:101F5000B3F5806FF5DB0EF50571CEF8141600238E
:101F6000AEF82636AEF828368EF830368EF8313692
:101F70008EF832368EF82E364FF4C873CEF81C36F3
:101F8000012203F00CFF08BD08B5D0F8203601335C
:101F9000C0F8203690F8302622B1D0F8181601315A
:101FA000C0F818160AB1052B00D808BD0023A0F808
:101FB0002636C0F81836FFF7AEFFF6E700B54FF04B
:101FC000000E4FF6FF730CE05B08013A3AB113F0D4
:101FD000010FF9D04AF2010C8CEA5303F5E70EF138
:101FE000010E8E4504DA10F80E2053400822EDE76A
:101FF00098B25DF804FB10B503460846012283F849
:1020000030260021C3F82016B3F828161144A3F88F
:102010002816B3F826C6D3F8141611F8014B03EBB3
:102020000C0E8EF814429444A3F826C6C3F8141676
:1020300003F0B5FE10BD38B50C4690F814324B7065
:1020400090F815320B7090F81632CB7090F817326A
:102050008B7090F818324B7190F819320B71898897
:10206000B1F5806F45D8054690F81A32E37290F8C2
:102070001B32A37290F81C32637290F81D322372E7
:1020800090F81E32E37390F81F32A37390F8203259
:10209000637390F82132237300230E2207E0A818FF
:1020A00090F814C2E01880F810C001330132A1F199
:1020B00010009842F3DC531C2A4492F8142284F84E
:1020C00011222B4493F8143284F81032023905F5AA
:1020D0000570FFF773FFA5F82406B4F81032984294
:1020E00009D0238833B1638823B1A38813B10120B9
:1020F00000E0002038BD0120FCE710B588B00446A0
:10210000084663788DF8003023788DF80130E37845
:102110008DF80230A3788DF8033063798DF80430A0
:1021200023798DF80530E37A8DF80630A37A8DF89F
:102130000730637A8DF80830237A8DF80930E37B15
:102140008DF80A30A37B8DF80B30637B8DF80C3053
:10215000237B8DF80D3000220E2309E003F12001CE
:102160000DEB010C4FF0FF0E0CF820EC01320133A7
:102170000F2AF3DD5A1C94F8111220336B4403F834
:10218000201C94F8101202F120036B4403F8201C69
:102190004FF47A732022694603F0B3FB08B010BDF8
:1021A00090F82E067047002380F82E367047426064
:1021B000016083606423C360002380F8EC307047C3
:1021C00010B4046874B1D0F808C08C450ADB01EB88
:1021D0004101625404684A1CA354036802319DF80B
:1021E00004205A5410BC704710B4446874B1D0F83D
:1021F00008C08C450ADB01EB4101625442680A4485
:10220000537043680B449DF804209A7010BC7047CB
:1022100070B582B0064600250FE0002400942346E6
:10222000224629463046FFF7DFFF00942346224628
:1022300029463046FFF7C4FF0135B368AB42ECDCFA
:1022400002B070BD2DE9F04383B00746C068FEF7C9
:10225000ADFC1B49FEF7B2FD8046002429E07A68F8
:1022600004EB440302EB0309D05CFEF79BFC414600
:10227000FEF7F0FCFEF73EFEC5B299F80100FEF74E
:1022800091FC4146FEF7E6FCFEF734FEC6B299F833
:102290000200FEF787FC4146FEF7DCFCFEF72AFE53
:1022A000C0B2009033462A4621463846FFF788FFE1
:1022B0000134BB68A342D2DC03B0BDE8F08300BFA9
:1022C0000000C84230B585B00546039100240BE0FC
:1022D0009DF80E3000939DF80D309DF80C2021469E
:1022E0002846FFF781FF0134AB68A342F0DC05B05C
:1022F00030BD00B585B003929DF80E3000939DF877
:102300000D309DF80C20FFF76FFF05B05DF804FB62
:10231000C16070472DE9F84304460D4617461E4636
:10232000BDF82090BDF8248042464946FEF781FF63
:10233000A4F81A90A4F81C80A782E6829DF83C308D
:1023400084F82930C5B1AB786A78297804F1260081
:10235000FEF710FE9DF8383084F82A30BDF828309A
:10236000E383BDF82C302384BDF830306384BDF89E
:102370003430A384BDE8F88300231A46194604F1DB
:102380002600FEF7F7FDE5E784B010B588B00446F7
:102390000BA880E80E0094F8EC00092832D89DF8CC
:1023A0005620A2F12003042B27D8DFE803F00330E6
:1023B00054789C002C2303FB00F010309DF855301E
:1023C00007930692BDF850300593BDF84E30049344
:1023D000BDF84C300393BDF84A300293BDF8483045
:1023E0000193BDF846300093BDF84230BDF840205F
:1023F0000DF152012044FFF78DFF94F8EC300133CA
:1024000084F8EC3008B0BDE8104004B070472C23CD
:1024100003FB00F010309DF8553007930692BDF88D
:1024200050300593BDF84E300493BDF84C30039303
:10243000BDF84A300293BDF848300193BDF84630EC
:102440000093BDF84230BDF840200DF15201204408
:10245000FFF760FFD1E72C2303FB00F010309DF85D
:10246000553007930692BDF850300593BDF84E30B5
:102470000493BDF84C300393BDF84A300293BDF885
:1024800048300193BDF846300093BDF84230BDF8A6
:1024900040200DF152012044FFF73CFFADE72C2313
:1024A00003FB00F010309DF8553007930692BDF8FD
:1024B00050300593BDF84E300493BDF84C30039373
:1024C000BDF84A300293BDF848300193BDF846305C
:1024D0000093BDF84230BDF840200DF15201204478
:1024E000FFF718FF89E72C2303FB00F010309DF85D
:1024F000553007930692BDF850300593BDF84E3025
:102500000493BDF84C300393BDF84A300293BDF8F4
:1025100048300193BDF846300093BDF84230BDF815
:1025200040200DF152012044FFF7F4FE65E784B02E
:1025300000B589B00DF12C0C8CE80E009DF85620EA
:10254000A2F12003042B23D8DFE803F00327476719
:1025500087009DF8553007930692BDF850300593DB
:10256000BDF84E300493BDF84C300393BDF84A30AB
:102570000293BDF848300193BDF846300093BDF892
:102580004230BDF840200DF152011030FFF7C2FE7D
:1025900009B05DF804EB04B070479DF8553007931F
:1025A0000692BDF850300593BDF84E300493BDF847
:1025B0004C300393BDF84A300293BDF84830019384
:1025C000BDF846300093BDF84230BDF840200DF113
:1025D00052013C30FFF79EFEDAE79DF85530079335
:1025E0000692BDF850300593BDF84E300493BDF807
:1025F0004C300393BDF84A300293BDF84830019344
:10260000BDF846300093BDF84230BDF840200DF1D2
:1026100052016830FFF77EFEBAE79DF85530079308
:102620000692BDF850300593BDF84E300493BDF8C6
:102630004C300393BDF84A300293BDF84830019303
:10264000BDF846300093BDF84230BDF840200DF192
:1026500052019430FFF75EFE9AE79DF855300793DC
:102660000692BDF850300593BDF84E300493BDF886
:102670004C300393BDF84A300293BDF848300193C3
:10268000BDF846300093BDF84230BDF840200DF152
:102690005201C030FFF73EFE7AE738B505460C46DA
:1026A000CB8A8A8B498BFEF7C4FD638B6B83A38B2C
:1026B000AB83A38AAB82E38AEB8294F8293085F856
:1026C000293094F8283094F8272094F8261005F142
:1026D0002600FEF74FFC94F82A3085F82A3038BDE2
:1026E000D8B138B50C46054649B191F8293033B117
:1026F0000A8B8B8A9A4203D8238B0133238338BDFC
:102700000846FEF778FD21782846FFF701FE2846A7
:10271000FFF798FD00232383EEE77047002800F0C1
:10272000028170B582B00C46054649B191F8293056
:1027300033B10A8B8B8A9A4204D8238B01332383CB
:1027400002B070BD0846FEF756FD2046FEF751FD6B
:1027500082B2754BA3FB0213D11A03EB5100C0F3F5
:10276000871000238DF804308DF805308DF8063081
:10277000A0EBC0139BB213449EB20B2815D8DFE820
:1027800000F0061E2F3F505F708091A0B1C1FEF790
:10279000F5FB8DF80400C0F307238DF80530C0F376
:1027A00007408DF806008DF8056001992846FFF76F
:1027B00089FD2846FFF746FD00232383BDE7FEF78A
:1027C000DDFB8DF80400C0F307238DF80530C0F35E
:1027D00007408DF8060006F17F038DF80530E4E729
:1027E000FEF7CCFB8DF80400C0F307238DF805300D
:1027F000C0F307408DF80600F3438DF80630D4E7A8
:10280000FEF7BCFB8DF80400C0F307238DF80530FC
:10281000C0F307408DF80600C6F17F038DF806303F
:10282000C3E7FEF7ABFB8DF80400C0F307238DF878
:102830000530C0F307408DF806008DF80460B4E75A
:10284000FEF79CFB8DF80400C0F307238DF80530DC
:10285000C0F307408DF8060006F17F038DF80430C1
:10286000A3E7FEF78BFB8DF80400C0F307238DF878
:102870000530C0F307408DF80600F3438DF80530AE
:1028800093E7FEF77BFB8DF80400C0F307238DF878
:102890000530C0F307408DF80600C6F17F038DF8C0
:1028A000053082E7FEF76AFB8DF80400C0F30723CA
:1028B0008DF80530C0F307408DF806008DF80660EE
:1028C00073E7FEF75BFB8DF80400C0F307238DF878
:1028D0000530C0F307408DF8060006F17F038DF840
:1028E000063062E7FEF74AFB8DF80400C0F30723C9
:1028F0008DF80530C0F307408DF80600F3438DF8DE
:10290000043052E7FEF73AFB8DF80400C0F30723CA
:102910008DF80530C0F307408DF80600C6F17F033F
:102920008DF8043041E77047110804022DE9F043A7
:1029300083B091F8297017B903B0BDE8F08305465C
:102940000E4600238DF800308DF801308DF80230EE
:102950008DF804308DF805308DF8063091F8283068
:1029600091F8272091F8261001A8FEF703FB328B7F
:10297000B38A9A427DD39DF80430FF2B0ED04FF0DE
:1029800000089DF80530FF2B0AD04FF000099DF894
:102990000630FF2B00D00027002414E0B846F0E7F3
:1029A000B946F4E700238DF8003044E000238DF8A9
:1029B00001304EE000238DF80230009A214628466F
:1029C000FFF797FC0134AB68A34250D9696804EB68
:1029D00044028B188A5C8DF800205A788DF801200B
:1029E0009B788DF8023003F035FA244BA3FB0023CB
:1029F0001B09322202FB13037BB9B8F1000F02D08E
:102A0000FF238DF80030B9F1000F02D0FF238DF8BD
:102A1000013017B1FF238DF80230B8F1000F0AD052
:102A20009DF80030282BBDD9154AA2FB0312A3EB59
:102A300052138DF80030B9F1000F0AD09DF8013023
:102A4000282BB3D90E4AA2FB0312A3EB52138DF825
:102A50000130002FB1D09DF80230282BAAD9084AA6
:102A6000A2FB0312A3EB52138DF80230A5E700235B
:102A70003383338B013333835EE700BF1F85EB5114
:102A8000CDCCCCCCF8B591F8293043B106460C46F4
:102A90000A8B8B8A9A4203D8238B01332383F8BD98
:102AA0000846FEF7A8FB2046FEF7A3FB07460025D5
:102AB00009E0E28C94F8280042EA0042C91A304644
:102AC000FFF717FC0135E38BAB420DDDB9B22944AA
:102AD000B3689942EDDAE38C94F8282043EA024285
:102AE0003046FFF706FCEDE700232383D4E760B10F
:102AF00008B591F8293003B908BDCB8C91F828109E
:102B000043EA0141FFF7DEFBF6E7704738B50546BB
:102B1000002408E02C2104FB01F11031294428464F
:102B2000FFF7DEFD013495F8EC30A34238DD2C23AD
:102B300003FB045393F83A30203B042BF2D801A254
:102B400052F823F0152B0008592B00086B2B0008B6
:102B50007D2B00088F2B00082C2104FB01F1103184
:102B600029442846FFF7DAFDDCE72C2104FB01F1BC
:102B7000103129442846FFF7D9FED3E72C2104FB66
:102B800001F1103129442846FFF77CFFCAE72C21C8
:102B900004FB01F1103129442846FFF7A8FFC1E7E3
:102BA00038BD00BF08B50E4B04221A730D4A1A60D7
:102BB0004FF4C0625A60052119770B4919615A61B7
:102BC000062183F82C10094919625A62072183F8FB
:102BD0003C10074919635A6300F0CCFA08BD00BFE6
:102BE0004C1A00209C1200209C0C00209C06002007
:102BF0009C00002008B5064B93F8403003B908BD8F
:102C0000034B012283F8412000F0C2FAF7E700BF2E
:102C10004C1A002070B42E4EB45CF55C9DF80C305C
:102C2000F25C01EB4103E443ED43D243294901EB5C
:102C3000031101F1614101F580114E01830003EBA5
:102C40004113E90946F82010A90919646909C3F874
:102C500080102909C3F8C010E908C3F80011A908B9
:102C6000C3F840116908C3F88011C3F8C051E109E5
:102C7000C3F80012A109C3F840126109C3F8801219
:102C80002109C3F8C012E108C3F80013A108C3F872
:102C900040136108C3F88013C3F8C043D109C3F8D7
:102CA00000149109C3F840145109C3F880141109A4
:102CB000C3F8C014D108C3F800159108C3F8401533
:102CC0005108C3F88015C3F8C02570BC704700BF19
:102CD000647E0008EC19002070B582B00568846835
:102CE000631C83602A5DA61C8660EB5C03348460F1
:102CF000AD5D4668B44206D0009589B2007BFFF70F
:102D000089FF02B070BD00248460F5E7204A936C0F
:102D100001339364B3F5806F02D010B5002433E023
:102D2000134600229A641B4A1168CB6843F00103E2
:102D3000CB60194B19680B6823F001030B60174B2C
:102D400019680B6823F001030B60154B19680B68B9
:102D500023F001030B601368DA6822F48072DA60F2
:102D6000DA6822F40072DA60DA6822F48062DA60EB
:102D70000C4B1A680C4B1A6170470121044800EB98
:102D80000410FFF7A9FF0134032CF6D910BD00BFD2
:102D90004C1A0020A419002024190020E01800205B
:102DA0009C180020000000200008014038B50025D4
:102DB000284B83F840500CE0264C04EB051400210E
:102DC000A1602046FFF788FF01212046FFF784FF1E
:102DD0000135032DF0D9204BE0225A604FF46022D8
:102DE0005A604FF060625A601C4B1B6830225A6078
:102DF0001B4C21684A601B4801684A601A490A68EE
:102E00006FF01F0515611A6842F001021A6022680E
:102E1000136843F0010313600268136843F0010371
:102E200013600B68DA6842F48072DA60DA6842F4A0
:102E30000072DA60DA6842F48062DA600B4A126883
:102E4000013A4FF080414A621A6842F001021A606A
:102E500038BD00BF4C1A0020000002402419002099
:102E6000E01800209C180020A419002068190020F8
:102E700010B582B00D4B9A6C40F2FF339A420CD0E1
:102E8000002406E00021094800EB0410FFF724FFAE
:102E90000134032CF6D902B010BD00200090034687
:102EA00002460146FFF7B6FEF5E700BF4C1A0020C8
:102EB00000B587B00C4B9A6942F004029A619B6995
:102EC00003F004030193019BF02302930123039376
:102ED000002304930223059302A9044801F062FA37
:102EE00007B05DF804FB00BF00100240000801407D
:102EF0002DE9F04F83B0344B5A6942F001025A6118
:102F00005B6903F001030193019B304C4FF0100902
:102F1000C4F804900025A560E5604FF40078C4F87B
:102F200010804FF4006BC4F814B02027A7614FF451
:102F30004056E661264B2360204600F005FFDFF88F
:102F400094A0302352462449204600F033FF234CFE
:102F5000C4F80490A5608023E360C4F810804FF4A7
:102F600080636361A761E6611D4B2360204600F02A
:102F7000EBFE30231B4A1C49204600F01BFF1B4C74
:102F8000C4F80490A560E560C4F81080C4F814B0DB
:102F9000A761E661164B2360204600F0D5FE154B75
:102FA000A362154BE3622A462946112000F084FEF5
:102FB000112000F091FE302352461049204600F0C7
:102FC00022FF03B0BDE8F08F00100240241900205A
:102FD0001C0002401008014004000020E0180020FE
:102FE0005800024014080140EC1900209C180020F1
:102FF000800002400D2D0008712E00080000002006
:103000002DE9F04182B02B4BDA6942F00102DA611E
:10301000DB6903F001030193019B274B1B681B0A2B
:10302000264AA2FB03231B09254A136003EB8301F5
:103030004A00244FA7FB0217FF082349A1FB0212F5
:10304000D608224D4FF080422A60EB6000246C616C
:103050006C602C61AC60284602F08CF92246214657
:103060001C2000F029FE1C2000F036FE18494FF00D
:103070006008C1F800808C604F60CC600C61224613
:10308000284602F000FA1349C1F800808C604E60B7
:10309000CC600C614C618C610422284602F0F3F98B
:1030A000284602F017F82146284602F069FA02B0D5
:1030B000BDE8F0810010024010000020598B4F0144
:1030C00068190020398EE33889888888A41900207F
:1030D000881900206C19002008B5024800F03EFF56
:1030E00008BD00BF2419002008B5024800F036FFD3
:1030F00008BD00BFE018002008B5024800F02EFF10
:1031000008BD00BF9C18002008B5024802F015F861
:1031100008BD00BFA4190020144B5B6C0B2B03D817
:103120000133124A53647047104B00225A64104B0B
:103130001B68196A41F21112114208D1196A40F252
:103140004442114203D11A6822F001021A604FF082
:10315000804300221A60064B1A68D36823F00103EB
:10316000D360024B012283F8402070474C1A0020A4
:10317000A419002008B5FFF79BFEFFF7B9FEFFF783
:103180003FFF024B012283F8402008BD4C1A00206B
:1031900008B5064B93F8413003B908BD034B002234
:1031A00083F84120FFF702FEF7E700BF4C1A00202A
:1031B00030B589B000240494059406940794184B04
:1031C0009A6942F010029A619A6902F01002019223
:1031D000019A9A6942F004029A619A6902F0040223
:1031E0000292029A9A6942F008029A619B6903F07E
:1031F00008030393039B0B4D22464FF400512846CE
:1032000001F0DEF94FF40053049301230593069473
:103210000223079304A9284601F0C4F809B030BD81
:10322000001002400010014010B504460268094B2E
:103230009A4204D02268084B9A4205D010BD01463C
:103240000648FEF7D8FEF5E721460548FEF7D3FE0F
:10325000F4E700BF00440040003801404024002053
:10326000081E002008B500F0CFFC024B01221A70A6
:1032700008BD00BF981A002072B6FEE700B58BB0FB
:1032800000230893099301930293039304930593F6
:10329000069307931348144A0260436083604FF615
:1032A000FF72C2600361836102F038F8A0B90023A5
:1032B0000893099308A90B4802F0D0F970B90022CD
:1032C000019202920392059201A9064802F0ACF81D
:1032D00030B90BB05DF804FBFFF7CEFFFFF7CCFF72
:1032E000FFF7CAFFD44600200008004008B50A488E
:1032F0000A4B03604FF4E123436000238360C36003
:1033000003610C2242618361C36102F0CAFA00B911
:1033100008BDFFF7B1FF00BF444600200044004055
:1033200008B50D480D4B03604FF4827343600023D2
:103330008360C360036143614FF400728261C361C3
:103340000362436283620A23C36201F063FD00B932
:1033500008BDFFF791FF00BF1C4700200038004068
:1033600008B50A480A4B03604FF4E1334360002379
:103370008360C36003610C2242618361C36102F018
:1033800090FA00B908BDFFF777FF00BF8C46002018
:103390000038014000B591B02822002106A802F0B3
:1033A0009CFE00230193029303930493059302234D
:1033B000069301220A9210220B920D934FF4601390
:1033C0000F9306A801F018FA80B90F230193022188
:1033D0000291002303934FF480620492059301A8A5
:1033E00001F03CFC20B911B05DF804FBFFF744FF8D
:1033F000FFF742FF80B588B000F0F4FBFFF7CAFF8B
:10340000FFF7D6FEFFF73AFFFFF770FFFFF788FFE1
:10341000FFF7A6FFE74DE84E01222946304602F0AD
:10342000BEFCE64FE64C01223946204602F0B7FCCE
:103430004FF47A730622E349204602F062FAFFF75E
:10344000B1FB8023E04AE149E148FEF7B0FE80236A
:10345000E04AE149E148FEF7AAFE8023E04AE1495B
:10346000E148FEF7A4FE8023E04AE149E148FEF787
:103470009EFE1421E048FEF731FD2146A7F50570B8
:10348000FEF75AFD3146A5F50570FEF755FDDB4DFB
:10349000DB492846FDF704FEDA4C2C22DA492046A7
:1034A000FDF7F9FD21462846FDF705FE2C22D749F8
:1034B0002046FDF7F0FD21462846FDF7FCFD2C22B5
:1034C000D3492046FDF7E7FD21462846FDF7F3FDE9
:1034D0002C22D0492046FDF7DEFD21462846FDF787
:1034E000EAFD2C22CC492046FDF7D5FD2146284691
:1034F000FDF7E1FD2846FDF7BDFD002800F0B38192
:103500002846FDF759FEC04CDFF8C4826D4604F131
:103510000C060FCE0FC596E80F0085E80F0094E863
:103520000E004046FEF730FFAC4F6D4604F10C062E
:103530000FCE0FC596E80F0085E80F0094E80E0047
:103540003846FEF721FFA84E6D4604F10C0CBCE88E
:103550000F000FC59CE80F0085E80F0094E80E00EF
:103560003046FEF711FFA34DEC4604F10C0EBEE809
:103570000F00ACE80F009EE80F008CE80F0094E805
:103580000E002846FEF700FFA04CEC4604F10C0E9E
:10359000BEE80F00ACE80F009EE80F008CE80F00BB
:1035A00094E80E004046FEF7EFFEEC4604F10C0EE8
:1035B000BEE80F00ACE80F009EE80F008CE80F009B
:1035C00094E80E003846FEF7DFFEEC4604F10C0EE0
:1035D000BEE80F00ACE80F009EE80F008CE80F007B
:1035E00094E80E003046FEF7CFFEEC4604F10C0ED8
:1035F000BEE80F00ACE80F009EE80F008CE80F005B
:1036000094E80E002846FEF7BFFE814CEC4604F11C
:103610000C0EBEE80F00ACE80F009EE80F008CE82F
:103620000F0094E80E004046FEF7AEFEEC4604F1B3
:103630000C0EBEE80F00ACE80F009EE80F008CE80F
:103640000F0094E80E003846FEF79EFEEC4604F1AB
:103650000C0EBEE80F00ACE80F009EE80F008CE8EF
:103660000F0094E80E003046FEF78EFEEC4604F1A3
:103670000C0EBEE80F00ACE80F009EE80F008CE8CF
:103680000F0094E80E002846FEF77EFE614CEC46E3
:1036900004F10C0EBEE80F00ACE80F009EE80F002E
:1036A0008CE80F0094E80E004046FEF76DFEEC46F5
:1036B00004F10C0EBEE80F00ACE80F009EE80F000E
:1036C0008CE80F0094E80E003846FEF75DFEEC46ED
:1036D00004F10C0EBEE80F00ACE80F009EE80F00EE
:1036E0008CE80F0094E80E003046FEF74DFEEC46E5
:1036F00004F10C0EBEE80F00ACE80F009EE80F00CE
:103700008CE80F0094E80E002846FEF73DFE424C80
:10371000EC4604F10C0EBEE80F00ACE80F009EE88A
:103720000F008CE80F0094E80E004046FEF72CFED8
:10373000EC4604F10C0EBEE80F00ACE80F009EE86A
:103740000F008CE80F0094E80E003846FEF71CFED0
:10375000EC4604F10C0EBEE80F00ACE80F009EE84A
:103760000F008CE80F0094E80E003046FEF70CFEC8
:10377000EC4604F10C0EBEE80F00ACE80F009EE82A
:103780000F008CE80F0094E80E002846FEF7FCFDC1
:103790004046FEF757FD3846FEF754FD3046FEF72B
:1037A00051FD2846FEF74EFD1C4B1B78002B40F0C8
:1037B000B48035E01C2000208C46002054260020D8
:1037C00044460020647F0008783C00209C120020C2
:1037D00048450020783600209C0C002058440020EA
:1037E000783000209C06002068430020782A0020C2
:1037F0009C0000207842002038460020A01A0020BB
:1038000000A000080C1B0020DC1D0020B01D0020C3
:10381000841D0020581D00202C1D0020981A002017
:10382000B648FEF7BDFC002840F09080B448FEF793
:10383000B7FC002840F0EC80B248FEF761FB00289E
:10384000B2D0B148FEF7FEFCB048FEF7FBFCB04832
:10385000FEF7F8FCAF48FEF7F5FCFFF7CBF9A948F7
:10386000FEF755FBA0E7AC4E0125079520230693F4
:1038700000240594049403940294502301933C2360
:1038800000932B4664223146A448FEF743FD07957A
:103890002123069305940494039402944FF44873EF
:1038A0000193C82300932B464FF47A7231469C480B
:1038B000FEF730FD9B4E0795222306930594049452
:1038C000039402946423019300942B4628223146EA
:1038D0009548FEF71FFD079523230693059404944E
:1038E0000394032302933023019300942B464FF457
:1038F0007A7231468D48FEF70DFD07952423069315
:10390000059404940394029401940094234622465F
:1039100031468748FEF7FEFCF5E57948FEF734FBB3
:103920007648FEF731FB7748FEF7DFFA7648FFF777
:10393000EDF87648FFF7EAF87548FFF7E7F87548BD
:10394000FFF7E4F87B4B00221A7069E76B49B1F886
:103950002A2601F505716C48FEF71CF830BB674854
:10396000FEF721FC4FF40051734800F02FFE664F24
:103970003846FEF74DFC654E3046FEF749FC644D77
:103980002846FEF745FC634C2046FEF741FC3846CE
:10399000FEF758FC3046FEF755FC2846FEF752FC71
:1039A0002046FEF74FFCFFF725F93FE7534C04F59F
:1039B0000575B4F82A2629465448FDF7EBFFB4F8FC
:1039C0002A2629465248FDF7E5FFB4F82A2629465B
:1039D0005048FDF7DFFF594C21465048FEF75DFE89
:1039E00004F12C014E48FEF758FE04F158014E48F0
:1039F000FEF753FE04F184014C48FEF74EFE04F13D
:103A0000B0014B48FEF749FE4D48FDF771FBA6E7B4
:103A10004C493B48FEF70FFB002837D0494B5B88E9
:103A2000013B042B32D8DFE803F0034C5A919F008E
:103A3000444D354C29462046FDF704FC29463348C1
:103A4000FDF700FC29463248FDF7FCFB29463148CA
:103A5000FDF7F8FB04F110013048FEF71EFE04F1FB
:103A60003C012F48FEF719FE04F168012E48FEF7CD
:103A700014FE04F194012D48FEF70FFE04F1C0017D
:103A80002B48FEF70AFE2E48FDF732FB1C48FEF7D6
:103A90008AFB4FF40051284800F098FD2A49294834
:103AA000FEF72BFB1848FEF7CDFB1848FEF7CAFBC4
:103AB0001748FEF7C7FB1748FEF7C4FBFFF79AF855
:103AC000BAE6114C1F492046FDF7BCFB04F1680122
:103AD0001548FEF7E2FD1A48FDF70AFBD6E70B4C46
:103AE00018492046FDF7AEFB04F168010E48FEF7C9
:103AF000D4FD1348FDF7FCFAC8E700BF081E0020FC
:103B0000402400203846002048450020584400202A
:103B100068430020784200209C1A0020DC1D002011
:103B2000B01D002008000020841D0020581D00202A
:103B30002C1D0020981A002000100140584500203C
:103B4000A01A0020181B0020444600200D4C0E49EE
:103B50002046FDF777FB04F168010C48FEF79DFD58
:103B60000B48FDF7C5FA91E70A4C07492046FDF7D7
:103B700069FB04F168010548FEF78FFD0448FDF775
:103B8000B7FA83E768430020181B0020841D00203B
:103B9000A01A00207842002010B504460E4B1A7877
:103BA0004FF47A73B3FBF2F30C4A1068B0FBF3F0F6
:103BB00000F0A0F868B90F2C01D901200AE000221A
:103BC00021464FF0FF3000F077F8054B1C600020D5
:103BD00000E0012010BD00BF0B00002010000020FD
:103BE0000C00002008B5074A136843F01003136067
:103BF000032000F04FF80F20FFF7CEFF00F0F0FC9D
:103C0000002008BD00200240034A1168034B1B78C6
:103C10000B441360704700BF744700200B00002066
:103C2000014B1868704700BF74470020002808DB6C
:103C30000901C9B200F1604000F5614080F800134D
:103C4000704700F00F000901C9B2014B19547047C9
:103C500014ED00E000B500F00700C0F1070CBCF166
:103C6000040F28BF4FF0040C031D062B0FD9C31EF1
:103C70004FF0FF3E0EFA0CF021EA000199400EFAD7
:103C800003FE22EA0E0241EA02005DF804FB002373
:103C9000EEE70000074AD36823F4E0631B041B0C23
:103CA000000200F4E060034343F0BF6343F40033D9
:103CB000D360704700ED00E010B50446054BD868AE
:103CC000C0F30220FFF7C6FF01462046FFF7AEFF14
:103CD00010BD00BF00ED00E0002807DB00F01F0270
:103CE000400901239340024A42F82030704700BF48
:103CF00000E100E00138B0F1807F0BD24FF0E0230B
:103D00005861054AF02182F82310002098610722AB
:103D10001A6170470120704700ED00E030B40124C3
:103D2000056CAC40C56B6C60046863604368102B25
:103D300005D0036899600368DA6030BC7047036897
:103D40009A600368D960F8E760B310B4024601686E
:103D5000154B0B441548A0FB03031B099B00136480
:103D6000134BD363022382F82130086820F47F507C
:103D700020F03000536894682343D46823431469C7
:103D800023435469234394692343D469234303435E
:103D90000B6000209063012382F8213082F820001C
:103DA00010BC704701207047F8FFFDBFCDCCCCCCD4
:103DB0000000024070B5044690F82000012820D091
:103DC000012084F8200094F82100C0B2012804D01A
:103DD000002384F82030022070BD022084F82100E6
:103DE0000025A5632668306820F001003060204679
:103DF000FFF794FF2268136843F00103136028461D
:103E0000EAE70220E8E738B5044690F820000128E8
:103E100032D0012084F8200094F82100C0B201289B
:103E200004D0002384F82030022038BD022084F81A
:103E300021000020A0632568286820F00100286088
:103E40002046FFF76BFFE36A5BB12268136843F01B
:103E50000E0313602268136843F00103136000200F
:103E6000E3E72268136823F00403136022681368F1
:103E700043F00A031360EDE70220D6E7034690F80B
:103E80002120D2B2022A06D004228263002280F8C6
:103E900020200120704701680A6822F00E020A60A3
:103EA00001680A6822F001020A60026CC06B0121FD
:103EB00001FA02F2426083F82110002083F820000A
:103EC0007047000008B590F82130DBB2022B03D018
:103ED00004238363012008BD0268136823F00E03E6
:103EE00013600268136823F0010313600368194A22
:103EF000934214D0143293421FD0143293421ED0F6
:103F0000143293421ED0143293421ED01432934284
:103F100002D04FF0807203E04FF4801200E00122E3
:103F20000D4B5A60012380F82130002380F82030A7
:103F3000436B6BB198470020CDE71022F0E74FF4B8
:103F40008072EDE74FF48052EAE74FF48032E7E702
:103F50000020C0E7080002400000024038B5C36BF3
:103F60001A6804682568016C04238B40134235D01D
:103F700015F0040F32D0236813F0200F03D123680B
:103F800023F0040323600368434A934214D014329D
:103F9000934218D01432934217D01432934217D060
:103FA0001432934217D01432934202D04FF0806201
:103FB00003E04FF4800200E00422384B5A60C36AE9
:103FC00003B1984738BD4022F7E74FF48062F4E729
:103FD0004FF48042F1E74FF48022EEE702238B405A
:103FE00013423CD015F0020F39D0236813F0200F94
:103FF00006D1236823F00A032360012380F82130CF
:104000000368254A934214D0143293421CD01432D0
:1040100093421BD0143293421BD0143293421BD0D4
:104020001432934202D04FF0007203E04FF40012BA
:1040300000E00222194B5A60002380F82030836A86
:10404000002BBFD09847BDE72022F3E74FF4007262
:10405000F0E74FF40052EDE74FF40032EAE70823AF
:104060008B401342AED015F0080FABD0236823F07D
:104070000E032360026CC16B012303FA02F24A6053
:10408000836380F82130002380F82030036B002BFD
:1040900098D0984796E700BF080002400000024011
:1040A000044B0022DA61044A136943F001031361EF
:1040B000018070477847002000200240194BDB68E0
:1040C00013F0100305D0184AD36943F00203D361FB
:1040D0001023144AD26812F0040F06D01249CA699C
:1040E00042F00102CA6143F004030E4AD26912F0A1
:1040F000010F09D00C49CA6942F00402CA6109499A
:10410000CA6922F00102CA6140F20112934202D050
:10411000044AD3607047034AD36923F00103D36193
:10412000704700BF00200240784700200A4B1B69FF
:1041300013F0800F0BD0084B084A5A6002F1883206
:104140005A601B6913F0800F03D1002070470020D4
:1041500070470120704700BF0020024023016745DF
:10416000034A136943F0800313610020704700BFC6
:1041700000200240074B1B6913F4007F07D1054B59
:10418000054A9A6002F188329A6000207047012047
:10419000704700BF0020024023016745034A1369AE
:1041A00023F4007313610020704700BF0020024019
:1041B00038B50446FFF734FD0546164BDB6813F0AF
:1041C000010F0AD0B4F1FF3FF7D024B1FFF728FD6B
:1041D000401BA042F1D903201BE00E4BDB6813F01B
:1041E000200F02D00B4B2022DA600A4BDB6813F061
:1041F000100F0BD1074BDB6913F0010F06D1054BF4
:10420000DB6813F0040F01D1002002E0FFF756FF36
:10421000012038BD002002402DE9F8431E46244B02
:104220001B7E012B41D004460F469046204B0122B5
:104230001A764CF25030FFF7BBFF034678BB012CD7
:1042400008D0022C03D04FF004091C4607E04FF0C1
:104250000209FAE74FF00109F7E70134E4B24C45EF
:104260001DD22101C1F12002A1F1200328FA01F1A0
:1042700006FA02F2114326FA03F3194389B207EB57
:104280004400FFF70DFF4CF25030FFF791FF094B50
:104290001D6925F001051D6103460028DDD0044A93
:1042A000002111761846BDE8F8830223FAE700BF23
:1042B0007847002000200240064B0022DA61064BBE
:1042C0001A6942F004021A611A6942F040021A6146
:1042D000704700BF7847002000200240064B0022B4
:1042E000DA61064B1A6942F002021A6158611A69D2
:1042F00042F040021A6170477847002000200240D7
:10430000264B1B7E012B46D070B505460E46234B2F
:1043100001221A760368022B20D04CF25030FFF7AE
:1043200047FF90BB4FF0FF333360AC680121EA6870
:10433000AB6803EB8223A34228D92046FFF7CEFFC8
:104340004CF25030FFF734FF154A136923F0020393
:1043500013610146B8B904F58064E8E74CF25030C7
:10436000FFF726FF08B1012110E00120FFF7A4FFAD
:104370004CF25030FFF71CFF0146094A136923F045
:104380000403136102E0346000E00121034B0022CA
:104390001A76084670BD022108467047784700200B
:1043A0000020024070B582B00024A446A2E07E4DF9
:1043B000AB4210D007D97D4DAB420CD005F580350E
:1043C000AB4208D013E0A5F58015AB4203D005F54C
:1043D0007025AB4207D18B68002B55D0012B4ED0F6
:1043E0004261082403E0A5F58015AB42F3D0BEF18D
:1043F000FF0F4BD806464FEA8C0233680F259540D5
:1044000023EA050304FA02F2134333604B6813F006
:10441000805F6DD0664B9A6942F001029A619B6998
:1044200003F001030193019B4FEA9C02951C614B31
:1044300053F825600CF00305AD000F23AB4026EACE
:1044400003065D4B984228D003F58063984200F044
:104450008D8003F58063984200F08A8003F58063C5
:10446000984218D0042319E0CC68C0E7CC68043423
:10447000BDE7CC680834BAE7CC680C34B7E7026112
:104480000824B4E70024B2E70424B0E7061DACF129
:1044900008029200B1E7032300E00023AB4033435E
:1044A0000232444D45F822304B6813F4801F61D02E
:1044B000424A936843EA0E0393604B6813F4001F6B
:1044C0005ED03E4AD36843EA0E03D3604B6813F4D0
:1044D000003F5BD0394A536843EA0E0353604B6890
:1044E00013F4803F58D0354A136843EA0E03136033
:1044F0000CF1010C0B6833FA0CF253D0012202FAD2
:104500000CF203EA020E32EA0303F1D14B68122BDC
:104510003FF64DAF122B3FF66AAF01A555F823F0D9
:10452000D743000869440008734400088544000824
:10453000EF430008EF430008EF430008EF43000893
:10454000EF430008EF430008EF430008EF43000883
:10455000EF430008EF430008EF430008EF43000873
:10456000EF4300086D44000879440008012395E7F3
:10457000022393E7114A936823EA0E0393609CE7B2
:104580000E4AD36823EA0E03D3609FE70B4A5368B1
:1045900023EA0E035360A2E7084A136823EA0E03D6
:1045A0001360A5E702B070BD0000221000003110BA
:1045B00000100240000001400008014000040140DA
:1045C0000AB101617047090401617047C36801EADB
:1045D000030221EA030141EA024101617047000040
:1045E00082B00E4B9A6942F001029A619A6902F018
:1045F00001020092009ADA6942F08052DA61DB69C6
:1046000003F080530193019B054A536823F0E06354
:1046100043F00073536002B0704700BF00100240C7
:104620000000014030B587B0002302930393049348
:10463000059302681B4B9A4201D007B030BD03F5C9
:10464000EC33DA6942F48042DA61DA6902F48042DA
:104650000092009A9A6942F008029A619B6903F0FD
:1046600008030193019B4FF4204302930223039319
:10467000032305930C4D02A92846FFF793FE4FF440
:104680008043029300240394049402A92846FFF770
:1046900089FE224621462420FFF70EFB2420FFF747
:1046A0001BFBCAE700380040000C01400268094BC0
:1046B0009A4200D0704782B003F50233DA6942F0C3
:1046C0000402DA61DB6903F004030193019B02B089
:1046D000704700BF0008004030B589B00023049344
:1046E0000593069307930368344A934204D0344AEF
:1046F000934233D009B030BD324B9A6942F48042C4
:104700009A619A6902F480420092009A9A6942F092
:1047100004029A619B6903F004030193019B4FF427
:10472000007304930223059303230793264D04A9E2
:104730002846FFF737FE4FF4806304930024059466
:10474000069404A92846FFF72DFE2246214625207F
:10475000FFF7B2FA2520FFF7BFFACBE7194BDA696A
:1047600042F40032DA61DA6902F400320292029A0B
:104770009A6942F004029A619B6903F0040303936F
:10478000039B0423049302230593032307930E4DF5
:1047900004A92846FFF706FE082304930024059485
:1047A000069404A92846FFF7FDFD2246214626204F
:1047B000FFF782FA2620FFF78FFA9BE700380140C7
:1047C00000440040001002400008014082B0084B45
:1047D0001B68084AA2FB03235B0A00FB03F3019357
:1047E00000BF019B5A1E0192002BF9D102B0704705
:1047F00010000020D34D6210002800F0F18170B548
:1048000082B00446036813F0010F2CD0994B5B680B
:1048100003F00C03042B1DD0964B5B6803F00C03D4
:10482000082B12D06368B3F5803F41D0002B55D1DF
:1048300003F1804303F504331A6822F480321A60CE
:104840001A6822F480221A6037E08A4B5B6813F4FE
:10485000803FE7D0874B1B6813F4003F03D06368A9
:10486000002B00F0BF81236813F0020F75D0814B3D
:104870005B6813F00C0F5FD07E4B5B6803F00C039A
:10488000082B54D02369002B00F08A807A4B012238
:104890001A60FFF7C5F90546764B1B6813F0020F47
:1048A00075D1FFF7BDF9401B0228F5D903209EE121
:1048B000704A136843F480331360636843B3FFF7AF
:1048C000AFF905466B4B1B6813F4003FCBD1FFF7E4
:1048D000A7F9401B6428F5D9032088E1B3F5A02F80
:1048E00009D0644B1A6822F480321A601A6822F4E4
:1048F00080221A60E1E703F18043A3F53C331A6894
:1049000042F480221A601A6842F480321A60D4E7B6
:10491000FFF786F90546574B1B6813F4003FA2D0FA
:10492000FFF77EF9401B6428F5D903205FE1514B66
:104930005B6813F4803FA5D14E4B1B6813F0020F48
:1049400003D02369012B40F04F814A4A136823F0BA
:10495000F803616943EAC1031360236813F0080F89
:1049600033D0A369002B5CD0434B0122C3F88024D1
:10497000FFF756F905463F4B5B6A13F0020F21D152
:10498000FFF74EF9401B0228F5D903202FE1394AE1
:10499000136823F0F803616943EAC1031360DCE79D
:1049A000354B00221A60FFF73BF90546314B1B6877
:1049B00013F0020FD1D0FFF733F9401B0228F5D9CD
:1049C000032014E10120FFF701FF236813F0040F17
:1049D00000F09680274BDB6913F0805F34D1254BC4
:1049E000DA6942F08052DA61DB6903F080530193A7
:1049F000019B0125214B1B6813F4807F26D0E368BF
:104A0000012B3DD0002B53D103F1804303F5043338
:104A10001A6A22F001021A621A6A22F004021A6269
:104A200033E0154B0022C3F88024FFF7F9F8054660
:104A3000104B5B6A13F0020FC7D0FFF7F1F8401B71
:104A40000228F5D90320D2E00025D3E70B4A1368EA
:104A500043F480731360FFF7E3F80646074B1B68C7
:104A600013F4807FCBD1FFF7DBF8801B6428F5D9E6
:104A70000320BCE0001002400000424200700040F1
:104A80005F4A136A43F001031362E36833B3FFF72D
:104A9000C7F806465A4B1B6A13F0020F2FD1FFF7D7
:104AA000BFF8801B41F288339842F3D903209EE07F
:104AB000052B09D0524B1A6A22F001021A621A6AB7
:104AC00022F004021A62E0E74D4B1A6A42F0040237
:104AD0001A621A6A42F001021A62D6E7FFF7A0F8DA
:104AE0000646474B1B6A13F0020F08D0FFF798F8F1
:104AF000801B41F288339842F3D9032077E0E5B96F
:104B0000E369002B72D03E4A526802F00C02082A78
:104B100056D0022B17D03B4B00221A66FFF780F8C5
:104B20000446374B1B6813F0007F47D0FFF778F837
:104B3000001B0228F5D9032059E0314AD36923F03C
:104B40008053D361DCE72F4B00221A66FFF768F829
:104B500005462B4B1B6813F0007F06D0FFF760F86B
:104B6000401B0228F5D9032041E0236AB3F5803FBA
:104B70001AD023494B6823F47413226A606A0243F3
:104B800013434B601F4B01221A66FFF749F8044696
:104B90001B4B1B6813F0007F0ED1FFF741F8001B81
:104BA0000228F5D9032022E0154A536823F4003384
:104BB000A1680B435360DCE7002018E0002016E0FA
:104BC000012B16D00E4B5B6803F48031226A9142B0
:104BD00011D103F47013626A93420ED1002006E0F3
:104BE00001207047012002E0012000E0002002B017
:104BF00070BD0120FBE70120F9E70120F7E700BFC6
:104C000000100240000042420F4B5B6803F00C02B0
:104C1000082A01D00D487047C3F383420C49885CD1
:104C200013F4803F0BD0084B5B68C3F34043094A41
:104C3000D35C064A02FB00F0B0FBF3F07047064B72
:104C400003FB00F0704700BF0010024000127A0022
:104C5000707F00086C7F000800093D00002800F00C
:104C6000A08070B50D460446524B1B6803F0070345
:104C70008B420BD24F4A136823F007030B43136098
:104C8000136803F007038B4240F08D80236813F014
:104C9000020F17D013F0040F04D0474A536843F4AF
:104CA000E0635360236813F0080F04D0424A53684E
:104CB00043F460535360404A536823F0F003A16803
:104CC0000B435360236813F0010F31D06368012B4D
:104CD00020D0022B25D0384A126812F0020F64D07F
:104CE00035494A6822F0030213434B60FEF798FFF0
:104CF0000646314B5B6803F00C036268B3EB820F2E
:104D000016D0FEF78DFF801B41F288339842F0D910
:104D1000032045E0284A126812F4003FE0D1012048
:104D20003EE0254A126812F0007FD9D1012037E019
:104D3000204B1B6803F00703AB420AD91D4A1368D6
:104D400023F007032B431360136803F00703AB4200
:104D50002DD1236813F0040F06D0174A536823F4AB
:104D6000E063E1680B435360236813F0080F07D03A
:104D7000114A536823F46053216943EAC103536025
:104D8000FFF742FF0C4B5B68C3F303130B4AD35C82
:104D9000D8400B4B18600B4B1868FEF7FDFE002047
:104DA00070BD012070470120FAE70120F8E70120DB
:104DB000F6E700BF0020024000100240887F000894
:104DC000100000200C000020014B1868704700BF45
:104DD0001000002008B5FFF7F7FF044B5B68C3F332
:104DE0000223034AD35CD84008BD00BF0010024034
:104DF000807F000808B5FFF7E7FF044B5B68C3F34B
:104E0000C223034AD35CD84008BD00BF0010024053
:104E1000807F0008002856D010B50446436A33B995
:104E20004368B3F5827F05D00023C36102E000230D
:104E3000036143610023A36294F85130002B3CD0FE
:104E4000022384F851302268136823F04003136072
:104E5000636803F48273A26802F404421343E268B5
:104E600002F400621343226902F0020213436269F2
:104E700002F001021343A26902F400721343E269D3
:104E800002F038021343226A02F080021343A26A3E
:104E900002F40052216813430B60638B226803F015
:104EA000040353602268D36923F40063D3610020B4
:104EB0006065012384F8513010BD84F850302046DD
:104EC000FFF7B0FBBCE701207047704710B584B016
:104ED000044602685168936803F0410001285AD0E3
:104EE00013F0020F02D011F0800F5BD113F0600FAE
:104EF0005BD011F0200F58D013F0400F0FD094F872
:104F00005100C0B2032852D0606D40F004006065CB
:104F100000200190D068019090680190019813F0F2
:104F2000200F0CD0636D43F00103636500230393EE
:104F300093680393136823F040031360039B636D2E
:104F4000002B32D02268536823F0E0035360012322
:104F500084F8513011F0030F31D02268536823F0E8
:104F600003035360E36C4BB1174A5A63E06CFEF7DE
:104F7000A9FF18B1636D43F040036365A36CA3B14F
:104F8000114A5A63A06CFEF79DFF70B1636D43F048
:104F90004003636509E011F0400FA1D0236C204667
:104FA000984702E0636C2046984704B010BD002388
:104FB0000293D368029393680293029BF5E720461D
:104FC000FFF783FFF1E700BFCD4F000808B5406A47
:104FD0000023C387C386FFF778FF08BD30B4026A99
:104FE000036A23F0010303624568836923F07303B6
:104FF0000C681C4322F002028B6813430B4A904258
:1050000006D0456084614A684263036230BC7047E1
:1050100023F00803CA681A4322F0040325F44075FC
:105020004A692A438D691543EBE700BF002C014014
:1050300030B4036A026A22F4807202624468C26970
:1050400022F073020D68154323F400738A6843EA63
:1050500002230D4A904206D04460C5614A68C2638B
:10506000036230BC704723F40063CA6843EA02233A
:1050700023F4806324F440544A6944EA02148A69A0
:1050800044EA0214E8E700BF002C014030B4036A90
:10509000026A22F4805202624468C26922F4E64243
:1050A0000D6842EA052223F400538D6843EA053374
:1050B000074DA84206D04460C2614A680264036298
:1050C00030BC704724F480444D6944EA8514F2E70B
:1050D000002C014090F83D30DBB2012B22D102239D
:1050E00080F83D300368114A934210D0B3F1804FED
:1050F0000DD0A2F59432934209D002F5806293421A
:1051000005D01A6842F001021A60002070479A68C0
:1051100002F00702062A07D01A6842F001021A605C
:10512000002070470120704700207047002C01408C
:105130007047704770477047704770B50446036802
:10514000DE681D6915F0020F10D016F0020F0DD0A9
:105150006FF002021A610123037703689B6913F061
:10516000030F5ED0FFF7E6FF0023237715F0040F4F
:1051700012D016F0040F0FD023686FF004021A61EA
:105180000223237723689B6913F4407F4FD0204686
:10519000FFF7D0FF0023237715F0080F12D016F089
:1051A000080F0FD023686FF008021A6104232377D9
:1051B0002368DB6913F0030F40D02046FFF7BAFFE6
:1051C0000023237715F0100F12D016F0100F0FD018
:1051D00023686FF010021A61082323772368DB69C4
:1051E00013F4407F31D02046FFF7A4FF002323773C
:1051F00015F0010F02D016F0010F2DD115F0800F20
:1052000002D016F0800F2FD115F0400F02D016F00B
:10521000400F31D115F0200F02D016F0200F33D1FE
:1052200070BDFFF786FF2046FFF785FF9CE720460D
:10523000FFF77FFF2046FFF77EFFABE72046FFF733
:1052400078FF2046FFF777FFBAE72046FFF771FFA8
:105250002046FFF770FFC9E723686FF001021A616B
:105260002046FDF759FFC9E723686FF080021A61F5
:10527000204600F02AFAC7E723686FF040021A615F
:105280002046FFF759FFC5E723686FF020021A6137
:10529000204600F019FAC3E703681F4A90420AD07B
:1052A000B0F1804F07D0A2F59432904203D002F5BE
:1052B0008062904203D123F070034A681343164A78
:1052C00090420AD0B0F1804F07D0A2F594329042BC
:1052D00003D002F58062904203D123F44073CA6880
:1052E000134323F080034A69134303608B68C3624E
:1052F0000B688362084B98420AD00123436103691B
:1053000013F0010F03D0036923F001030361704719
:105310000B690363F1E700BF002C014040B310B5F7
:10532000044690F83D30F3B1022384F83D30214625
:1053300051F8040BFFF7B0FF012384F8463084F8DE
:105340003E3084F83F3084F8403084F8413084F8AF
:10535000423084F8433084F8443084F8453084F88F
:105360003D30002010BD80F83C30FFF79FF9DBE7AF
:105370000120704740B310B5044690F83D30F3B1BA
:10538000022384F83D30214651F8040BFFF784FFD7
:10539000012384F8463084F83E3084F83F3084F8A6
:1053A000403084F8413084F8423084F8433084F847
:1053B000443084F8453084F83D30002010BD80F83A
:1053C0003C30FFF7B5FEDBE70120704730B4036ADD
:1053D000026A22F0100202624468826922F4E64204
:1053E0000D6842EA052223F020038D6843EA051385
:1053F0000C4DA84206D0446082614A688263036211
:1054000030BC704723F08003CD6843EA051323F0D6
:10541000400324F440644D6944EA85048D6944EAFC
:105420008504E8E7002C014090F83C30012B28D09F
:1054300010B50446012380F83C300C2A1CD8DFE864
:1054400002F0071B1B1B0C1B1B1B111B1B1B16003D
:105450000068FFF7C3FD00200FE00068FFF7B6FF0C
:1054600000200AE00068FFF7E3FD002005E0006887
:10547000FFF70CFE002000E00120002384F83C3000
:1054800010BD0220704738B590F83C30012B66D033
:1054900004460D46012380F83C300C2A5AD8DFE838
:1054A00002F0075959591B59595930595959440053
:1054B0000068FFF793FD2268936943F00803936146
:1054C0002268936923F00403936122689369296930
:1054D0000B43936100203EE00068FFF777FF2268EE
:1054E000936943F4006393612268936923F48063B2
:1054F000936122689369296943EA0123936100203B
:1055000029E00068FFF794FD2268D36943F008039F
:10551000D3612268D36923F00403D3612268D3697D
:1055200029690B43D361002015E00068FFF7AEFD49
:105530002268D36943F40063D3612268D36923F4FA
:105540008063D3612268D369296943EA0123D36167
:10555000002000E00120002384F83C3038BD022008
:10556000FCE701F01F014FF0010C0CFA01FC036A8B
:1055700023EA0C030362036A8A4013430362704701
:1055800010B50446084651BB94F83E30DBB2013BEF
:1055900018BF0123002B5BD1002839D1022384F8E6
:1055A0003E30012201462068FFF7DBFF23682A4ACC
:1055B00093423DD02368284A93423ED0B3F1804FB6
:1055C0003BD0A2F59432934237D002F580629342E9
:1055D00033D01A6842F001021A60002039E0042931
:1055E00008D008290DD094F84130DBB2013B18BF38
:1055F0000123CFE794F83F30DBB2013B18BF012312
:10560000C8E794F84030DBB2013B18BF0123C1E783
:10561000042805D0082807D0022384F84130C0E7C9
:10562000022384F83F30BCE7022384F84030B8E717
:105630005A6C42F400425A64BCE79A6802F00702CE
:10564000062A07D01A6842F001021A60002000E022
:10565000012010BD0020FCE7002C014090F83C2008
:10566000012A2CD010B40346012280F83C200222EB
:1056700080F83D2002685068946820F0700C08683B
:1056800040EA0C0050601A680E4882420AD0B2F11B
:10569000804F07D0A0F59430824203D000F580609F
:1056A000824204D124F080044968214391600122A0
:1056B00083F83D20002083F83C0010BC7047022096
:1056C000704700BF002C014070477047026802F12C
:1056D0000C0353E8003F23F490730C3242E800318E
:1056E0000029F3D1026802F1140353E8003F23F0CC
:1056F0000103143242E800310029F3D1036B012B7E
:1057000005D0202380F842300023036370470268ED
:1057100002F10C0353E8003F23F010030C3242E87F
:1057200000310029F3D1ECE790F84130DBB2212BB6
:1057300001D0022070478368B3F5805F17D0036AF9
:105740005A1C02621A7803685A60C38C9BB2013BF0
:105750009BB2C3844BB90268D36823F08003D36043
:105760000268D36843F04003D360002070470369A8
:10577000002BE4D1036A1B880268C3F3080353605B
:10578000036A02330362E0E710B504460268136956
:1057900023F44053C1680B431361836802691343C8
:1057A00042691A430168CB6823F4B05323F00C0319
:1057B0001343CB600268536923F4407381690B4340
:1057C00053610268134B9A4220D0FFF703FB024655
:1057D00002EB820202EB820263689B00B2FBF3F2EF
:1057E0000D48A0FB02314909642303FB11231B016F
:1057F0003233A0FB03035B0903F0F00202EB01125A
:1058000003F00F03216813448B6010BDFFF7F2FA19
:105810000246DDE7003801401F85EB512DE9F043DA
:1058200083B005460E4617469946DDF828802B685A
:105830001C6836EA04040CBF01240024BC4228D1B1
:10584000B8F1FF3FF3D0FEF7EBF9A0EB09004045BC
:1058500023D8B8F1000F22D02B68DA6812F0040FB9
:10586000E5D0802EE3D0402EE1D01A6812F0080F68
:10587000DDD0002401941A6801925B680193019BBA
:105880002846FFF723FF08236B6485F8404001207A
:1058900000E0002003B0BDE8F0830320FAE7032016
:1058A000F8E760B310B5044690F8413013B32423F1
:1058B00084F841302268D36823F40053D360204633
:1058C000FFF762FF2268136923F490431361226893
:1058D000536923F02A0353612268D36843F40053C9
:1058E000D36000206064202384F8413084F8423083
:1058F000606310BD80F84030FEF7EEFED7E7012070
:1059000070472DE9F04182B01E4690F84130DBB27D
:10591000202B56D104460D469046002955D00AB991
:1059200001204FE000234364212380F84130FEF73B
:1059300077F90746A4F82480A4F82680A368B3F575
:10594000805F02D04FF0000814E023692BB34FF0C2
:1059500000080FE0202384F84130032032E038F8BB
:10596000023B2268C3F308035360E28C92B2013A0F
:1059700092B2E284E38C9BB293B100963B46002244
:1059800080212046FFF74AFF0028E3D1002DE6D012
:1059900015F8012B23685A60E7E7A8460025E9E7D8
:1059A00000963B46002240212046FFF737FF18B9FA
:1059B000202384F8413005E0202384F8413003207F
:1059C00000E0022002B0BDE8F0810120FAE7704754
:1059D00008B50168CA6822F04002CA60202280F837
:1059E0004120FFF7F4FF002008BD704708B5406A6A
:1059F0000023C385C384FFF7F8FF08BD704790F804
:105A00004230DBB2222B69D18368B3F5805F4FD07F
:105A1000826AB3F5805F04D0002B56D10369002B56
:105A200053D103685B681370836A01338362C38D4B
:105A30009BB2013B9BB2C385002B51D100B583B013
:105A40000268D36823F02003D3600268D36823F48C
:105A50008073D3600268536923F0010353612023EC
:105A600080F8423000234363036B012B33D10023C2
:105A70000363026802F10C0353E8003F23F01003B4
:105A80000C3242E800310029F3D103681A6812F0A1
:105A9000100F06D0002201921A6801925B680193F0
:105AA000019B818DFFF7AAFF002003B05DF804FB86
:105AB0000269002AACD1826A03685B68C3F30803F9
:105AC0001380836A02338362B1E703685B6803F083
:105AD0007F031370A8E7FDF7A7FBE5E702207047F7
