:020000040800F2
:1000000000500020813500085D3500085F3500088C
:100010006135000863350008653500080000000000
:10002000000000000000000000000000673500082C
:1000300069350008000000006B35000879160008DB
:10004000C9350008C9350008C9350008C935000898
:10005000C9350008C9350008C9350008C935000888
:10006000C9350008C9350008C9350008C935000878
:100070001D150008C9350008C93500082D150008F0
:10008000C93500083D150008C9350008C935000804
:10009000C9350008C9350008C9350008C935000848
:1000A000C9350008C9350008C9350008C935000838
:1000B0004D150008C9350008C9350008C9350008C4
:1000C000C9350008C9350008C9350008C935000818
:1000D000C9350008C93500086D350008C935000864
:1000E000C9350008C9350008C935000800000000FE
:1000F0000000000000000000000000000000000000
:0C01000000000000000000005FF808F1A3
:10010C0080F0004002E000BF81F0004142001FBFC0
:10011C005FEA410392EA030F7FEA226C7FEA236CC9
:10012C006AD04FEA1262D2EB1363C1BFD2184140BE
:10013C0048404140B8BF5B42192B88BF704710F054
:10014C00004F40F4000020F07F4018BF404211F0F7
:10015C00004F41F4000121F07F4118BF494292EA5F
:10016C00030F3FD0A2F1010241FA03FC10EB0C008B
:10017C00C3F1200301FA03F100F0004302D5494218
:10018C0060EB4000B0F5000F13D3B0F1807F06D3C5
:10019C0040084FEA310102F10102FE2A51D2B1F1BD
:1001AC00004F40EBC25008BF20F0010040EA0300B2
:1001BC007047490040EB0000013A28BFB0F5000F32
:1001CC00EDD2B0FA80FCACF1080CB2EB0C0200FAE8
:1001DC000CF0AABF00EBC25052421843BCBFD04037
:1001EC001843704792F0000F81F4000106BF80F4B1
:1001FC0000000132013BB5E74FEA41037FEA226C74
:10020C0018BF7FEA236C21D092EA030F04D092F03E
:10021C00000F08BF0846704790EA010F1CBF002072
:10022C00704712F07F4F04D1400028BF40F00040CF
:10023C00704712F100723CBF00F50000704700F0EF
:10024C00004343F0FE4040F4000070477FEA226216
:10025C0016BF08467FEA23630146420206BF5FEAE7
:10026C00412390EA010F40F4800070474FF00003E7
:10027C0004E000BF10F0004348BF40425FEA000CAE
:10028C0008BF704743F0964301464FF000001CE056
:10029C0050EA010208BF70474FF000030AE000BFAC
:1002AC0050EA010208BF704711F0004302D54042EA
:1002BC0061EB41015FEA010C02BF8446014600205C
:1002CC0043F0B64308BFA3F18053A3F50003BCFA77
:1002DC008CF2083AA3EBC25310DB01FA02FC634424
:1002EC0000FA02FCC2F12002BCF1004F20FA02F22B
:1002FC0043EB020008BF20F00100704702F120021E
:10030C0001FA02FCC2F1200250EA4C0021FA02F27E
:10031C0043EB020008BF20EADC7070474FF0FF0C83
:10032C001CEAD0521EBF1CEAD15392EA0C0F93EA7E
:10033C000C0F6FD01A4480EA010C400218BF5FEA20
:10034C0041211ED04FF0006343EA501043EA511193
:10035C00A0FB01310CF00040B1F5000F3EBF49008D
:10036C0041EAD3715B0040EA010062F17F02FD2A91
:10037C001DD8B3F1004F40EBC25008BF20F0010074
:10038C00704790F0000F0CF0004C08BF49024CEA8B
:10039C00502040EA51207F3AC2BFD2F1FF0340EA1D
:1003AC00C250704740F400004FF00003013A5DDC8E
:1003BC0012F1190FDCBF00F000407047C2F10002CF
:1003CC00410021FA02F1C2F1200200FA02FC5FEABC
:1003DC00310040F1000053EA4C0308BF20EADC7006
:1003EC00704792F0000F00F0004C02BF400010F478
:1003FC00000F013AF9D040EA0C0093F0000F01F025
:10040C00004C02BF490011F4000F013BF9D041EA46
:10041C000C018FE70CEAD15392EA0C0F18BF93EA48
:10042C000C0F0AD030F0004C18BF31F0004CD8D172
:10043C0080EA010000F00040704790F0000F17BFF9
:10044C0090F0004F084691F0000F91F0004F14D03F
:10045C0092EA0C0F01D142020FD193EA0C0F03D197
:10046C004B0218BF084608D180EA010000F000409A
:10047C0040F0FE4040F40000704740F0FE4040F475
:10048C00400070474FF0FF0C1CEAD0521EBF1CEA14
:10049C00D15392EA0C0F93EA0C0F69D0A2EB030232
:1004AC0080EA010C49024FEA402037D04FF08053CC
:1004BC0043EA111143EA10130CF000408B4238BF91
:1004CC005B0042F17D024FF4000C8B4224BF5B1A9F
:1004DC0040EA0C00B3EB510F24BFA3EB510340EAED
:1004EC005C00B3EB910F24BFA3EB910340EA9C009B
:1004FC00B3EBD10F24BFA3EBD10340EADC001B010B
:10050C0018BF5FEA1C1CE0D1FD2A3FF650AF8B42AE
:10051C0040EBC25008BF20F0010070470CF0004CBB
:10052C004CEA50207F32C2BFD2F1FF0340EAC250E6
:10053C00704740F400004FF00003013A37E792F0A7
:10054C00000F00F0004C02BF400010F4000F013A05
:10055C00F9D040EA0C0093F0000F01F0004C02BF00
:10056C00490011F4000F013BF9D041EA0C0195E769
:10057C000CEAD15392EA0C0F08D142027FF47DAF02
:10058C0093EA0C0F7FF470AF084676E793EA0C0FF2
:10059C0004D14B023FF44CAF08466EE730F0004CF0
:1005AC0018BF31F0004CCAD130F000427FF45CAF80
:1005BC0031F000437FF43CAF5FE700BF42000ED246
:1005CC00B2F1FE4F0BD34FF09E03B3EB126209D482
:1005DC004FEA002343F0004323FA02F070474FF038
:1005EC000000704712F1610F01D1420202D14FF0AD
:1005FC00FF3070474FF00000704700BF10B5054C3E
:10060C00237833B9044B13B10448AFF300800123B2
:10061C00237010BD140000200000000024360008D8
:10062C0008B5034B1BB103490348AFF3008008BD69
:10063C0000000000180000202436000801704270F1
:10064C008370704700B583B000238DF800308DF8AF
:10065C0001308DF802300B280DD8DFE800F00622AF
:10066C002930373E454C535A6168FF23002211460E
:10067C006846FFF7E3FF009BADF804301B0C8DF8C8
:10068C00063000209DF8043063F307009DF8053018
:10069C0063F30F209DF8063063F3174003B05DF849
:1006AC0004FBFF237F2200216846FFF7C7FFE2E728
:1006BC00FF231A4600216846FFF7C0FFDBE77F23C4
:1006CC00FF2200216846FFF7B9FFD4E70023FF2281
:1006DC0019466846FFF7B2FFCDE70023FF227F21C2
:1006EC006846FFF7ABFFC6E70023FF2211466846BA
:1006FC00FFF7A4FFBFE700237F22FF216846FFF727
:10070C009DFFB8E700231A46FF216846FFF796FFC6
:10071C00B1E77F230022FF216846FFF78FFFAAE78E
:10072C00FF23002219466846FFF788FFA3E7FF2343
:10073C0000227F216846FFF781FF9CE70068704725
:10074C00037C63B10368C2681344036082689342FC
:10075C0013DD026000230374012343747047437C50
:10076C005BB10368C2689B1A03604268934204DA67
:10077C0002600023437401230374704701604160DD
:10078C0082600122027400224274C36070472DE91A
:10079C00F04F8FB005460C46CB68502B03D0512B35
:1007AC0050D000204BE00B7C4FF0000C63F30F2C6F
:1007BC004B7C63F3070C1FFA8CF78B7C63F30F2CC9
:1007CC00CB7C63F3070C1FFA8CF80B7D63F30F2CB7
:1007DC004B7D63F3070C1FFA8CF98B7D63F30F2CA5
:1007EC00CB7D63F3070C1FFA8CFA0B7E63F30F2C93
:1007FC004B7E63F3070C1FFA8CFB06AE20242246BB
:10080C000021304602F0DBFE8DF83740CDF800B009
:10081C0053464A464146304600F0E5F9FFB205978B
:10082C006C460DF1240CBCE80F000FC4DCF8003052
:10083C00236096E80E00284600F05BFA01200FB00A
:10084C00BDE8F08F0B7C4FF0000C63F30F2C4B7C4E
:10085C0063F3070C1FFA8CF78B7C63F30F2CCB7CA8
:10086C0063F3070C1FFA8CF1237D63F30F2C637D6C
:10087C0063F3070C1FFA8CF2A37D63F30F2CE37D5B
:10088C0063F3070C1FFA8CF3207E60F30F2C607E51
:10089C0060F3070C1FFA8CF421208DF8370006AE9C
:1008AC000094304600F0D4F9FFB205976C460DF178
:1008BC00240CBCE80F000FC4DCF80030236096E871
:1008CC000E00284600F015FAB8E720B1002242715C
:1008DC000271016082607047836801338360027922
:1008EC0022B90268934201D3012343717047034636
:1008FC00407910B11B7903B100207047002343717C
:10090C008360704700F5805399685985986100227F
:10091C009A601A7401229A71704710B50446084601
:10092C00002302E00022E2540133B3F5006FF9DB3F
:10093C0004F580539C6100221A609A60DA601A7484
:10094C005A749A749A714FF4C8721A620122214631
:10095C0002F0EBFD10BD00B54FF0000E4FF6FF732B
:10096C000CE05B08013A3AB113F0010FF9D04AF2EE
:10097C00010C8CEA5303F5E70EF1010E8E4504DAF7
:10098C0010F80E2053400822EDE798B25DF804FBF6
:10099C0010B5844608460CF5805399699A8891F8ED
:1009AC0000E00CEB020484F800E801329A8001228A
:1009BC001A7400245C629C6814449C601C6811F8D6
:1009CC0001EB0CF804E014441C60996102F0ADFDDD
:1009DC0010BD38B504460D4603784B7043780B7048
:1009EC008378CB70C3788B7003794B7143790B711F
:1009FC008379CB72C3798B72037A4B72437A0B7205
:100A0C00837ACB73C37A8B73037B4B73437B0B73EC
:100A1C00002305E003F10E02A15CEA181174013306
:100A2C000F2BF7DDA37F85F82130E37F85F820308D
:100A3C001E212046FFF78FFF04F58054A0822B8CDB
:100A4C00984205D02B8823B16B8813B1AB8803B1C6
:100A5C00012038BD00B593B086460846BEF800307C
:100A6C00ADF82430ADF82830ADF826300C93DEF814
:100A7C0008300B9300230F2B0ADC0EEB030292F8C9
:100A8C0010C003F148026A4402F814CC0133F2E7B7
:100A9C00002309AA08E012F801EB03F148010DEB61
:100AAC00010C0CF844EC01331F2BF4DD4FF47A737A
:100ABC00202201A902F0EBFA13B05DF804FB00F55B
:100ACC0080508079704700F5805000238371704707
:100ADC004260016083606423C360002380F850315E
:100AEC00704710B4046874B1D0F808C08C450ADBA8
:100AFC0001EB4101625404684A1CA354036802319F
:100B0C009DF804205A5410BC704710B4446874B15A
:100B1C00D0F808C08C450ADB01EB410162544268F5
:100B2C000A44537043680B449DF804209A7010BC1F
:100B3C00704700002DE9F04383B00746C068FFF70B
:100B4C0099FB1B49FFF79EFC8046002429E07A683C
:100B5C0004EB440302EB0309D05CFFF787FB41462F
:100B6C00FFF7DCFBFFF72AFDC5B299F80100FFF790
:100B7C007DFB4146FFF7D2FBFFF720FDC6B299F88B
:100B8C000200FFF773FB4146FFF7C8FBFFF716FDAA
:100B9C00C0B2009033462A4621463846FFF7A1FFE3
:100BAC000134BB68A342D2DC03B0BDE8F08300BFC4
:100BBC000000C84230B585B00546039100240BE017
:100BCC009DF80E3000939DF80D309DF80C202146B9
:100BDC002846FFF79AFF0134AB68A342F0DC05B05E
:100BEC0030BDC16070472DE9F04104460F461546F3
:100BFC001E46BDF81880134642463146FFF7BEFD2F
:100C0C006683A4F81C80A782E5820123A3772023A6
:100C1C00E377BDE8F081D0B138B50C46054641B15B
:100C2C008B7F33B10A8B8B8A9A4203D8238B013387
:100C3C00238338BD0846FFF783FD21782846FFF74C
:100C4C00D0FF2846FFF776FF00232383EEE770479B
:100C5C002DE9F04104460F4615461E46BDF8188096
:100C6C00134642463146FFF789FD6683A4F81C8083
:100C7C00A782E5820123A3772123E377BDE8F081E6
:100C8C0084B010B582B0044605A880E80E0094F834
:100C9C00500109280AD89DF83330202B0BD0212B7A
:100CAC0018D094F85031013384F8503102B0BDE8BB
:100CBC00104004B0704740011030BDF83030009344
:100CCC00BDF82E30BDF82A20BDF828102044FFF7BF
:100CDC008AFFE6E740011030BDF830300093BDF8D4
:100CEC002E30BDF82A20BDF828102044FFF7B0FFA5
:100CFC00D7E784B000B583B00DF1140C8CE80E006E
:100D0C009DF83430092B05D89DF83320202A06D0C5
:100D1C00212A14D003B05DF804EB04B070475B01DA
:100D2C0003F1100CBDF830300093BDF82E30BDF837
:100D3C002A20BDF828106044FFF755FFEAE75B0155
:100D4C0003F1100CBDF830300093BDF82E30BDF817
:100D5C002A20BDF828106044FFF77AFFDAE700007C
:100D6C00002800F0018170B582B00C46054641B1F7
:100D7C008B7F33B10A8B8B8A9A4204D8238B013335
:100D8C00238302B070BD0846FFF7DAFC2046FFF75C
:100D9C00D5FC82B2754BA3FB0213D11A03EB5100A5
:100DAC00C0F3871000238DF804308DF805308DF8D2
:100DBC000630A0EBC0139BB213449EB20B2815D87F
:100DCC00DFE800F0061E2F3F505F708091A0B1C18C
:100DDC00FFF738FC8DF80400C0F307238DF80530BD
:100DEC00C0F307408DF806008DF805600199284680
:100DFC00FFF7E0FE2846FFF79DFE00232383BDE7A7
:100E0C00FFF720FC8DF80400C0F307238DF80530A4
:100E1C00C0F307408DF8060006F17F038DF805300E
:100E2C00E4E7FFF70FFC8DF80400C0F307238DF8FF
:100E3C000530C0F307408DF80600F3438DF80630FB
:100E4C00D4E7FFF7FFFB8DF80400C0F307238DF800
:100E5C000530C0F307408DF80600C6F17F038DF80E
:100E6C000630C3E7FFF7EEFB8DF80400C0F3072351
:100E7C008DF80530C0F307408DF806008DF804603E
:100E8C00B4E7FFF7DFFB8DF80400C0F307238DF800
:100E9C000530C0F307408DF8060006F17F038DF88E
:100EAC000430A3E7FFF7CEFB8DF80400C0F3072353
:100EBC008DF80530C0F307408DF80600F3438DF82C
:100ECC00053093E7FFF7BEFB8DF80400C0F3072352
:100EDC008DF80530C0F307408DF80600C6F17F038E
:100EEC008DF8053082E7FFF7ADFB8DF80400C0F3F9
:100EFC0007238DF80530C0F307408DF806008DF8F8
:100F0C00066073E7FFF79EFB8DF80400C0F3072320
:100F1C008DF80530C0F307408DF8060006F17F030D
:100F2C008DF8063062E7FFF78DFB8DF80400C0F3F7
:100F3C0007238DF80530C0F307408DF80600F34306
:100F4C008DF8043052E7FFF77DFB8DF80400C0F3F9
:100F5C0007238DF80530C0F307408DF80600C6F165
:100F6C007F038DF8043041E7704700BF110804027D
:100F7C0038B50546002406E06101103129442846A5
:100F8C00FFF749FE013495F85031A3420EDD05EB15
:100F9C00441393F82F30202BEED0212BF2D161018A
:100FAC00103129442846FFF7DBFEEBE738BD000083
:100FBC0008B50B4B04221A730A4A1A604FF440729C
:100FCC005A6005211977084919615A61062183F87D
:100FDC002C10064919625A6200F0E8FA08BD00BFED
:100FEC00E00A0020300600203003002030000020F2
:100FFC0008B5064B93F8303003B908BD034B0122FA
:10100C0083F8312000F0E0FAF7E700BFE00A002097
:10101C0070B42E4EB45CF55C9DF80C30F25C01EBB8
:10102C004103E443ED43D243294901EB031101F1A0
:10103C00614101F580114E01830003EB4113E90975
:10104C0046F82010A90919646909C3F88010290908
:10105C00C3F8C010E908C3F80011A908C3F840117F
:10106C006908C3F88011C3F8C051E109C3F8001234
:10107C00A109C3F840126109C3F880122109C3F811
:10108C00C012E108C3F80013A108C3F840136108AB
:10109C00C3F88013C3F8C043D109C3F800149109F5
:1010AC00C3F840145109C3F880141109C3F8C014D3
:1010BC00D108C3F800159108C3F840155108C3F8BE
:1010CC008015C3F8C02570BC704700BF3C360008C3
:1010DC00800A002070B582B005688468631C836048
:1010EC002A5DA61C8660EB5C03348460AD5D4668AB
:1010FC00B44206D0009589B2007BFFF789FF02B09D
:10110C0070BD00248460F5E7244B02221A61244A46
:10111C00936B01339363B3F5C07F02D010B50024F9
:10112C0036E0134600229A631E4A1168CB6843F0DE
:10113C000103CB601C4B19680B6823F001030B6097
:10114C001A4B19680B6823F001030B60184B1968D4
:10115C000B6823F001030B601368DA6822F48072C9
:10116C00DA60DA6822F40072DA60DA6822F48062FB
:10117C00DA60104B1A68094B1A61084B02225A614B
:10118C0070470121064800EB0410FFF7A3FF013460
:10119C00022CF6D9014B02225A6110BD0008014005
:1011AC00E00A0020380A0020B80900207409002049
:1011BC00300900200000002038B50025284B83F8AA
:1011CC0030500CE0264C04EB05140021A1602046A5
:1011DC00FFF780FF01212046FFF77CFF0135022D30
:1011EC00F0D9204BE0225A604FF460225A604FF045
:1011FC0060625A601C4B1B6830225A601B4C216881
:10120C004A601B4801684A601A490A686FF01F055A
:10121C0015611A6842F001021A602268136843F0E3
:10122C00010313600268136843F0010313600B6839
:10123C00DA6842F48072DA60DA6842F40072DA60DA
:10124C00DA6842F48062DA600B4A1268013A4FF0B5
:10125C0080414A621A6842F001021A6038BD00BF30
:10126C00E00A002000000240B809002074090020A8
:10127C0030090020380A0020FC09002010B582B08B
:10128C00104B01221A61104B9A6B40F27F139A4259
:10129C000FD0002406E000210B4800EB0410FFF7F0
:1012AC0019FF0134022CF6D9064B01225A6102B007
:1012BC0010BD00200090034602460146FFF7A8FE31
:1012CC00F2E700BF00080140E00A0020F0B587B04B
:1012DC00134B9A6942F004029A619B6903F0040370
:1012EC000193019B7023029301250395002704971A
:1012FC00022605960B4C02A9204600F027FE03950A
:10130C00049703230593029502A9204600F01EFEC4
:10131C00029602A9204600F019FE07B0F0BD00BFEE
:10132C0000100240000801402DE9F04F83B0344B0F
:10133C005A6942F001025A615B6903F0010301939F
:10134C00019B304C4FF01009C4F804900025A560A7
:10135C00E5604FF40078C4F810804FF4006BC4F8CB
:10136C0014B02027A7614FF44056E661264B23604A
:10137C00204600F03FFCDFF894A03023524624496D
:10138C00204600F06DFC234CC4F80490A56080232B
:10139C00E360C4F810804FF480636361A761E66179
:1013AC001D4B2360204600F025FC30231B4A1C49B2
:1013BC00204600F055FC1B4CC4F80490A560E56079
:1013CC00C4F81080C4F814B0A761E661164B236012
:1013DC00204600F00FFC154BA362154BE3622A4626
:1013EC002946112000F0BEFB112000F0CBFB30236E
:1013FC0052461049204600F05CFC03B0BDE8F08F6B
:10140C0000100240B80900201C00024010080140E6
:10141C000400002074090020580002401408014008
:10142C00800A0020300900208000024015110008BD
:10143C0089120008000000202DE9F04182B02B4BEE
:10144C00DA6942F00102DA61DB6903F0010301930E
:10145C00019B274B1B681B0A264AA2FB03231B0973
:10146C00254A136003EB83014A00244FA7FB0217A4
:10147C00FF082349A1FB0212D608224D4FF08042EF
:10148C002A60EB6000246C616C602C61AC602846B7
:10149C0001F09AFB224621461C2000F063FB1C2025
:1014AC0000F070FB18494FF06008C1F800808C60A8
:1014BC004F60CC600C612246284601F0DFFB1349DB
:1014CC00C1F800808C604E60CC600C614C618C610A
:1014DC000422284601F0D2FB284601F051FA21469D
:1014EC00284601F049FC02B0BDE8F0810010024032
:1014FC0010000020598B4F01FC090020398EE33875
:10150C0089888888380A00201C0A0020000A0020DC
:10151C0008B5024800F078FC08BD00BFB8090020EF
:10152C0008B5024800F070FC08BD00BF740900202B
:10153C0008B5024800F068FC08BD00BF3009002067
:10154C0008B5024801F04FFA08BD00BF380A002068
:10155C00144B5B6B0B2B03D80133124A536370474C
:10156C00104B00225A63104B1B68196A41F211127E
:10157C00114208D1196A40F24442114203D11A684F
:10158C0022F001021A604FF0804300221A60064BD1
:10159C001A68D36823F00103D360024B012283F84D
:1015AC0030207047E00A0020380A002008B5FFF709
:1015BC008DFEFFF7B9FEFFF73FFF024B012283F8C8
:1015CC00302008BDE00A002008B5064B93F83130F6
:1015DC0003B908BD034B002283F83120FFF7ECFD63
:1015EC00F7E700BFE00A002030B587B00024029472
:1015FC00039404940594144B9A6942F010029A6176
:10160C009A6902F010020092009A9A6942F0040260
:10161C009A619B6903F004030193019B0B4D2246D5
:10162C004FF40051284600F09FFD4FF400530293F5
:10163C000123039304940223059302A9284600F086
:10164C0085FC07B030BD00BF001002400010014007
:10165C0008B501460348FFF79BF9034B01221A70AA
:10166C0008BD00BF780B00201D0B002008B500F052
:10167C0021FA024B01221A7008BD00BF1C0B00207E
:10168C0072B6FEE708B50A480A4B03604FF41653CE
:10169C00436000238360C36003610C224261836159
:1016AC00C36101F0C4FC00B908BDFFF7E9FF00BF3E
:1016BC006C2400200044004000B591B02822002189
:1016CC0006A801F07CFF002301930293039304937B
:1016DC0005930223069301220A9210220B920D937A
:1016EC004FF460130F9306A800F0C0FD80B90F23D0
:1016FC00019302210291002303934FF48062049220
:10170C00059301A800F0E4FF20B911B05DF804FBCB
:10171C00FFF7B6FFFFF7B4FF2DE9F0418AB000F0F8
:10172C00B7F9FFF7C9FFFFF75FFFFFF7ABFFDFF874
:10173C00C082B04C01224146204601F0F6FE4FF427
:10174C007A730622AC49204601F0A1FCFFF730FC6D
:10175C00AA4F8023AA4AAB493846FFF7B9F9AA4EDB
:10176C003023AA4AAA493046FFF7B2F9A94D3023D3
:10177C00A94AAA492846FFF7ABF93221A848FFF736
:10178C00A4F81421A748FFF7A0F84FF47A71A648E3
:10179C00FFF79BF801234B224121A448FEF7EEFFF3
:1017AC0021464046FFF7B9F8A14C502300933C2347
:1017BC00012264212046FFF716FAEC4604F10C0EC8
:1017CC00BEE80F00ACE80F00DEF80030CCF80030BB
:1017DC0094E80E003846FFF753FAEC4604F10C0E71
:1017EC00BEE80F00ACE80F00DEF80030CCF800309B
:1017FC0094E80E003046FFF743FAEC4604F10C0E69
:10180C00BEE80F00ACE80F00DEF80030CCF800307A
:10181C0094E80E002846FFF733FA4FF44873009310
:10182C00C82301224FF47A712046FFF711FAEC46D7
:10183C0004F10C0EBEE80F00ACE80F00DEF800302F
:10184C00CCF8003094E80E003846FFF719FAEC4655
:10185C0004F10C0EBEE80F00ACE80F00DEF800300F
:10186C00CCF8003094E80E003046FFF709FAEC464D
:10187C0004F10C0EBEE80F00ACE80F00DEF80030EF
:10188C00CCF8003094E80E002846FFF7F9F9082050
:10189C00FEF7D8FE8DF81C00C0F307238DF81D3021
:1018AC00C0F307408DF81E0007993846FFF782F900
:1018BC000820FEF7C7FE8DF82000C0F307238DF833
:1018CC002130C0F307408DF8220008993046FFF70D
:1018DC0071F90820FEF7B6FE8DF82400C0F307233B
:1018EC008DF82530C0F307408DF82600099928465D
:1018FC00FFF760F93846FFF71DF93046FFF71AF984
:10190C002846FFF717F91CE04648FEF7E5FF3B4871
:10191C00FFF72EFB3C48FFF72BFB3E48FFF728FB5D
:10192C00444B00221A703248FFF7C9F8F0B93C4812
:10193C00FEF7DDFF002848D13A48FEF7D8FF002813
:10194C0047D13C4B1B78002BEDD03B4A536A0133FB
:10195C005362127C002AD7D0142BD5DD244800F515
:10196C00805300221A60FEF7CDFFCDE733492048A3
:10197C00FFF72FF818B1314B5B88012B17D01C489F
:10198C00FFF7A1F84FF400512D4800F0F3FB194973
:10199C002A48FFF75FF81948FFF7CCF81A48FFF709
:1019AC00C9F81C48FFF7C6F8FFF722FBBFE7234C2A
:1019BC0021461248FEF7EBFE21461348FEF7E7FEE0
:1019CC0021461448FEF7E3FED9E71548FEF796FFCB
:1019DC00B2E70A48FFF7AEF80B48FFF7ABF80D4833
:1019EC00FFF7A8F8FFF704FB0E48FEF787FFA8E700
:1019FC00780B00206C2400203C370008F4220020D7
:101A0C00CC1E002030060020A02100204C1D002000
:101A1C00300300204C200020CC1B00203000002084
:101A2C00602400205424002048240020640B002053
:101A3C00440B00201C0B0020781B0020200B0020E6
:101A4C000010014010B504460E4B1A784FF47A730F
:101A5C00B3FBF2F30C4A1068B0FBF3F000F0A0F803
:101A6C0068B90F2C01D901200AE0002221464FF061
:101A7C00FF3000F077F8054B1C60002000E00120DF
:101A8C0010BD00BF08000020100000200C0000203A
:101A9C0008B5074A136843F010031360032000F0E5
:101AAC004FF80F20FFF7CEFF00F06EFB002008BDB3
:101ABC0000200240034A1168034B1B780B4413604F
:101ACC00704700BFB424002008000020014B1868A8
:101ADC00704700BFB4240020002808DB0901C9B2FC
:101AEC0000F1604000F5614080F80013704700F091
:101AFC000F000901C9B2014B1954704714ED00E0F5
:101B0C0000B500F00700C0F1070CBCF1040F28BFB2
:101B1C004FF0040C031D062B0FD9C31E4FF0FF3ED4
:101B2C000EFA0CF021EA000199400EFA03FE22EAAB
:101B3C000E0241EA02005DF804FB0023EEE7000010
:101B4C00074AD36823F4E0631B041B0C000200F467
:101B5C00E060034343F0BF6343F40033D36070474A
:101B6C0000ED00E010B50446054BD868C0F3022028
:101B7C00FFF7C6FF01462046FFF7AEFF10BD00BFC2
:101B8C0000ED00E0002807DB00F01F0240090123F4
:101B9C009340024A42F82030704700BF00E100E059
:101BAC000138B0F1807F0BD24FF0E0235861054A29
:101BBC00F02182F823100020986107221A617047E7
:101BCC000120704700ED00E030B40124056CAC40FE
:101BDC00C56B6C60046863604368102B05D00368A8
:101BEC0099600368DA6030BC704703689A600368D8
:101BFC00D960F8E760B310B402460168154B0B448A
:101C0C001548A0FB03031B099B001364134BD36300
:101C1C00022382F82130086820F47F5020F0300035
:101C2C00536894682343D468234314692343546949
:101C3C00234394692343D469234303430B6000205B
:101C4C009063012382F8213082F8200010BC704789
:101C5C0001207047F8FFFDBFCDCCCCCC000002407A
:101C6C0070B5044690F82000012820D0012084F89B
:101C7C00200094F82100C0B2012804D0002384F87D
:101C8C002030022070BD022084F821000025A563BD
:101C9C002668306820F0010030602046FFF794FF82
:101CAC002268136843F0010313602846EAE7022018
:101CBC00E8E738B5044690F82000012832D001201E
:101CCC0084F8200094F82100C0B2012804D000232D
:101CDC0084F82030022038BD022084F82100002036
:101CEC00A0632568286820F0010028602046FFF7D3
:101CFC006BFFE36A5BB12268136843F00E03136059
:101D0C002268136843F0010313600020E3E72268A4
:101D1C00136823F0040313602268136843F00A036A
:101D2C001360EDE70220D6E7034690F82120D2B2EB
:101D3C00022A06D004228263002280F8202001208F
:101D4C00704701680A6822F00E020A6001680A688E
:101D5C0022F001020A60026CC06B012101FA02F24E
:101D6C00426083F82110002083F8200070470000A7
:101D7C0008B590F82130DBB2022B03D00423836327
:101D8C00012008BD0268136823F00E03136002687B
:101D9C00136823F0010313600368194A934214D0AB
:101DAC00143293421FD0143293421ED014329342F9
:101DBC001ED0143293421ED01432934202D04FF0F4
:101DCC00807203E04FF4801200E001220D4B5A6048
:101DDC00012380F82130002380F82030436B6BB155
:101DEC0098470020CDE71022F0E74FF48072EDE722
:101DFC004FF48052EAE74FF48032E7E70020C0E767
:101E0C00080002400000024038B5C36B1A68046831
:101E1C002568016C04238B40134235D015F0040F58
:101E2C0032D0236813F0200F03D1236823F004036E
:101E3C0023600368434A934214D01432934218D05F
:101E4C001432934217D01432934217D01432934267
:101E5C0017D01432934202D04FF0806203E04FF45B
:101E6C00800200E00422384B5A60C36A03B19847E1
:101E7C0038BD4022F7E74FF48062F4E74FF480421C
:101E8C00F1E74FF48022EEE702238B4013423CD063
:101E9C0015F0020F39D0236813F0200F06D12368F8
:101EAC0023F00A032360012380F821300368254ABC
:101EBC00934214D0143293421CD0143293421BD050
:101ECC00143293421BD0143293421BD014329342DF
:101EDC0002D04FF0007203E04FF4001200E0022237
:101EEC00194B5A60002380F82030836A002BBFD036
:101EFC009847BDE72022F3E74FF40072F0E74FF468
:101F0C000052EDE74FF40032EAE708238B4013420E
:101F1C00AED015F0080FABD0236823F00E0323606E
:101F2C00026CC16B012303FA02F24A60836380F8EE
:101F3C002130002380F82030036B002B98D0984779
:101F4C0096E700BF080002400000024070B582B066
:101F5C000024A446A2E07E4DAB4210D007D97D4DA3
:101F6C00AB420CD005F58035AB4208D013E0A5F59B
:101F7C008015AB4203D005F57025AB4207D18B68B9
:101F8C00002B55D0012B4ED04261082403E0A5F55F
:101F9C008015AB42F3D0BEF1FF0F4BD806464FEA8B
:101FAC008C0233680F25954023EA050304FA02F2EC
:101FBC00134333604B6813F0805F6DD0664B9A69A6
:101FCC0042F001029A619B6903F001030193019BAA
:101FDC004FEA9C02951C614B53F825600CF00305ED
:101FEC00AD000F23AB4026EA03065D4B984228D088
:101FFC0003F58063984200F08D8003F5806398426E
:10200C0000F08A8003F58063984218D0042319E00D
:10201C00CC68C0E7CC680434BDE7CC680834BAE7B8
:10202C00CC680C34B7E702610824B4E70024B2E7AB
:10203C000424B0E7061DACF108029200B1E70323BB
:10204C0000E00023AB4033430232444D45F82230CC
:10205C004B6813F4801F61D0424A936843EA0E0325
:10206C0093604B6813F4001F5ED03E4AD36843EA7A
:10207C000E03D3604B6813F4003F5BD0394A5368AE
:10208C0043EA0E0353604B6813F4803F58D0354A33
:10209C00136843EA0E0313600CF1010C0B6833FA5E
:1020AC000CF253D0012202FA0CF203EA020E32EACD
:1020BC000303F1D14B68122B3FF64DAF122B3FF6B9
:1020CC006AAF01A555F823F08B1F00081D200008EE
:1020DC002720000839200008A31F0008A31F0008B0
:1020EC00A31F0008A31F0008A31F0008A31F0008BC
:1020FC00A31F0008A31F0008A31F0008A31F0008AC
:10210C00A31F0008A31F0008A31F0008212000081C
:10211C002D200008012395E7022393E7114A9368C9
:10212C0023EA0E0393609CE70E4AD36823EA0E035E
:10213C00D3609FE70B4A536823EA0E035360A2E770
:10214C00084A136823EA0E031360A5E702B070BDBA
:10215C00000022100000311000100240000001406D
:10216C0000080140000401400AB1016170470904F4
:10217C0001617047C36801EA030221EA030141EAE5
:10218C00024101617047000082B00A4B9A6942F02B
:10219C0001029A619A6902F001020092009ADA69CE
:1021AC0042F08052DA61DB6903F080530193019BAA
:1021BC0002B070470010024030B587B00023029384
:1021CC0003930493059302681B4B9A4201D007B00A
:1021DC0030BD03F5E633DA6942F40032DA61DA69CC
:1021EC0002F400320092009A9A6942F004029A6159
:1021FC009B6903F004030193019B042302930223C4
:10220C000393032305930D4D02A92846FFF79EFE69
:10221C00082302930024039404940DEB0301284635
:10222C00FFF794FE224621462620FFF79BFC262032
:10223C00FFF7A8FCCBE700BF0044004000080140BA
:10224C0082B0084B1B68084AA2FB03235B0A00FB05
:10225C0003F3019300BF019B5A1E0192002BF9D18D
:10226C0002B0704710000020D34D6210002800F01F
:10227C00F18170B582B00446036813F0010F2CD0C5
:10228C00994B5B6803F00C03042B1DD0964B5B68D9
:10229C0003F00C03082B12D06368B3F5803F41D0D8
:1022AC00002B55D103F1804303F504331A6822F453
:1022BC0080321A601A6822F480221A6037E08A4B46
:1022CC005B6813F4803FE7D0874B1B6813F4003F27
:1022DC0003D06368002B00F0BF81236813F0020F5A
:1022EC0075D0814B5B6813F00C0F5FD07E4B5B6835
:1022FC0003F00C03082B54D02369002B00F08A80C8
:10230C007A4B01221A60FFF7E1FB0546764B1B68FE
:10231C0013F0020F75D1FFF7D9FB401B0228F5D93A
:10232C0003209EE1704A136843F4803313606368A2
:10233C0043B3FFF7CBFB05466B4B1B6813F4003F15
:10234C00CBD1FFF7C3FB401B6428F5D9032088E1F0
:10235C00B3F5A02F09D0644B1A6822F480321A60AE
:10236C001A6822F480221A60E1E703F18043A3F596
:10237C003C331A6842F480221A601A6842F48032A4
:10238C001A60D4E7FFF7A2FB0546574B1B6813F402
:10239C00003FA2D0FFF79AFB401B6428F5D903201D
:1023AC005FE1514B5B6813F4803FA5D14E4B1B682A
:1023BC0013F0020F03D02369012B40F04F814A4ADE
:1023CC00136823F0F803616943EAC10313602368BF
:1023DC0013F0080F33D0A369002B5CD0434B0122C0
:1023EC00C3F88024FFF772FB05463F4B5B6A13F082
:1023FC00020F21D1FFF76AFB401B0228F5D90320FD
:10240C002FE1394A136823F0F803616943EAC103E9
:10241C001360DCE7354B00221A60FFF757FB0546CB
:10242C00314B1B6813F0020FD1D0FFF74FFB401B51
:10243C000228F5D9032014E10120FFF701FF2368DE
:10244C0013F0040F00F09680274BDB6913F0805FCC
:10245C0034D1254BDA6942F08052DA61DB6903F042
:10246C0080530193019B0125214B1B6813F4807F42
:10247C0026D0E368012B3DD0002B53D103F18043D0
:10248C0003F504331A6A22F001021A621A6A22F066
:10249C0004021A6233E0154B0022C3F88024FFF7C4
:1024AC0015FB0546104B5B6A13F0020FC7D0FFF704
:1024BC000DFB401B0228F5D90320D2E00025D3E701
:1024CC000B4A136843F480731360FFF7FFFA064658
:1024DC00074B1B6813F4807FCBD1FFF7F7FA801BF7
:1024EC006428F5D90320BCE00010024000004242F1
:1024FC00007000405F4A136A43F001031362E36803
:10250C0033B3FFF7E3FA06465A4B1B6A13F0020F7C
:10251C002FD1FFF7DBFA801B41F288339842F3D9B5
:10252C0003209EE0052B09D0524B1A6A22F00102BF
:10253C001A621A6A22F004021A62E0E74D4B1A6A18
:10254C0042F004021A621A6A42F001021A62D6E7D9
:10255C00FFF7BCFA0646474B1B6A13F0020F08D074
:10256C00FFF7B4FA801B41F288339842F3D9032069
:10257C0077E0E5B9E369002B72D03E4A526802F06D
:10258C000C02082A56D0022B17D03B4B00221A669D
:10259C00FFF79CFA0446374B1B6813F0007F47D0BB
:1025AC00FFF794FA001B0228F5D9032059E0314AB1
:1025BC00D36923F08053D361DCE72F4B00221A66DA
:1025CC00FFF784FA05462B4B1B6813F0007F06D0EF
:1025DC00FFF77CFA401B0228F5D9032041E0236A5F
:1025EC00B3F5803F1AD023494B6823F47413226A45
:1025FC00606A024313434B601F4B01221A66FFF7BC
:10260C0065FA04461B4B1B6813F0007F0ED1FFF7D5
:10261C005DFA001B0228F5D9032022E0154A536805
:10262C0023F40033A1680B435360DCE7002018E06F
:10263C00002016E0012B16D00E4B5B6803F48031A2
:10264C00226A914211D103F47013626A93420ED143
:10265C00002006E001207047012002E0012000E08C
:10266C00002002B070BD0120FBE70120F9E701203A
:10267C00F7E700BF00100240000042420F4B5B68BE
:10268C0003F00C02082A01D00D487047C3F38342B3
:10269C000C49885C13F4803F0BD0084B5B68C3F388
:1026AC004043094AD35C064A02FB00F0B0FBF3F04E
:1026BC007047064B03FB00F0704700BF0010024050
:1026CC0000127A00483700084437000800093D0022
:1026DC00002800F0A08070B50D460446524B1B68D4
:1026EC0003F007038B420BD24F4A136823F0070306
:1026FC000B431360136803F007038B4240F08D808B
:10270C00236813F0020F17D013F0040F04D0474ABC
:10271C00536843F4E0635360236813F0080F04D04C
:10272C00424A536843F460535360404A536823F061
:10273C00F003A1680B435360236813F0010F31D0F1
:10274C006368012B20D0022B25D0384A126812F076
:10275C00020F64D035494A6822F0030213434B60E0
:10276C00FFF7B4F90646314B5B6803F00C03626863
:10277C00B3EB820F16D0FFF7A9F9801B41F2883317
:10278C009842F0D9032045E0284A126812F4003F21
:10279C00E0D101203EE0254A126812F0007FD9D129
:1027AC00012037E0204B1B6803F00703AB420AD92A
:1027BC001D4A136823F007032B431360136803F0BF
:1027CC000703AB422DD1236813F0040F06D0174A30
:1027DC00536823F4E063E1680B435360236813F000
:1027EC00080F07D0114A536823F46053216943EA58
:1027FC00C1035360FFF742FF0C4B5B68C3F3031339
:10280C000B4AD35CD8400B4B18600B4B1868FFF786
:10281C0019F9002070BD012070470120FAE7012052
:10282C00F8E70120F6E700BF00200240001002404C
:10283C0060370008100000200C000020014B1868C5
:10284C00704700BF1000002008B5FFF7F7FF044BDE
:10285C005B68C3F30223034AD35CD84008BD00BFB6
:10286C00001002405837000808B5FFF7E7FF044B8B
:10287C005B68C3F3C223034AD35CD84008BD00BFD6
:10288C00001002405837000830B4026A036A23F083
:10289C00010303624568836923F073030C681C43CE
:1028AC0022F002028B6813430B4A904206D045601B
:1028BC0084614A684263036230BC704723F00803AA
:1028CC00CA681A4322F0040325F440754A692A4366
:1028DC008D691543EBE700BF002C014030B4036A4F
:1028EC00026A22F4807202624468C26922F07302A6
:1028FC000D68154323F400738A6843EA02230D4ADA
:10290C00904206D04460C5614A68C263036230BC21
:10291C00704723F40063CA6843EA022323F48063FC
:10292C0024F440544A6944EA02148A6944EA0214C1
:10293C00E8E700BF002C014030B4036A026A22F4BD
:10294C00805202624468C26922F4E6420D6842EA8F
:10295C00052223F400538D6843EA0533074DA84242
:10296C0006D04460C2614A680264036230BC70479E
:10297C0024F480444D6944EA8514F2E7002C0140AC
:10298C0090F83D30DBB2012B22D1022380F83D3090
:10299C000368114A934210D0B3F1804F0DD0A2F5C9
:1029AC009432934209D002F58062934205D01A68A2
:1029BC0042F001021A60002070479A6802F0070288
:1029CC00062A07D01A6842F001021A6000207047EC
:1029DC000120704700207047002C01407047704761
:1029EC0070477047704770B504460368DE681D6910
:1029FC0015F0020F10D016F0020F0DD06FF002027E
:102A0C001A610123037703689B6913F0030F5ED0EF
:102A1C00FFF7E6FF0023237715F0040F12D016F012
:102A2C00040F0FD023686FF004021A61022323777E
:102A3C0023689B6913F4407F4FD02046FFF7D0FFEB
:102A4C000023237715F0080F12D016F0080F0FD0C3
:102A5C0023686FF008021A61042323772368DB696B
:102A6C0013F0030F40D02046FFF7BAFF0023237763
:102A7C0015F0100F12D016F0100F0FD023686FF056
:102A8C0010021A61082323772368DB6913F4407F53
:102A9C0031D02046FFF7A4FF0023237715F0010F58
:102AAC0002D016F0010F2DD115F0800F02D016F0C8
:102ABC00800F2FD115F0400F02D016F0400F31D1FE
:102ACC0015F0200F02D016F0200F33D170BDFFF798
:102ADC0086FF2046FFF785FF9CE72046FFF77FFF28
:102AEC002046FFF77EFFABE72046FFF778FF204636
:102AFC00FFF777FFBAE72046FFF771FF2046FFF795
:102B0C0070FFC9E723686FF001021A612046FEF7D7
:102B1C001FFDC9E723686FF080021A61204600F0A0
:102B2C009AF9C7E723686FF040021A612046FFF755
:102B3C0059FFC5E723686FF020021A61204600F0A8
:102B4C0089F9C3E703681F4A90420AD0B0F1804F5D
:102B5C0007D0A2F59432904203D002F580629042E5
:102B6C0003D123F070034A681343164A90420AD0EB
:102B7C00B0F1804F07D0A2F59432904203D002F509
:102B8C008062904203D123F44073CA68134323F04C
:102B9C0080034A69134303608B68C3620B688362CA
:102BAC00084B98420AD001234361036913F0010FCB
:102BBC0003D0036923F00103036170470B690363BE
:102BCC00F1E700BF002C014040B310B5044690F86B
:102BDC003D30F3B1022384F83D30214651F8040B0B
:102BEC00FFF7B0FF012384F8463084F83E3084F8B8
:102BFC003F3084F8403084F8413084F8423084F817
:102C0C00433084F8443084F8453084F83D3000205B
:102C1C0010BD80F83C30FFF7E1FEDBE70120704788
:102C2C0030B4036A026A22F01002026244688269BC
:102C3C0022F4E6420D6842EA052223F020038D6857
:102C4C0043EA05130C4DA84206D0446082614A68E1
:102C5C008263036230BC704723F08003CD6843EA83
:102C6C00051323F0400324F440644D6944EA8504C1
:102C7C008D6944EA8504E8E7002C014038B590F8EA
:102C8C003C30012B66D004460D46012380F83C30C5
:102C9C000C2A5AD8DFE802F0075959591B595959CF
:102CAC003059595944000068FFF7EEFD22689369CA
:102CBC0043F0080393612268936923F00403936142
:102CCC002268936929690B43936100203EE00068F8
:102CDC00FFF7A6FF2268936943F4006393612268AF
:102CEC00936923F48063936122689369296943EAA9
:102CFC0001239361002029E00068FFF7EFFD2268B3
:102D0C00D36943F00803D3612268D36923F0040329
:102D1C00D3612268D36929690B43D361002015E084
:102D2C000068FFF709FE2268D36943F40063D3619E
:102D3C002268D36923F48063D3612268D36929693B
:102D4C0043EA0123D361002000E00120002384F832
:102D5C003C3038BD0220FCE701F01F014FF0010CA4
:102D6C000CFA01FC036A23EA0C030362036A8A402F
:102D7C00134303627047000010B50446084651BB6C
:102D8C0094F83E30DBB2013B18BF0123002B5BD122
:102D9C00002839D1022384F83E30012201462068F4
:102DAC00FFF7DAFF23682A4A93423DD02368284A6A
:102DBC0093423ED0B3F1804F3BD0A2F59432934274
:102DCC0037D002F58062934233D01A6842F0010288
:102DDC001A60002039E0042908D008290DD094F895
:102DEC004130DBB2013B18BF0123CFE794F83F30F1
:102DFC00DBB2013B18BF0123C8E794F84030DBB2CB
:102E0C00013B18BF0123C1E7042805D0082807D0CF
:102E1C00022384F84130C0E7022384F83F30BCE73A
:102E2C00022384F84030B8E75A6C42F400425A64EA
:102E3C00BCE79A6802F00702062A07D01A6842F02B
:102E4C0001021A60002000E0012010BD0020FCE708
:102E5C00002C014070477047026802F10C0353E8E4
:102E6C00003F23F490730C3242E800310029F3D177
:102E7C00026802F1140353E8003F23F001031432FB
:102E8C0042E800310029F3D1036B012B05D020233C
:102E9C0080F84230002303637047026802F10C0390
:102EAC0053E8003F23F010030C3242E800310029B4
:102EBC00F3D1ECE790F84130DBB2212B01D00220AA
:102ECC0070478368B3F5805F17D0036A5A1C02629F
:102EDC001A7803685A60C38C9BB2013B9BB2C384C3
:102EEC004BB90268D36823F08003D3600268D368BF
:102EFC0043F04003D360002070470369002BE4D1FA
:102F0C00036A1B880268C3F308035360036A023325
:102F1C000362E0E710B504460268136923F44053DA
:102F2C00C1680B43136183680269134342691A43F6
:102F3C000168CB6823F4B05323F00C031343CB602C
:102F4C000268536923F4407381690B43536102682F
:102F5C00134B9A4220D0FFF777FC024602EB820219
:102F6C0002EB820263689B00B2FBF3F20D48A0FBFC
:102F7C0002314909642303FB11231B013233A0FBEB
:102F8C0003035B0903F0F00202EB011203F00F03E1
:102F9C00216813448B6010BDFFF766FC0246DDE729
:102FAC00003801401F85EB512DE9F04383B00546F5
:102FBC000E4617469946DDF828802B681C6836EAC1
:102FCC0004040CBF01240024BC4228D1B8F1FF3FFB
:102FDC00F3D0FEF77BFDA0EB0900404523D8B8F1F8
:102FEC00000F22D02B68DA6812F0040FE5D0802E87
:102FFC00E3D0402EE1D01A6812F0080FDDD0002487
:10300C0001941A6801925B680193019B2846FFF7B3
:10301C0023FF08236B6485F84040012000E000206A
:10302C0003B0BDE8F0830320FAE70320F8E760B3B0
:10303C0010B5044690F8413013B3242384F8413082
:10304C002268D36823F40053D3602046FFF762FF55
:10305C002268136923F4904313612268536923F0A7
:10306C002A0353612268D36843F40053D3600020D1
:10307C006064202384F8413084F84230606310BDD2
:10308C0080F84030FFF798F8D7E7012070472DE91A
:10309C00F04182B01E4690F84130DBB2202B56D165
:1030AC0004460D469046002955D00AB901204FE040
:1030BC0000234364212380F84130FEF707FD0746C7
:1030CC00A4F82480A4F82680A368B3F5805F02D00E
:1030DC004FF0000814E023692BB34FF000080FE009
:1030EC00202384F84130032032E038F8023B226878
:1030FC00C3F308035360E28C92B2013A92B2E284B9
:10310C00E38C9BB293B100963B4600228021204673
:10311C00FFF74AFF0028E3D1002DE6D015F8012B6C
:10312C0023685A60E7E7A8460025E9E700963B4686
:10313C00002240212046FFF737FF18B9202384F8DE
:10314C00413005E0202384F84130032000E00220C8
:10315C0002B0BDE8F0810120FAE7704708B50168BC
:10316C00CA6822F04002CA60202280F84120FFF792
:10317C00F4FF002008BD704708B5406A0023C385E2
:10318C00C384FFF7F8FF08BD704790F84230DBB2FC
:10319C00222B69D18368B3F5805F4FD0826AB3F577
:1031AC00805F04D0002B56D10369002B53D10368E8
:1031BC005B681370836A01338362C38D9BB2013BDE
:1031CC009BB2C385002B51D100B583B00268D36884
:1031DC0023F02003D3600268D36823F48073D36098
:1031EC000268536923F001035361202380F84230B5
:1031FC0000234363036B012B33D100230363026869
:10320C0002F10C0353E8003F23F010030C3242E8A8
:10321C0000310029F3D103681A6812F0100F06D0A0
:10322C00002201921A6801925B680193019B818DC7
:10323C00FFF7AAFF002003B05DF804FB0269002A27
:10324C00ACD1826A03685B68C3F308031380836A9A
:10325C0002338362B1E703685B6803F07F0313708A
:10326C00A8E7FEF7F5F9E5E7022070470020704764
:10327C0010B582B0044602681368D068516913F027
:10328C000F0F09D113F0200F0CD010F0200F09D024
:10329C002046FFF77AFF16E011F0010115D110F46A
:1032AC00907F12D1216B012979D013F0800F03D0BC
:1032BC0010F0800F40F0138113F0400F03D010F08A
:1032CC00400F40F0108102B010BD13F0010F06D07A
:1032DC0010F4807F03D0626C42F00102626413F040
:1032EC00040F04D019B1626C42F00202626413F054
:1032FC00020F04D019B1626C42F00402626413F044
:10330C00080F07D010F0200F00D119B1626C42F0F9
:10331C0008026264626C002AD5D013F0200F02D030
:10332C0010F0200F29D123685B6903F04003626C15
:10333C0012F0080F00D163B32046FFF78DFD236810
:10334C005B6913F0400F20D0226802F1140353E89C
:10335C00003F23F04003143242E800310029F3D13E
:10336C00E36B73B1624A5A63E06BFEF701FD002810
:10337C00A9D0E06B436B9847A5E72046FFF705FF04
:10338C00D1E72046FFF7F7FE9DE72046FFF7F3FE57
:10339C0099E72046FFF7EFFE0023636493E713F0F1
:1033AC00100F82D010F0100F3FF47FAF0023019369
:1033BC001368019353680193019B536913F0400FF9
:1033CC0051D0E26B13685B689BB2002B3FF47BAF70
:1033DC00A18D99427FF677AFE3859369202B37D087
:1033EC00226802F10C0353E8003F23F480730C3283
:1033FC0042E800310029F3D1226802F1140353E8AA
:10340C00003F23F00103143242E800310029F3D1CC
:10341C00226802F1140353E8003F23F040031432F6
:10342C0042E800310029F3D1202384F842300023F4
:10343C002363226802F10C0353E8003F23F01003CE
:10344C000C3242E800310029F3D1E06BFEF76CFC42
:10345C0002236363A18DE38D9BB2C91A89B2204606
:10346C00FFF792FE2FE7A18DE38D9BB2C91A89B2AB
:10347C00E38D9BB2002B3FF426AF00293FF423AF22
:10348C00226802F10C0353E8003F23F490730C32D2
:10349C0042E800300028F3D1226802F1140353E80B
:1034AC00003F23F00103143242E800300028F3D12E
:1034BC00202384F8423000232363226802F10C039A
:1034CC0053E8003F23F010030C3242E80030002890
:1034DC00F3D1022363632046FFF756FEF3E6204642
:1034EC00FFF7E8FCEFE62046FFF738FEEBE600BFFF
:1034FC008531000881628285C285002343642223C2
:10350C0080F84230036923B10268D36843F48073B6
:10351C00D3600268536943F0010353610268D368B6
:10352C0043F02003D3600020704708B590F8423078
:10353C00DBB2202B08D149B10AB9012008BD002308
:10354C000363FFF7D7FFF9E70220F7E70120F5E760
:10355C00FEE7FEE7FEE7FEE7FEE7704770477047C1
:10356C0008B50248FFF784FE08BD00BF6C2400209C
:10357C0070470000FFF7FCFF0B480C490C4A002376
:10358C0002E0D458C4500433C4188C42F9D3094A0D
:10359C00094C002301E013600432A242FBD300F07B
:1035AC0017F8FEF7B9F8704700000020140000204F
:1035BC007837000814000020B8240020FEE70346EA
:1035CC000244934200D1704703F8011BF9E7000055
:1035DC0070B500260C4D0D4C641BA410A64209D1ED
:1035EC0000F01AF800260A4D0A4C641BA410A642DF
:1035FC0005D170BD55F8043B98470136EEE755F8F8
:10360C00043B98470136F2E7703700087037000822
:10361C007037000874370008F8B500BFF8BC08BC58
:10362C009E467047F8B500BFF8BC08BC9E46704774
:10363C00000000000000000000000000000000007E
:10364C00000000000000000000000000010101016A
:10365C000101010101010101010202020202020247
:10366C000203030303030303040404040405050514
:10367C000506060606070707070808080909090AC8
:10368C000A0A0B0B0B0C0C0D0D0D0E0E0F0F101060
:10369C0011111212131314141515161617181819D4
:1036AC00191A1B1B1C1D1D1E1F2020212223232425
:1036BC002526272728292A2B2C2D2E2F3031323244
:1036CC003334363738393A3B3C3D3E3F4042434435
:1036DC00454648494A4B4D4E4F51525355565759F2
:1036EC005A5C5D5F606263656668696B6D6E707273
:1036FC00737577787A7C7E7F81838587898A8C8EB7
:10370C0090929496989A9C9EA0A2A4A7A9ABADAFB8
:10371C00B1B4B6B8BABDBFC1C4C6C8CBCDD0D2D572
:10372C00D7DADCDFE1E4E7E9ECEFF1F4F7F9FCFFE1
:10373C0048454C4C4F0000000102000002030405F8
:10374C00060708090A0B0C0D0E0F101000000000E4
:10375C000102030400000000000000000102030449
:04376C00060708093B
:043770002D0600081A
:04377400090600083A
:103778000000700070000000010000001000000050
:0437880000127A00B1
:040000050800358139
:00000001FF
