:020000040800F2
:10000000005000208D3B0008693B00086B3B000856
:100010006D3B00086F3B0008713B000800000000CA
:10002000000000000000000000000000733B00081A
:10003000753B000800000000773B0008D518000859
:10004000D53B0008D53B0008D53B0008D53B000850
:10005000D53B0008D53B0008D53B0008D53B000840
:10006000D53B0008D53B0008D53B0008D53B000830
:1000700079170008D53B0008D53B00088917000810
:10008000D53B000899170008D53B0008D53B000870
:10009000D53B0008D53B0008D53B0008D53B000800
:1000A000D53B0008D53B0008D53B0008D53B0008F0
:1000B000A9170008D53B0008D53B0008D53B000830
:1000C000D53B0008D53B0008D53B0008D53B0008D0
:1000D000D53B0008D53B0008793B0008D53B00081C
:1000E000D53B0008D53B0008D53B000800000000C8
:1000F0000000000000000000000000000000000000
:0C01000000000000000000005FF808F1A3
:10010C0080F0004002E000BF81F0004142001FBFC0
:10011C005FEA410392EA030F7FEA226C7FEA236CC9
:10012C006AD04FEA1262D2EB1363C1BFD2184140BE
:10013C0048404140B8BF5B42192B88BF704710F054
:10014C00004F40F4000020F07F4018BF404211F0F7
:10015C00004F41F4000121F07F4118BF494292EA5F
:10016C00030F3FD0A2F1010241FA03FC10EB0C008B
:10017C00C3F1200301FA03F100F0004302D5494218
:10018C0060EB4000B0F5000F13D3B0F1807F06D3C5
:10019C0040084FEA310102F10102FE2A51D2B1F1BD
:1001AC00004F40EBC25008BF20F0010040EA0300B2
:1001BC007047490040EB0000013A28BFB0F5000F32
:1001CC00EDD2B0FA80FCACF1080CB2EB0C0200FAE8
:1001DC000CF0AABF00EBC25052421843BCBFD04037
:1001EC001843704792F0000F81F4000106BF80F4B1
:1001FC0000000132013BB5E74FEA41037FEA226C74
:10020C0018BF7FEA236C21D092EA030F04D092F03E
:10021C00000F08BF0846704790EA010F1CBF002072
:10022C00704712F07F4F04D1400028BF40F00040CF
:10023C00704712F100723CBF00F50000704700F0EF
:10024C00004343F0FE4040F4000070477FEA226216
:10025C0016BF08467FEA23630146420206BF5FEAE7
:10026C00412390EA010F40F4800070474FF00003E7
:10027C0004E000BF10F0004348BF40425FEA000CAE
:10028C0008BF704743F0964301464FF000001CE056
:10029C0050EA010208BF70474FF000030AE000BFAC
:1002AC0050EA010208BF704711F0004302D54042EA
:1002BC0061EB41015FEA010C02BF8446014600205C
:1002CC0043F0B64308BFA3F18053A3F50003BCFA77
:1002DC008CF2083AA3EBC25310DB01FA02FC634424
:1002EC0000FA02FCC2F12002BCF1004F20FA02F22B
:1002FC0043EB020008BF20F00100704702F120021E
:10030C0001FA02FCC2F1200250EA4C0021FA02F27E
:10031C0043EB020008BF20EADC7070474FF0FF0C83
:10032C001CEAD0521EBF1CEAD15392EA0C0F93EA7E
:10033C000C0F6FD01A4480EA010C400218BF5FEA20
:10034C0041211ED04FF0006343EA501043EA511193
:10035C00A0FB01310CF00040B1F5000F3EBF49008D
:10036C0041EAD3715B0040EA010062F17F02FD2A91
:10037C001DD8B3F1004F40EBC25008BF20F0010074
:10038C00704790F0000F0CF0004C08BF49024CEA8B
:10039C00502040EA51207F3AC2BFD2F1FF0340EA1D
:1003AC00C250704740F400004FF00003013A5DDC8E
:1003BC0012F1190FDCBF00F000407047C2F10002CF
:1003CC00410021FA02F1C2F1200200FA02FC5FEABC
:1003DC00310040F1000053EA4C0308BF20EADC7006
:1003EC00704792F0000F00F0004C02BF400010F478
:1003FC00000F013AF9D040EA0C0093F0000F01F025
:10040C00004C02BF490011F4000F013BF9D041EA46
:10041C000C018FE70CEAD15392EA0C0F18BF93EA48
:10042C000C0F0AD030F0004C18BF31F0004CD8D172
:10043C0080EA010000F00040704790F0000F17BFF9
:10044C0090F0004F084691F0000F91F0004F14D03F
:10045C0092EA0C0F01D142020FD193EA0C0F03D197
:10046C004B0218BF084608D180EA010000F000409A
:10047C0040F0FE4040F40000704740F0FE4040F475
:10048C00400070474FF0FF0C1CEAD0521EBF1CEA14
:10049C00D15392EA0C0F93EA0C0F69D0A2EB030232
:1004AC0080EA010C49024FEA402037D04FF08053CC
:1004BC0043EA111143EA10130CF000408B4238BF91
:1004CC005B0042F17D024FF4000C8B4224BF5B1A9F
:1004DC0040EA0C00B3EB510F24BFA3EB510340EAED
:1004EC005C00B3EB910F24BFA3EB910340EA9C009B
:1004FC00B3EBD10F24BFA3EBD10340EADC001B010B
:10050C0018BF5FEA1C1CE0D1FD2A3FF650AF8B42AE
:10051C0040EBC25008BF20F0010070470CF0004CBB
:10052C004CEA50207F32C2BFD2F1FF0340EAC250E6
:10053C00704740F400004FF00003013A37E792F0A7
:10054C00000F00F0004C02BF400010F4000F013A05
:10055C00F9D040EA0C0093F0000F01F0004C02BF00
:10056C00490011F4000F013BF9D041EA0C0195E769
:10057C000CEAD15392EA0C0F08D142027FF47DAF02
:10058C0093EA0C0F7FF470AF084676E793EA0C0FF2
:10059C0004D14B023FF44CAF08466EE730F0004CF0
:1005AC0018BF31F0004CCAD130F000427FF45CAF80
:1005BC0031F000437FF43CAF5FE700BF42000ED246
:1005CC00B2F1FE4F0BD34FF09E03B3EB126209D482
:1005DC004FEA002343F0004323FA02F070474FF038
:1005EC000000704712F1610F01D1420202D14FF0AD
:1005FC00FF3070474FF00000704700BF10B5054C3E
:10060C00237833B9044B13B10448AFF300800123B2
:10061C00237010BD1800002000000000303C0008C2
:10062C0008B5034B1BB103490348AFF3008008BD69
:10063C00000000001C000020303C000801704270DB
:10064C008370704700B583B000238DF800308DF8AF
:10065C0001308DF802300B280DD8DFE800F00622AF
:10066C002930373E454C535A6168FF23002211460E
:10067C006846FFF7E3FF009BADF804301B0C8DF8C8
:10068C00063000209DF8043063F307009DF8053018
:10069C0063F30F209DF8063063F3174003B05DF849
:1006AC0004FBFF237F2200216846FFF7C7FFE2E728
:1006BC00FF231A4600216846FFF7C0FFDBE77F23C4
:1006CC00FF2200216846FFF7B9FFD4E70023FF2281
:1006DC0019466846FFF7B2FFCDE70023FF227F21C2
:1006EC006846FFF7ABFFC6E70023FF2211466846BA
:1006FC00FFF7A4FFBFE700237F22FF216846FFF727
:10070C009DFFB8E700231A46FF216846FFF796FFC6
:10071C00B1E77F230022FF216846FFF78FFFAAE78E
:10072C00FF23002219466846FFF788FFA3E7FF2343
:10073C0000227F216846FFF781FF9CE7F0B589B066
:10074C0000AF0D461646990823F00303073323F038
:10075C000703ADEB030D6C46002304E050F8042BAB
:10076C0044F8232001338B42F8DB01F0B9FD01F092
:10077C00DBFD00233B61BD610122FA61BB607B6044
:10078C0007F10C0107F1100001F094FEF8707B6882
:10079C00072B17D8FB78002BF9D1B96829447B6853
:1007AC0054F8232000233144022001F00FFEF8708E
:1007BC00FB78002BEBD1BB680433BB607B68013347
:1007CC007B60E4E701F0C4FD01F0A4FD2437BD46D5
:1007DC00F0BD10B582B09C084FF0000CCDF804C0F1
:1007EC000BE0019B03EB010E5EF8023040F82C305D
:1007FC00019B043301930CF1010CA445F1DB02B015
:10080C0010BD8908002300E001338B42FCDB7047EC
:10081C0000687047037C63B10368C26813440360CB
:10082C008268934213DD0260002303740123437436
:10083C007047437C5BB10368C2689B1A03604268D3
:10084C00934204DA0260002343740123037470475B
:10085C000160416082600122027400224274C36014
:10086C0070472DE9F04F8FB006460C46CB68303BF5
:10087C00212B00F22281DFE813F0AE00BF00E20072
:10088C0020012001F4002001200120012001200181
:10089C002001200120012001200120012001200144
:1008AC002001200120012001200120012001200134
:1008BC002001200120012001200122006E000B7C70
:1008CC004FF0000B63F30F2B4B7C63F3070B1FFAFA
:1008DC008BF58B7C63F30F2BCB7C63F3070B1FFA2D
:1008EC008BF80B7D63F30F2B4B7D63F3070B1FFA18
:1008FC008BF98B7D63F30F2BCB7D63F3070B1FFA07
:10090C008BFA0B7E63F30F2B4B7E63F3070B1FFAF3
:10091C008BFB06AF202422460021384603F055F904
:10092C008DF83740CDF800B053464A46414638461C
:10093C0000F087FAEDB205956C4609AD0FCD0FC4EA
:10094C002B68236097E80E00304600F000FB012076
:10095C000FB0BDE8F08F0B7C4FF0000B63F30F2B47
:10096C004B7C63F3070B1FFA8BF58B7C63F30F2B1C
:10097C00CB7C63F3070B1FFA8BF1237D63F30F2BF7
:10098C00637D63F3070B1FFA8BF2A37D63F30F2BCD
:10099C00E37D63F3070B1FFA8BF3207E60F30F2BC1
:1009AC00607E60F3070B1FFA8BF021248DF8374023
:1009BC0006AF0090384600F079FAEDB205956C461A
:1009CC0009AD0FCD0FC42B68236097E80E0030469D
:1009DC0000F0BDFABBE70B7C4FF0000B63F30F2B61
:1009EC004B7C63F3070B0B7D0093CB7C8A7C1FFA4B
:1009FC008BF100F0B9F9AAE70B7C4FF0000B63F315
:100A0C000F2B4B7C63F3070B1FFA8BF78B7C63F379
:100A1C000F2BCB7C63F3070B1FFA8BFB91F8149015
:100A2C0091F815808C7D07E0009443464A46394680
:100A3C00304600F099F901375F45F5DB87E791F80F
:100A4C0010804F7C8D7C002407E000953B4642468D
:100A5C002146304600F088F90134B368A342F4DC37
:100A6C0075E76423C360002380F82E3080F84E3085
:100A7C000B7C4FF0000B63F30F2B4B7C63F3070BDA
:100A8C001FFA8BF58368AB42FFF661AF4FF000089D
:100A9C0002270FE0791CE219BB1C214423441B7C68
:100AAC0000930B7C127C03374146304600F05CF916
:100ABC0008F10108A845EDDB49E7002048E720B123
:100ACC0000224271027101608260704783680133B9
:100ADC008360027922B90268934201D301234371E6
:100AEC0070470346407910B11B7903B10020704761
:100AFC00002343718360704700F5805399685985D2
:100B0C00986100229A601A7401229A71704710B58C
:100B1C0004460846002302E00022E2540133B3F5F8
:100B2C00006FF9DB04F580539C6100221A609A6017
:100B3C00DA601A745A749A749A714FF4C8721A6201
:100B4C000122214602F0F7FF10BD00B54FF0000E58
:100B5C004FF6FF730CE05B08013A3AB113F0010F4A
:100B6C00F9D04AF2010C8CEA5303F5E70EF1010EB1
:100B7C008E4504DA10F80E2053400822EDE798B2A7
:100B8C005DF804FB10B5844608460CF5805291695B
:100B9C00938891F800E00CEB030484F800E801332F
:100BAC009BB29380B3F5006F02D9134600229A8052
:100BBC000CF5805301221A7400245C629C68144466
:100BCC009C601C6811F801EB0CF804E014441C60E8
:100BDC00996102F0B0FF10BD38B50D4603784B702B
:100BEC0043780B708378CB70C3788B7003794B711F
:100BFC0043790B718988B1F5806F38D804468379B5
:100C0C00EB72C379AB72037A6B72437A2B72837A71
:100C1C00EB73C37AAB73037B6B73437B2B73002334
:100C2C000E2206E014F802C0E81880F810C0013358
:100C3C000132A1F110009842F4DC531CA25C85F83F
:100C4C001122E35C85F8103202392046FFF77DFF54
:100C5C0004F58054A082B5F81032984209D02B8844
:100C6C0033B16B8823B1AB8813B1012000E00020B5
:100C7C0038BD0120FCE710B588B0044608466378FF
:100C8C008DF8003023788DF80130E3788DF8023040
:100C9C00A3788DF8033063798DF8043023798DF8BF
:100CAC000530E37A8DF80630A37A8DF80730637A35
:100CBC008DF80830237A8DF80930E37B8DF80A30F3
:100CCC00A37B8DF80B30637B8DF80C30237B8DF878
:100CDC000D3000220E2309E003F120010DEB010C75
:100CEC004FF0FF0E0CF820EC013201330F2AF3DD2C
:100CFC005A1C94F8111220336B4403F8201C94F8FE
:100D0C00101202F120036B4403F8201C4FF47A7389
:100D1C002022694602F0C1FC08B010BD00F58050DD
:100D2C008079704700F580500023837170474260D2
:100D3C00016083606423C360002380F850317047E6
:100D4C0010B4046874B1D0F808C08C450ADB01EB10
:100D5C004101625404684A1CA354036802319DF893
:100D6C0004205A5410BC704710B4446874B1D0F8C5
:100D7C0008C08C450ADB01EB4101625442680A440D
:100D8C00537043680B449DF804209A7010BC704754
:100D9C002DE9F04383B00746C068FFF76BFA1B4997
:100DAC00FFF770FB8046002429E07A6804EB4403CB
:100DBC0002EB0309D05CFFF759FA4146FFF7AEFA94
:100DCC00FFF7FCFBC5B299F80100FFF74FFA41465B
:100DDC00FFF7A4FAFFF7F2FBC6B299F80200FFF78F
:100DEC0045FA4146FFF79AFAFFF7E8FBC0B20090CC
:100DFC0033462A4621463846FFF7A2FF0134BB682A
:100E0C00A342D2DC03B0BDE8F08300BF0000C842AF
:100E1C0030B585B00546039100240BE09DF80E30EB
:100E2C0000939DF80D309DF80C2021462846FFF7C5
:100E3C009BFF0134AB68A342F0DC05B030BDC16050
:100E4C0070472DE9F04104460F4615461E46BDF885
:100E5C001880134642463146FFF7FAFC6683A4F825
:100E6C001C80A782E5820123A3772023E377BDE8CA
:100E7C00F081D0B138B50C46054641B18B7F33B10A
:100E8C000A8B8B8A9A4203D8238B0133238338BD78
:100E9C000846FFF7BFFC21782846FFF7D0FF28460D
:100EAC00FFF776FF00232383EEE770472DE9F0412F
:100EBC0004460F4615461E46BDF81880134642469A
:100ECC003146FFF7C5FC6683A4F81C80A782E58237
:100EDC000123A3772123E377BDE8F08184B010B51B
:100EEC0082B0044605A880E80E0094F85001092849
:100EFC000AD89DF83330202B0BD0212B18D094F826
:100F0C005031013384F8503102B0BDE8104004B0C8
:100F1C00704740011030BDF830300093BDF82E30D2
:100F2C00BDF82A20BDF828102044FFF78AFFE6E719
:100F3C0040011030BDF830300093BDF82E30BDF8B4
:100F4C002A20BDF828102044FFF7B0FFD7E784B063
:100F5C0000B583B00DF1140C8CE80E009DF8343004
:100F6C00092B05D89DF83320202A06D0212A14D02D
:100F7C0003B05DF804EB04B070475B0103F1100C97
:100F8C00BDF830300093BDF82E30BDF82A20BDF8E6
:100F9C0028106044FFF755FFEAE75B0103F1100CE2
:100FAC00BDF830300093BDF82E30BDF82A20BDF8C6
:100FBC0028106044FFF77AFFDAE70000002800F001
:100FCC00018170B582B00C46054641B18B7F33B1BF
:100FDC000A8B8B8A9A4204D8238B0133238302B069
:100FEC0070BD0846FFF716FC2046FFF711FC82B2D5
:100FFC00754BA3FB0213D11A03EB5100C0F38710FE
:10100C0000238DF804308DF805308DF80630A0EBF8
:10101C00C0139BB213449EB20B2815D8DFE800F026
:10102C00061E2F3F505F708091A0B1C1FFF70AFBE5
:10103C008DF80400C0F307238DF80530C0F307408A
:10104C008DF806008DF8056001992846FFF7E0FE43
:10105C002846FFF79DFE00232383BDE7FFF7F2FA36
:10106C008DF80400C0F307238DF80530C0F307405A
:10107C008DF8060006F17F038DF80530E4E7FFF7E5
:10108C00E1FA8DF80400C0F307238DF80530C0F3A6
:10109C0007408DF80600F3438DF80630D4E7FFF7D0
:1010AC00D1FA8DF80400C0F307238DF80530C0F396
:1010BC0007408DF80600C6F17F038DF80630C3E7B4
:1010CC00FFF7C0FA8DF80400C0F307238DF8053044
:1010DC00C0F307408DF806008DF80460B4E7FFF705
:1010EC00B1FA8DF80400C0F307238DF80530C0F376
:1010FC0007408DF8060006F17F038DF80430A3E756
:10110C00FFF7A0FA8DF80400C0F307238DF8053023
:10111C00C0F307408DF80600F3438DF8053093E7D4
:10112C00FFF790FA8DF80400C0F307238DF8053013
:10113C00C0F307408DF80600C6F17F038DF805302B
:10114C0082E7FFF77FFA8DF80400C0F307238DF8D0
:10115C000530C0F307408DF806008DF8066073E784
:10116C00FFF770FA8DF80400C0F307238DF80530F3
:10117C00C0F307408DF8060006F17F038DF80630AA
:10118C0062E7FFF75FFA8DF80400C0F307238DF8D0
:10119C000530C0F307408DF80600F3438DF804309A
:1011AC0052E7FFF74FFA8DF80400C0F307238DF8D0
:1011BC000530C0F307408DF80600C6F17F038DF8AB
:1011CC00043041E7704700BF1108040238B50546EA
:1011DC00002406E06101103129442846FFF749FE3E
:1011EC00013495F85031A3420EDD05EB441393F80E
:1011FC002F30202BEED0212BF2D16101103129445C
:10120C002846FFF7DBFEEBE738BD000008B50B4BBB
:10121C0004221A730A4A1A604FF440725A6005216C
:10122C001977084919615A61062183F82C1006496F
:10123C0019625A6200F0E8FA08BD00BFE40A002007
:10124C0034060020340300203400002008B5064B7F
:10125C0093F8303003B908BD034B012283F83120D9
:10126C0000F0E0FAF7E700BFE40A002070B42E4E5D
:10127C00B45CF55C9DF80C30F25C01EB4103E4438B
:10128C00ED43D243294901EB031101F1614101F511
:10129C0080114E01830003EB4113E90946F820103D
:1012AC00A90919646909C3F880102909C3F8C01089
:1012BC00E908C3F80011A908C3F840116908C3F87C
:1012CC008011C3F8C051E109C3F80012A109C3F899
:1012DC0040126109C3F880122109C3F8C012E10859
:1012EC00C3F80013A108C3F840136108C3F88013B6
:1012FC00C3F8C043D109C3F800149109C3F84014D2
:10130C005109C3F880141109C3F8C014D108C3F8EB
:10131C0000159108C3F840155108C3F88015C3F89F
:10132C00C02570BC704700BF483C0008840A0020F0
:10133C0070B582B005688468631C83602A5DA61C46
:10134C008660EB5C03348460AD5D4668B44206D0C5
:10135C00009589B2007BFFF789FF02B070BD0024B5
:10136C008460F5E7244B02221A61244A936B013303
:10137C009363B3F5C07F02D010B5002436E013465A
:10138C0000229A631E4A1168CB6843F00103CB60BC
:10139C001C4B19680B6823F001030B601A4B19687E
:1013AC000B6823F001030B60184B19680B6823F0D2
:1013BC0001030B601368DA6822F48072DA60DA6871
:1013CC0022F40072DA60DA6822F48062DA60104B80
:1013DC001A68094B1A61084B02225A6170470121A5
:1013EC00064800EB0410FFF7A3FF0134022CF6D9DA
:1013FC00014B02225A6110BD00080140E40A002092
:10140C003C0A0020BC090020780900203409002087
:10141C000000002038B50025284B83F830500CE034
:10142C00264C04EB05140021A1602046FFF780FF39
:10143C0001212046FFF77CFF0135022DF0D9204B0E
:10144C00E0225A604FF460225A604FF060625A609A
:10145C001C4B1B6830225A601B4C21684A601B488D
:10146C0001684A601A490A686FF01F0515611A680D
:10147C0042F001021A602268136843F00103136002
:10148C000268136843F0010313600B68DA6842F4D6
:10149C008072DA60DA6842F40072DA60DA6842F478
:1014AC008062DA600B4A1268013A4FF080414A625E
:1014BC001A6842F001021A6038BD00BFE40A00202D
:1014CC0000000240BC0900207809002034090020EB
:1014DC003C0A0020000A002010B582B0104B0122FB
:1014EC001A61104B9A6B40F27F139A420FD0002472
:1014FC0006E000210B4800EB0410FFF719FF013444
:10150C00022CF6D9064B01225A6102B010BD002004
:10151C000090034602460146FFF7A8FEF2E700BF23
:10152C0000080140E40A0020F0B587B0134B9A691B
:10153C0042F004029A619B6903F004030193019B3E
:10154C007023029301250395002704970226059624
:10155C000B4C02A9204600F0FFFF039504970323D0
:10156C000593029502A9204600F0F6FF029602A907
:10157C00204600F0F1FF07B0F0BD00BF00100240A4
:10158C00000801402DE9F04F83B0344B5A6942F00A
:10159C0001025A615B6903F001030193019B304C1A
:1015AC004FF01009C4F804900025A560E5604FF4D5
:1015BC000078C4F810804FF4006BC4F814B02027E6
:1015CC00A7614FF44056E661264B2360204600F09D
:1015DC0095FCDFF894A0302352462449204600F0B5
:1015EC00C3FC234CC4F80490A5608023E360C4F8CA
:1015FC0010804FF480636361A761E6611D4B23602B
:10160C00204600F07BFC30231B4A1C49204600F08E
:10161C00ABFC1B4CC4F80490A560E560C4F81080CA
:10162C00C4F814B0A761E661164B2360204600F0A5
:10163C0065FC154BA362154BE3622A462946112023
:10164C0000F014FC112000F021FC3023524610490C
:10165C00204600F0B2FC03B0BDE8F08F0010024051
:10166C00BC0900201C0002401008014004000020AE
:10167C00780900205800024014080140840A002018
:10168C00340900208000024071130008E5140008A2
:10169C00000000202DE9F04182B02B4BDA6942F0BA
:1016AC000102DA61DB6903F001030193019B274B13
:1016BC001B681B0A264AA2FB03231B09254A13603D
:1016CC0003EB83014A00244FA7FB0217FF082349B1
:1016DC00A1FB0212D608224D4FF080422A60EB602B
:1016EC0000246C616C602C61AC60284601F072FDCA
:1016FC00224621461C2000F0B9FB1C2000F0C6FB42
:10170C0018494FF06008C1F800808C604F60CC60C5
:10171C000C612246284601F0B7FD1349C1F8008040
:10172C008C604E60CC600C614C618C61042228464C
:10173C0001F0AAFD284601F029FC2146284601F0BB
:10174C0021FE02B0BDE8F081001002401000002024
:10175C00598B4F01000A0020398EE338898888881C
:10176C003C0A0020200A0020040A002008B5024888
:10177C0000F0CEFC08BD00BFBC09002008B5024833
:10178C0000F0C6FC08BD00BF7809002008B502486F
:10179C0000F0BEFC08BD00BF3409002008B50248AB
:1017AC0001F027FC08BD00BF3C0A0020144B5B6B0A
:1017BC000B2B03D80133124A53637047104B002292
:1017CC005A63104B1B68196A41F21112114208D16D
:1017DC00196A40F24442114203D11A6822F0010204
:1017EC001A604FF0804300221A60064B1A68D368C7
:1017FC0023F00103D360024B012283F830207047A1
:10180C00E40A00203C0A002008B5FFF78DFEFFF724
:10181C00B9FEFFF73FFF024B012283F8302008BDD1
:10182C00E40A002008B5064B93F8313003B908BD23
:10183C00034B002283F83120FFF7ECFDF7E700BFE4
:10184C00E40A002030B587B0002402940394049479
:10185C000594144B9A6942F010029A619A6902F04D
:10186C0010020092009A9A6942F004029A619B69F4
:10187C0003F004030193019B0B4D22464FF40051DE
:10188C00284600F077FF4FF4005302930123039393
:10189C0004940223059302A9284600F05DFE07B0CC
:1018AC0030BD00BF001002400010014008B50146D9
:1018BC000348FFF767F9034B01221A7008BD00BFFC
:1018CC008C0D0020210B002008B500F077FA024B9C
:1018DC0001221A7008BD00BF200B002072B6FEE773
:1018EC0008B50A480A4B03604FF4E1234360002318
:1018FC008360C36003610C2242618361C36101F0A8
:10190C009CFE00B908BDFFF7E9FF00BF702800205E
:10191C000044004000B591B02822002106A802F036
:10192C0054F9002301930293039304930593022328
:10193C00069301220A9210220B920D934FF460131E
:10194C000F9306A800F098FF80B90F230193022192
:10195C000291002303934FF480620492059301A833
:10196C0001F0BCF920B911B05DF804FBFFF7B6FF2C
:10197C00FFF7B4FF80B58AB000F00EFAFFF7CAFF8C
:10198C00FFF760FFFFF7ACFFC34DC44C01222946A3
:10199C00204602F0D0F84FF47A730622C049204654
:1019AC0001F07BFEFFF732FC8023BE4ABE49BF48E4
:1019BC00FFF7BDF93023BE4ABE49BF48FFF7B7F960
:1019CC003023BE4ABE49BF48FFF7B1F93221BE48A9
:1019DC00FFF775F81421BD48FFF771F84FF47A71D1
:1019EC00BB48FFF76CF801234B224121B948FEF7A5
:1019FC002FFF21462846FFF78AF82021B648FEF72C
:101A0C0000FF002800F0AF8020230022B249B34829
:101A1C00FEF7DFFE2021B248FEF7F3FE002800F0AF
:101A2C00AB8020230022AE49AE48FEF7D2FEAB4C71
:101A3C009E4F6D4604F10C060FCE0FC533682B601C
:101A4C0094E80E003846FFF749FA9B4E6D4604F1B8
:101A5C000C0CBCE80F000FC5DCF800302B6094E8D0
:101A6C000E003046FFF73AFA964DEC4604F10C0E98
:101A7C00BEE80F00ACE80F00DEF80030CCF8003008
:101A8C0094E80E002846FFF729FA964CEC4604F130
:101A9C000C0EBEE80F00ACE80F00DEF80030CCF8FE
:101AAC00003094E80E003846FFF718FAEC4604F1C3
:101ABC000C0EBEE80F00ACE80F00DEF80030CCF8DE
:101ACC00003094E80E003046FFF708FAEC4604F1BB
:101ADC000C0EBEE80F00ACE80F00DEF80030CCF8BE
:101AEC00003094E80E002846FFF7F8F90820FEF7BE
:101AFC00A9FD8DF81C00C0F307238DF81D30C0F331
:101B0C0007408DF81E0007993846FFF781F9082029
:101B1C00FEF798FD8DF82000C0F307238DF82130D7
:101B2C00C0F307408DF8220008993046FFF770F992
:101B3C000820FEF787FD8DF82400C0F307238DF8ED
:101B4C002530C0F307408DF8260009992846FFF789
:101B5C005FF93846FFF71CF93046FFF719F92846AC
:101B6C00FFF716F935E0502300933C230122642142
:101B7C005A48FFF766F94DE74FF448730093C823B2
:101B8C0001224FF47A715748FFF790F94FE74F480D
:101B9C00FEF79CFF4C48FEF799FF4448FFF716FBF5
:101BAC004548FFF713FB4748FFF710FB4E4B00224D
:101BBC001A703948FFF7B2F830BB4348FEF791FF73
:101BCC00002840F0A3804148FEF78BFF002840F02E
:101BDC00A180454B1B78002BEBD0444A536A013350
:101BEC005362127C1AB14148C1690131C161002AAA
:101BFC00CDD0052BCBDD284800F5805300221A6090
:101C0C00DA61FEF779FFC2E739492348FEF7E4FFB2
:101C1C0020B3374B5B88013B032B1FD8DFE803F065
:101C2C0002366C71324D214C29462046FEF719FEC6
:101C3C0029462148FEF715FE29462248FEF711FEDB
:101C4C0020230022244904F11000FEF777FD202305
:101C5C000022234904F13000FEF770FD0E48FFF717
:101C6C0061F84FF40051234800F08AFD0B492048DD
:101C7C00FFF701F80D48FFF78BF80F48FFF788F8CE
:101C8C001048FFF785F8FFF7E1FA96E7184907487F
:101C9C00FEF7E7FDE2E700BF8C0D00207028002066
:101CAC00483D0008D022002034060020F8260020F1
:101CBC005021002034030020A4250020D01F002038
:101CCC0034000020502400206428002058280020D4
:101CDC004C280020780D002000500008580D0020E2
:101CEC0000550008380D0020200B00208C1D002012
:101CFC00240B0020001001400E490F48FEF7B1FDE7
:101D0C00ACE70C490D48FEF7ACFDA7E70C48FEF715
:101D1C00EFFE58E70B48FFF73BF80748FFF738F89A
:101D2C000648FFF735F8FFF791FA0748FEF7E0FE93
:101D3C004FE700BF240B0020A425002050240020D6
:101D4C0064280020F82600205828002010B50446EE
:101D5C000E4B1A784FF47A73B3FBF2F30C4A1068FB
:101D6C00B0FBF3F000F0A0F868B90F2C01D90120FA
:101D7C000AE0002221464FF0FF3000F077F8054BC7
:101D8C001C60002000E0012010BD00BF08000020F6
:101D9C00100000200C00002008B5074A136843F01F
:101DAC0010031360032000F04FF80F20FFF7CEFF55
:101DBC0000F0F0FC002008BD00200240034A11682E
:101DCC00034B1B780B441360704700BFB8280020EE
:101DDC0008000020014B1868704700BFB82800208D
:101DEC00002808DB0901C9B200F1604000F5614030
:101DFC0080F80013704700F00F000901C9B2014BC5
:101E0C001954704714ED00E000B500F00700C0F164
:101E1C00070CBCF1040F28BF4FF0040C031D062B5C
:101E2C000FD9C31E4FF0FF3E0EFA0CF021EA000151
:101E3C0099400EFA03FE22EA0E0241EA02005DF816
:101E4C0004FB0023EEE70000074AD36823F4E063A9
:101E5C001B041B0C000200F4E060034343F0BF635F
:101E6C0043F40033D360704700ED00E010B5044636
:101E7C00054BD868C0F30220FFF7C6FF0146204689
:101E8C00FFF7AEFF10BD00BF00ED00E0002807DB40
:101E9C0000F01F02400901239340024A42F820300F
:101EAC00704700BF00E100E00138B0F1807F0BD239
:101EBC004FF0E0235861054AF02182F823100020EE
:101ECC00986107221A6170470120704700ED00E00D
:101EDC0030B40124056CAC40C56B6C600468636065
:101EEC004368102B05D0036899600368DA6030BC36
:101EFC00704703689A600368D960F8E760B310B460
:101F0C0002460168154B0B441548A0FB03031B0943
:101F1C009B001364134BD363022382F821300868AF
:101F2C0020F47F5020F03000536894682343D46829
:101F3C002343146923435469234394692343D46989
:101F4C00234303430B6000209063012382F821306C
:101F5C0082F8200010BC704701207047F8FFFDBFCD
:101F6C00CDCCCCCC0000024070B5044690F82000DB
:101F7C00012820D0012084F8200094F82100C0B260
:101F8C00012804D0002384F82030022070BD0220E8
:101F9C0084F821000025A5632668306820F0010034
:101FAC0030602046FFF794FF2268136843F001036A
:101FBC0013602846EAE70220E8E738B5044690F8B3
:101FCC002000012832D0012084F8200094F8210050
:101FDC00C0B2012804D0002384F82030022038BD80
:101FEC00022084F821000020A0632568286820F0D6
:101FFC00010028602046FFF76BFFE36A5BB12268A3
:10200C00136843F00E0313602268136843F0010356
:10201C0013600020E3E72268136823F004031360C5
:10202C002268136843F00A031360EDE70220D6E739
:10203C00034690F82120D2B2022A06D004228263F1
:10204C00002280F820200120704701680A6822F0E5
:10205C000E020A6001680A6822F001020A60026C32
:10206C00C06B012101FA02F2426083F821100020BA
:10207C0083F820007047000008B590F82130DBB2DF
:10208C00022B03D004238363012008BD026813686C
:10209C0023F00E0313600268136823F0010313602E
:1020AC000368194A934214D0143293421FD014324D
:1020BC0093421ED0143293421ED0143293421ED03F
:1020CC001432934202D04FF0807203E04FF480122E
:1020DC0000E001220D4B5A60012380F821300023CF
:1020EC0080F82030436B6BB198470020CDE710226D
:1020FC00F0E74FF48072EDE74FF48052EAE74FF4CB
:10210C008032E7E70020C0E70800024000000240F0
:10211C0038B5C36B1A6804682568016C04238B40BE
:10212C00134235D015F0040F32D0236813F0200F72
:10213C0003D1236823F0040323600368434A9342CA
:10214C0014D01432934218D01432934217D0143254
:10215C00934217D01432934217D01432934202D0C8
:10216C004FF0806203E04FF4800200E00422384B11
:10217C005A60C36A03B1984738BD4022F7E74FF461
:10218C008062F4E74FF48042F1E74FF48022EEE7EF
:10219C0002238B4013423CD015F0020F39D0236838
:1021AC0013F0200F06D1236823F00A0323600123C8
:1021BC0080F821300368254A934214D0143293429C
:1021CC001CD0143293421BD0143293421BD01432C5
:1021DC0093421BD01432934202D04FF0007203E0B2
:1021EC004FF4001200E00222194B5A60002380F8D1
:1021FC002030836A002BBFD09847BDE72022F3E73D
:10220C004FF40072F0E74FF40052EDE74FF4003258
:10221C00EAE708238B401342AED015F0080FABD081
:10222C00236823F00E032360026CC16B012303FAB5
:10223C0002F24A60836380F82130002380F820305A
:10224C00036B002B98D0984796E700BF080002401C
:10225C0000000240044B0022DA61044A136943F087
:10226C000103136101807047C02800200020024048
:10227C00194BDB6813F0100305D0184AD36943F0EF
:10228C000203D3611023144AD26812F0040F06D053
:10229C001249CA6942F00102CA6143F004030E4AB2
:1022AC00D26912F0010F09D00C49CA6942F004023C
:1022BC00CA610949CA6922F00102CA6140F20112DD
:1022CC00934202D0044AD3607047034AD36923F087
:1022DC000103D361704700BF00200240C0280020DA
:1022EC000A4B1B6913F0800F0BD0084B084A5A603D
:1022FC0002F188325A601B6913F0800F03D1002061
:10230C007047002070470120704700BF002002403A
:10231C0023016745034A136943F0800313610020CE
:10232C00704700BF00200240074B1B6913F4007F6D
:10233C0007D1054B054A9A6002F188329A60002059
:10234C0070470120704700BF002002402301674501
:10235C00034A136923F4007313610020704700BF14
:10236C000020024038B50446FFF734FD0546164BF5
:10237C00DB6813F0010F0AD0B4F1FF3FF7D024B1A2
:10238C00FFF728FD401BA042F1D903201BE00E4BA8
:10239C00DB6813F0200F02D00B4B2022DA600A4BC3
:1023AC00DB6813F0100F0BD1074BDB6913F0010F37
:1023BC0006D1054BDB6813F0040F01D1002002E0BD
:1023CC00FFF756FF012038BD002002402DE9F843ED
:1023DC001E46244B1B7E012B41D004460F469046D3
:1023EC00204B01221A764CF25030FFF7BBFF03460C
:1023FC0078BB012C08D0022C03D04FF004091C46EA
:10240C0007E04FF00209FAE74FF00109F7E7013452
:10241C00E4B24C451DD22101C1F12002A1F12003EF
:10242C0028FA01F106FA02F2114326FA03F31943D2
:10243C0089B207EB4400FFF70DFF4CF25030FFF769
:10244C0091FF094B1D6925F001051D61034600280C
:10245C00DDD0044A002111761846BDE8F88302232A
:10246C00FAE700BFC028002000200240064B0022E3
:10247C00DA61064B1A6942F004021A611A6942F0D9
:10248C0040021A61704700BFC028002000200240A3
:10249C00064B0022DA61064B1A6942F002021A61FD
:1024AC0058611A6942F040021A617047C028002036
:1024BC0000200240264B1B7E012B46D070B50546F2
:1024CC000E46234B01221A760368022B20D04CF2C5
:1024DC005030FFF747FF90BB4FF0FF333360AC68D1
:1024EC000121EA68AB6803EB8223A34228D920467A
:1024FC00FFF7CEFF4CF25030FFF734FF154A13694B
:10250C0023F0020313610146B8B904F58064E8E7CF
:10251C004CF25030FFF726FF08B1012110E00120EA
:10252C00FFF7A4FF4CF25030FFF71CFF0146094A9D
:10253C00136923F00403136102E0346000E001210D
:10254C00034B00221A76084670BD022108467047DC
:10255C00C02800200020024070B582B00024A446A0
:10256C00A2E07E4DAB4210D007D97D4DAB420CD0D2
:10257C0005F58035AB4208D013E0A5F58015AB42CC
:10258C0003D005F57025AB4207D18B68002B55D0D5
:10259C00012B4ED04261082403E0A5F58015AB4217
:1025AC00F3D0BEF1FF0F4BD806464FEA8C023368CE
:1025BC000F25954023EA050304FA02F21343336016
:1025CC004B6813F0805F6DD0664B9A6942F0010244
:1025DC009A619B6903F001030193019B4FEA9C02F2
:1025EC00951C614B53F825600CF00305AD000F23CF
:1025FC00AB4026EA03065D4B984228D003F5806376
:10260C00984200F08D8003F58063984200F08A8038
:10261C0003F58063984218D0042319E0CC68C0E716
:10262C00CC680434BDE7CC680834BAE7CC680C3409
:10263C00B7E702610824B4E70024B2E70424B0E74A
:10264C00061DACF108029200B1E7032300E0002361
:10265C00AB4033430232444D45F822304B6813F4FF
:10266C00801F61D0424A936843EA0E0393604B6823
:10267C0013F4001F5ED03E4AD36843EA0E03D360C6
:10268C004B6813F4003F5BD0394A536843EA0E039E
:10269C0053604B6813F4803F58D0354A136843EAB3
:1026AC000E0313600CF1010C0B6833FA0CF253D0CF
:1026BC00012202FA0CF203EA020E32EA0303F1D110
:1026CC004B68122B3FF64DAF122B3FF66AAF01A5AC
:1026DC0055F823F097250008292600083326000812
:1026EC0045260008AF250008AF250008AF250008D7
:1026FC00AF250008AF250008AF250008AF2500085E
:10270C00AF250008AF250008AF250008AF2500084D
:10271C00AF250008AF2500082D2600083926000833
:10272C00012395E7022393E7114A936823EA0E03EA
:10273C0093609CE70E4AD36823EA0E03D3609FE7AD
:10274C000B4A536823EA0E035360A2E7084A136846
:10275C0023EA0E031360A5E702B070BD000022103F
:10276C000000311000100240000001400008014040
:10277C00000401400AB1016170470904016170470E
:10278C00C36801EA030221EA030141EA0241016143
:10279C007047000082B00A4B9A6942F001029A61BC
:1027AC009A6902F001020092009ADA6942F08052B2
:1027BC00DA61DB6903F080530193019B02B070472F
:1027CC000010024030B587B00023029303930493AA
:1027DC00059302681B4B9A4201D007B030BD03F53C
:1027EC00E633DA6942F40032DA61DA6902F4003273
:1027FC000092009A9A6942F004029A619B6903F074
:10280C0004030193019B04230293022303930323E8
:10281C0005930D4D02A92846FFF79EFE082302934F
:10282C000024039404940DEB03012846FFF794FE57
:10283C00224621462620FFF719FB2620FFF726FB10
:10284C00CBE700BF004400400008014082B0084BB9
:10285C001B68084AA2FB03235B0A00FB03F30193EA
:10286C0000BF019B5A1E0192002BF9D102B0704798
:10287C0010000020D34D6210002800F0F18170B5DB
:10288C0082B00446036813F0010F2CD0994B5B689F
:10289C0003F00C03042B1DD0964B5B6803F00C0368
:1028AC00082B12D06368B3F5803F41D0002B55D173
:1028BC0003F1804303F504331A6822F480321A6062
:1028CC001A6822F480221A6037E08A4B5B6813F492
:1028DC00803FE7D0874B1B6813F4003F03D063683D
:1028EC00002B00F0BF81236813F0020F75D0814BD1
:1028FC005B6813F00C0F5FD07E4B5B6803F00C032E
:10290C00082B54D02369002B00F08A807A4B0122CB
:10291C001A60FFF75FFA0546764B1B6813F0020F3F
:10292C0075D1FFF757FA401B0228F5D903209EE119
:10293C00704A136843F480331360636843B3FFF742
:10294C0049FA05466B4B1B6813F4003FCBD1FFF7DC
:10295C0041FA401B6428F5D9032088E1B3F5A02F78
:10296C0009D0644B1A6822F480321A601A6822F477
:10297C0080221A60E1E703F18043A3F53C331A6827
:10298C0042F480221A601A6842F480321A60D4E74A
:10299C00FFF720FA0546574B1B6813F4003FA2D0F3
:1029AC00FFF718FA401B6428F5D903205FE1514B5F
:1029BC005B6813F4803FA5D14E4B1B6813F0020FDC
:1029CC0003D02369012B40F04F814A4A136823F04E
:1029DC00F803616943EAC1031360236813F0080F1D
:1029EC0033D0A369002B5CD0434B0122C3F8802465
:1029FC00FFF7F0F905463F4B5B6A13F0020F21D14C
:102A0C00FFF7E8F9401B0228F5D903202FE1394ADA
:102A1C00136823F0F803616943EAC1031360DCE730
:102A2C00354B00221A60FFF7D5F90546314B1B6870
:102A3C0013F0020FD1D0FFF7CDF9401B0228F5D9C6
:102A4C00032014E10120FFF701FF236813F0040FAA
:102A5C0000F09680274BDB6913F0805F34D1254B57
:102A6C00DA6942F08052DA61DB6903F0805301933A
:102A7C00019B0125214B1B6813F4807F26D0E36852
:102A8C00012B3DD0002B53D103F1804303F50433CC
:102A9C001A6A22F001021A621A6A22F004021A62FD
:102AAC0033E0154B0022C3F88024FFF793F9054659
:102ABC00104B5B6A13F0020FC7D0FFF78BF9401B6A
:102ACC000228F5D90320D2E00025D3E70B4A13687E
:102ADC0043F480731360FFF77DF90646074B1B68C0
:102AEC0013F4807FCBD1FFF775F9801B6428F5D9DF
:102AFC000320BCE000100240000042420070004085
:102B0C005F4A136A43F001031362E36833B3FFF7C0
:102B1C0061F906465A4B1B6A13F0020F2FD1FFF7CF
:102B2C0059F9801B41F288339842F3D903209EE077
:102B3C00052B09D0524B1A6A22F001021A621A6A4A
:102B4C0022F004021A62E0E74D4B1A6A42F00402CA
:102B5C001A621A6A42F001021A62D6E7FFF73AF9D2
:102B6C000646474B1B6A13F0020F08D0FFF732F9E9
:102B7C00801B41F288339842F3D9032077E0E5B902
:102B8C00E369002B72D03E4A526802F00C02082A0C
:102B9C0056D0022B17D03B4B00221A66FFF71AF9BE
:102BAC000446374B1B6813F0007F47D0FFF712F930
:102BBC00001B0228F5D9032059E0314AD36923F0D0
:102BCC008053D361DCE72F4B00221A66FFF702F922
:102BDC0005462B4B1B6813F0007F06D0FFF7FAF865
:102BEC00401B0228F5D9032041E0236AB3F5803F4E
:102BFC001AD023494B6823F47413226A606A024387
:102C0C0013434B601F4B01221A66FFF7E3F804468F
:102C1C001B4B1B6813F0007F0ED1FFF7DBF8001B7A
:102C2C000228F5D9032022E0154A536823F4003317
:102C3C00A1680B435360DCE7002018E0002016E08D
:102C4C00012B16D00E4B5B6803F48031226A914243
:102C5C0011D103F47013626A93420ED1002006E086
:102C6C0001207047012002E0012000E0002002B0AA
:102C7C0070BD0120FBE70120F9E70120F7E700BF59
:102C8C0000100240000042420F4B5B6803F00C0244
:102C9C00082A01D00D487047C3F383420C49885C65
:102CAC0013F4803F0BD0084B5B68C3F34043094AD5
:102CBC00D35C064A02FB00F0B0FBF3F07047064B06
:102CCC0003FB00F0704700BF0010024000127A00B6
:102CDC00543D0008503D000800093D00002800F05C
:102CEC00A08070B50D460446524B1B6803F00703D9
:102CFC008B420BD24F4A136823F007030B4313602C
:102D0C00136803F007038B4240F08D80236813F0A7
:102D1C00020F17D013F0040F04D0474A536843F442
:102D2C00E0635360236813F0080F04D0424A5368E1
:102D3C0043F460535360404A536823F0F003A16896
:102D4C000B435360236813F0010F31D06368012BE0
:102D5C0020D0022B25D0384A126812F0020F64D012
:102D6C0035494A6822F0030213434B60FFF732F8EF
:102D7C000646314B5B6803F00C036268B3EB820FC1
:102D8C0016D0FFF727F8801B41F288339842F0D910
:102D9C00032045E0284A126812F4003FE0D10120DC
:102DAC003EE0254A126812F0007FD9D1012037E0AD
:102DBC00204B1B6803F00703AB420AD91D4A13686A
:102DCC0023F007032B431360136803F00703AB4294
:102DDC002DD1236813F0040F06D0174A536823F43F
:102DEC00E063E1680B435360236813F0080F07D0CE
:102DFC00114A536823F46053216943EAC1035360B9
:102E0C00FFF742FF0C4B5B68C3F303130B4AD35C15
:102E1C00D8400B4B18600B4B1868FEF797FF00203F
:102E2C0070BD012070470120FAE70120F8E701206E
:102E3C00F6E700BF00200240001002406C3D000885
:102E4C00100000200C000020014B1868704700BFD8
:102E5C001000002008B5FFF7F7FF044B5B68C3F3C5
:102E6C000223034AD35CD84008BD00BF00100240C7
:102E7C00643D000808B5FFF7E7FF044B5B68C3F33C
:102E8C00C223034AD35CD84008BD00BF00100240E7
:102E9C00643D000830B4026A036A23F00103036244
:102EAC004568836923F073030C681C4322F002020B
:102EBC008B6813430B4A904206D0456084614A6884
:102ECC004263036230BC704723F00803CA681A439C
:102EDC0022F0040325F440754A692A438D69154391
:102EEC00EBE700BF002C014030B4036A026A22F405
:102EFC00807202624468C26922F073020D68154345
:102F0C0023F400738A6843EA02230D4A904206D0E8
:102F1C004460C5614A68C263036230BC704723F4E5
:102F2C000063CA6843EA022323F4806324F4405408
:102F3C004A6944EA02148A6944EA0214E8E700BFC9
:102F4C00002C014030B4036A026A22F480520262FF
:102F5C004468C26922F4E6420D6842EA052223F471
:102F6C0000538D6843EA0533074DA84206D04460F0
:102F7C00C2614A680264036230BC704724F4804426
:102F8C004D6944EA8514F2E7002C014090F83D307D
:102F9C00DBB2012B22D1022380F83D300368114AA9
:102FAC00934210D0B3F1804F0DD0A2F594329342DE
:102FBC0009D002F58062934205D01A6842F00102F2
:102FCC001A60002070479A6802F00702062A07D0A0
:102FDC001A6842F001021A60002070470120704705
:102FEC0000207047002C01407047704770477047B5
:102FFC00704770B504460368DE681D6915F0020F52
:10300C0010D016F0020F0DD06FF002021A610123DE
:10301C00037703689B6913F0030F5ED0FFF7E6FF9D
:10302C000023237715F0040F12D016F0040F0FD0E5
:10303C0023686FF004021A610223237723689B69CB
:10304C0013F4407F4FD02046FFF7D0FF00232377A7
:10305C0015F0080F12D016F0080F0FD023686FF080
:10306C0008021A61042323772368DB6913F0030F2A
:10307C0040D02046FFF7BAFF0023237715F0100F3E
:10308C0012D016F0100F0FD023686FF010021A61D7
:10309C00082323772368DB6913F4407F31D0204663
:1030AC00FFF7A4FF0023237715F0010F02D016F0D1
:1030BC00010F2DD115F0800F02D016F0800F2FD1FB
:1030CC0015F0400F02D016F0400F31D115F0200F43
:1030DC0002D016F0200F33D170BDFFF786FF2046CB
:1030EC00FFF785FF9CE72046FFF77FFF2046FFF7A1
:1030FC007EFFABE72046FFF778FF2046FFF777FF10
:10310C00BAE72046FFF771FF2046FFF770FFC9E7CB
:10311C0023686FF001021A612046FEF747FBC9E7EE
:10312C0023686FF080021A61204600F09AF9C7E715
:10313C0023686FF040021A612046FFF759FFC5E77C
:10314C0023686FF020021A61204600F089F9C3E76A
:10315C0003681F4A90420AD0B0F1804F07D0A2F505
:10316C009432904203D002F58062904203D123F056
:10317C0070034A681343164A90420AD0B0F1804F4C
:10318C0007D0A2F59432904203D002F580629042AF
:10319C0003D123F44073CA68134323F080034A69B4
:1031AC00134303608B68C3620B688362084B9842BD
:1031BC000AD001234361036913F0010F03D00369A3
:1031CC0023F00103036170470B690363F1E700BF50
:1031DC00002C014040B310B5044690F83D30F3B1DB
:1031EC00022384F83D30214651F8040BFFF7B0FF61
:1031FC00012384F8463084F83E3084F83F3084F85C
:10320C00403084F8413084F8423084F8433084F8FC
:10321C00443084F8453084F83D30002010BD80F8EF
:10322C003C30FFF7E1FEDBE70120704730B4036A66
:10323C00026A22F0100202624468826922F4E642B9
:10324C000D6842EA052223F020038D6843EA05133A
:10325C000C4DA84206D0446082614A6882630362C6
:10326C0030BC704723F08003CD6843EA051323F08C
:10327C00400324F440644D6944EA85048D6944EAB2
:10328C008504E8E7002C014038B590F83C30012B60
:10329C0066D004460D46012380F83C300C2A5AD8DF
:1032AC00DFE802F0075959591B59595930595959E6
:1032BC0044000068FFF7EEFD2268936943F00803B1
:1032CC0093612268936923F00403936122689369E4
:1032DC0029690B43936100203EE00068FFF7A6FFCD
:1032EC002268936943F4006393612268936923F421
:1032FC008063936122689369296943EA012393618E
:10330C00002029E00068FFF7EFFD2268D36943F045
:10331C000803D3612268D36923F00403D3612268C4
:10332C00D36929690B43D361002015E00068FFF7CE
:10333C0009FE2268D36943F40063D3612268D36920
:10334C0023F48063D3612268D369296943EA01239A
:10335C00D361002000E00120002384F83C3038BD0C
:10336C000220FCE701F01F014FF0010C0CFA01FCEC
:10337C00036A23EA0C030362036A8A401343036261
:10338C007047000010B50446084651BB94F83E3017
:10339C00DBB2013B18BF0123002B5BD1002839D1D4
:1033AC00022384F83E30012201462068FFF7DAFF41
:1033BC0023682A4A93423DD02368284A93423ED040
:1033CC00B3F1804F3BD0A2F59432934237D002F543
:1033DC008062934233D01A6842F001021A600020D6
:1033EC0039E0042908D008290DD094F84130DBB21B
:1033FC00013B18BF0123CFE794F83F30DBB2013B10
:10340C0018BF0123C8E794F84030DBB2013B18BF6A
:10341C000123C1E7042805D0082807D0022384F82B
:10342C004130C0E7022384F83F30BCE7022384F824
:10343C004030B8E75A6C42F400425A64BCE79A68D0
:10344C0002F00702062A07D01A6842F001021A603D
:10345C00002000E0012010BD0020FCE7002C014002
:10346C0070477047026802F10C0353E8003F23F4E5
:10347C0090730C3242E800310029F3D1026802F15A
:10348C00140353E8003F23F00103143242E80031E7
:10349C000029F3D1036B012B05D0202380F8423097
:1034AC00002303637047026802F10C0353E8003FEA
:1034BC0023F010030C3242E800310029F3D1ECE781
:1034CC0090F84130DBB2212B01D002207047836889
:1034DC00B3F5805F17D0036A5A1C02621A7803682E
:1034EC005A60C38C9BB2013B9BB2C3844BB902683C
:1034FC00D36823F08003D3600268D36843F04003A1
:10350C00D360002070470369002BE4D1036A1B8849
:10351C000268C3F308035360036A02330362E0E7F3
:10352C0010B504460268136923F44053C1680B4379
:10353C00136183680269134342691A430168CB68BB
:10354C0023F4B05323F00C031343CB60026853698C
:10355C0023F4407381690B4353610268134B9A4205
:10356C0020D0FFF777FC024602EB820202EB8202CC
:10357C0063689B00B2FBF3F20D48A0FB02314909D2
:10358C00642303FB11231B013233A0FB03035B09F0
:10359C0003F0F00202EB011203F00F032168134455
:1035AC008B6010BDFFF766FC0246DDE7003801407A
:1035BC001F85EB512DE9F04383B005460E461746A7
:1035CC009946DDF828802B681C6836EA04040CBF89
:1035DC0001240024BC4228D1B8F1FF3FF3D0FEF700
:1035EC00F9FBA0EB0900404523D8B8F1000F22D01D
:1035FC002B68DA6812F0040FE5D0802EE3D0402E51
:10360C00E1D01A6812F0080FDDD0002401941A687A
:10361C0001925B680193019B2846FFF723FF082367
:10362C006B6485F84040012000E0002003B0BDE849
:10363C00F0830320FAE70320F8E760B310B50446E3
:10364C0090F8413013B3242384F841302268D368B6
:10365C0023F40053D3602046FFF762FF22681369FE
:10366C0023F4904313612268536923F02A035361B6
:10367C002268D36843F40053D36000206064202395
:10368C0084F8413084F84230606310BD80F84030DB
:10369C00FFF798F8D7E7012070472DE9F04182B089
:1036AC001E4690F84130DBB2202B56D104460D4615
:1036BC009046002955D00AB901204FE000234364FD
:1036CC00212380F84130FEF785FB0746A4F82480BF
:1036DC00A4F82680A368B3F5805F02D04FF00008F1
:1036EC0014E023692BB34FF000080FE0202384F87B
:1036FC004130032032E038F8023B2268C3F3080360
:10370C005360E28C92B2013A92B2E284E38C9BB2A7
:10371C0093B100963B46002280212046FFF74AFFDA
:10372C000028E3D1002DE6D015F8012B23685A6050
:10373C00E7E7A8460025E9E700963B460022402132
:10374C002046FFF737FF18B9202384F8413005E0F5
:10375C00202384F84130032000E0022002B0BDE8B1
:10376C00F0810120FAE7704708B50168CA6822F0B9
:10377C004002CA60202280F84120FFF7F4FF0020AD
:10378C0008BD704708B5406A0023C385C384FFF7A2
:10379C00F8FF08BD704790F84230DBB2222B69D19C
:1037AC008368B3F5805F4FD0826AB3F5805F04D035
:1037BC00002B56D10369002B53D103685B6813703F
:1037CC00836A01338362C38D9BB2013B9BB2C38579
:1037DC00002B51D100B583B00268D36823F02003CD
:1037EC00D3600268D36823F48073D3600268536992
:1037FC0023F001035361202380F8423000234363FC
:10380C00036B012B33D100230363026802F10C0319
:10381C0053E8003F23F010030C3242E8003100293A
:10382C00F3D103681A6812F0100F06D0002201922F
:10383C001A6801925B680193019B818DFFF7AAFFC7
:10384C00002003B05DF804FB0269002AACD1826A47
:10385C0003685B68C3F308031380836A02338362D3
:10386C00B1E703685B6803F07F031370A8E7FEF70A
:10387C001DF8E5E7022070470020704710B582B0B4
:10388C00044602681368D068516913F00F0F09D110
:10389C0013F0200F0CD010F0200F09D02046FFF7AA
:1038AC007AFF16E011F0010115D110F4907F12D1BE
:1038BC00216B012979D013F0800F03D010F0800F09
:1038CC0040F0138113F0400F03D010F0400F40F084
:1038DC00108102B010BD13F0010F06D010F4807FE0
:1038EC0003D0626C42F00102626413F0040F04D046
:1038FC0019B1626C42F00202626413F0020F04D040
:10390C0019B1626C42F00402626413F0080F07D024
:10391C0010F0200F00D119B1626C42F00802626401
:10392C00626C002AD5D013F0200F02D010F0200FBB
:10393C0029D123685B6903F04003626C12F0080F15
:10394C0000D163B32046FFF78DFD23685B6913F04C
:10395C00400F20D0226802F1140353E8003F23F0FB
:10396C004003143242E800310029F3D1E36B73B108
:10397C00624A5A63E06BFEF77FFB0028A9D0E06B2C
:10398C00436B9847A5E72046FFF705FFD1E7204694
:10399C00FFF7F7FE9DE72046FFF7F3FE99E7204679
:1039AC00FFF7EFFE0023636493E713F0100F82D050
:1039BC0010F0100F3FF47FAF0023019313680193B5
:1039CC0053680193019B536913F0400F51D0E26B84
:1039DC0013685B689BB2002B3FF47BAFA18D9942BF
:1039EC007FF677AFE3859369202B37D0226802F1FD
:1039FC000C0353E8003F23F480730C3242E800318F
:103A0C000029F3D1226802F1140353E8003F23F09C
:103A1C000103143242E800310029F3D1226802F18B
:103A2C00140353E8003F23F04003143242E8003102
:103A3C000029F3D1202384F8423000232363226829
:103A4C0002F10C0353E8003F23F010030C3242E860
:103A5C0000310029F3D1E06BFEF7EAFA022363632D
:103A6C00A18DE38D9BB2C91A89B22046FFF792FE55
:103A7C002FE7A18DE38D9BB2C91A89B2E38D9BB25E
:103A8C00002B3FF426AF00293FF423AF226802F14C
:103A9C000C0353E8003F23F490730C3242E80030DF
:103AAC000028F3D1226802F1140353E8003F23F0FD
:103ABC000103143242E800300028F3D1202384F8AB
:103ACC00423000232363226802F10C0353E8003FC9
:103ADC0023F010030C3242E800300028F3D102230B
:103AEC0063632046FFF756FEF3E62046FFF7E8FC3B
:103AFC00EFE62046FFF738FEEBE600BF91370008F3
:103B0C0081628285C28500234364222380F842307F
:103B1C00036923B10268D36843F48073D3600268ED
:103B2C00536943F0010353610268D36843F02003E7
:103B3C00D3600020704708B590F84230DBB2202BE0
:103B4C0008D149B10AB9012008BD00230363FFF76E
:103B5C00D7FFF9E70220F7E70120F5E7FEE7FEE7DC
:103B6C00FEE7FEE7FEE770477047704708B502486E
:103B7C00FFF784FE08BD00BF7028002070470000CE
:103B8C00FFF7FCFF0B480C490C4A002302E0D45809
:103B9C00C4500433C4188C42F9D3094A094C00238D
:103BAC0001E013600432A242FBD300F017F8FDF7DA
:103BBC00E1FE70470000002014000020843D000846
:103BCC0018000020E0280020FEE703460244934240
:103BDC0000D1704703F8011BF9E7000070B500260F
:103BEC000C4D0D4C641BA410A64209D100F01AF820
:103BFC0000260A4D0A4C641BA410A64205D170BDC8
:103C0C0055F8043B98470136EEE755F8043B9847C6
:103C1C000136F2E77C3D00087C3D00087C3D000845
:103C2C00803D0008F8B500BFF8BC08BC9E46704744
:0C3C3C00F8B500BFF8BC08BC9E467047FD
:103C4800000000000000000000000000000000006C
:103C58000000000000000000000000000101010158
:103C68000101010101010101010202020202020235
:103C78000203030303030303040404040405050502
:103C88000506060606070707070808080909090AB6
:103C98000A0A0B0B0B0C0C0D0D0D0E0E0F0F10104E
:103CA80011111212131314141515161617181819C2
:103CB800191A1B1B1C1D1D1E1F2020212223232413
:103CC8002526272728292A2B2C2D2E2F3031323232
:103CD8003334363738393A3B3C3D3E3F4042434423
:103CE800454648494A4B4D4E4F51525355565759E0
:103CF8005A5C5D5F606263656668696B6D6E707261
:103D0800737577787A7C7E7F81838587898A8C8EA4
:103D180090929496989A9C9EA0A2A4A7A9ABADAFA6
:103D2800B1B4B6B8BABDBFC1C4C6C8CBCDD0D2D560
:103D3800D7DADCDFE1E4E7E9ECEFF1F4F7F9FCFFCF
:103D480048454C4C4F0000000102000002030405E6
:103D5800060708090A0B0C0D0E0F101000000000D2
:103D68000102030400000000000000000102030437
:043D78000607080929
:043D7C002D06000808
:043D80000906000828
:103D8400000070007000000001000000100000003E
:043D940000127A009F
:0400000508003B8D27
:00000001FF
