:020000040800F2
:1000000000500020094D0008C54C0008C74C0008EE
:10001000C94C0008CB4C0008CD4C00080000000083
:10002000000000000000000000000000CF4C0008AD
:10003000D14C000800000000D34C00084D220008FD
:10004000514D0008514D0008514D0008514D000818
:10005000514D0008514D0008514D0008514D000808
:10006000514D0008514D0008514D0008514D0008F8
:10007000E1200008514D0008514D0008F120000812
:10008000514D000801210008514D0008514D000854
:10009000514D0008514D0008514D0008514D0008C8
:1000A000514D0008514D0008514D0008514D0008B8
:1000B00011210008514D0008514D0008514D000814
:1000C000514D0008514D0008514D0008514D000898
:1000D000D54C0008E54C0008F54C0008514D0008CF
:1000E000514D0008514D0008514D0008000000001E
:1000F0000000000000000000000000000000000000
:0C01000000000000000000005FF808F1A3
:10010C0080F0004002E000BF81F0004142001FBFC0
:10011C005FEA410392EA030F7FEA226C7FEA236CC9
:10012C006AD04FEA1262D2EB1363C1BFD2184140BE
:10013C0048404140B8BF5B42192B88BF704710F054
:10014C00004F40F4000020F07F4018BF404211F0F7
:10015C00004F41F4000121F07F4118BF494292EA5F
:10016C00030F3FD0A2F1010241FA03FC10EB0C008B
:10017C00C3F1200301FA03F100F0004302D5494218
:10018C0060EB4000B0F5000F13D3B0F1807F06D3C5
:10019C0040084FEA310102F10102FE2A51D2B1F1BD
:1001AC00004F40EBC25008BF20F0010040EA0300B2
:1001BC007047490040EB0000013A28BFB0F5000F32
:1001CC00EDD2B0FA80FCACF1080CB2EB0C0200FAE8
:1001DC000CF0AABF00EBC25052421843BCBFD04037
:1001EC001843704792F0000F81F4000106BF80F4B1
:1001FC0000000132013BB5E74FEA41037FEA226C74
:10020C0018BF7FEA236C21D092EA030F04D092F03E
:10021C00000F08BF0846704790EA010F1CBF002072
:10022C00704712F07F4F04D1400028BF40F00040CF
:10023C00704712F100723CBF00F50000704700F0EF
:10024C00004343F0FE4040F4000070477FEA226216
:10025C0016BF08467FEA23630146420206BF5FEAE7
:10026C00412390EA010F40F4800070474FF00003E7
:10027C0004E000BF10F0004348BF40425FEA000CAE
:10028C0008BF704743F0964301464FF000001CE056
:10029C0050EA010208BF70474FF000030AE000BFAC
:1002AC0050EA010208BF704711F0004302D54042EA
:1002BC0061EB41015FEA010C02BF8446014600205C
:1002CC0043F0B64308BFA3F18053A3F50003BCFA77
:1002DC008CF2083AA3EBC25310DB01FA02FC634424
:1002EC0000FA02FCC2F12002BCF1004F20FA02F22B
:1002FC0043EB020008BF20F00100704702F120021E
:10030C0001FA02FCC2F1200250EA4C0021FA02F27E
:10031C0043EB020008BF20EADC7070474FF0FF0C83
:10032C001CEAD0521EBF1CEAD15392EA0C0F93EA7E
:10033C000C0F6FD01A4480EA010C400218BF5FEA20
:10034C0041211ED04FF0006343EA501043EA511193
:10035C00A0FB01310CF00040B1F5000F3EBF49008D
:10036C0041EAD3715B0040EA010062F17F02FD2A91
:10037C001DD8B3F1004F40EBC25008BF20F0010074
:10038C00704790F0000F0CF0004C08BF49024CEA8B
:10039C00502040EA51207F3AC2BFD2F1FF0340EA1D
:1003AC00C250704740F400004FF00003013A5DDC8E
:1003BC0012F1190FDCBF00F000407047C2F10002CF
:1003CC00410021FA02F1C2F1200200FA02FC5FEABC
:1003DC00310040F1000053EA4C0308BF20EADC7006
:1003EC00704792F0000F00F0004C02BF400010F478
:1003FC00000F013AF9D040EA0C0093F0000F01F025
:10040C00004C02BF490011F4000F013BF9D041EA46
:10041C000C018FE70CEAD15392EA0C0F18BF93EA48
:10042C000C0F0AD030F0004C18BF31F0004CD8D172
:10043C0080EA010000F00040704790F0000F17BFF9
:10044C0090F0004F084691F0000F91F0004F14D03F
:10045C0092EA0C0F01D142020FD193EA0C0F03D197
:10046C004B0218BF084608D180EA010000F000409A
:10047C0040F0FE4040F40000704740F0FE4040F475
:10048C00400070474FF0FF0C1CEAD0521EBF1CEA14
:10049C00D15392EA0C0F93EA0C0F69D0A2EB030232
:1004AC0080EA010C49024FEA402037D04FF08053CC
:1004BC0043EA111143EA10130CF000408B4238BF91
:1004CC005B0042F17D024FF4000C8B4224BF5B1A9F
:1004DC0040EA0C00B3EB510F24BFA3EB510340EAED
:1004EC005C00B3EB910F24BFA3EB910340EA9C009B
:1004FC00B3EBD10F24BFA3EBD10340EADC001B010B
:10050C0018BF5FEA1C1CE0D1FD2A3FF650AF8B42AE
:10051C0040EBC25008BF20F0010070470CF0004CBB
:10052C004CEA50207F32C2BFD2F1FF0340EAC250E6
:10053C00704740F400004FF00003013A37E792F0A7
:10054C00000F00F0004C02BF400010F4000F013A05
:10055C00F9D040EA0C0093F0000F01F0004C02BF00
:10056C00490011F4000F013BF9D041EA0C0195E769
:10057C000CEAD15392EA0C0F08D142027FF47DAF02
:10058C0093EA0C0F7FF470AF084676E793EA0C0FF2
:10059C0004D14B023FF44CAF08466EE730F0004CF0
:1005AC0018BF31F0004CCAD130F000427FF45CAF80
:1005BC0031F000437FF43CAF5FE700BF42000ED246
:1005CC00B2F1FE4F0BD34FF09E03B3EB126209D482
:1005DC004FEA002343F0004323FA02F070474FF038
:1005EC000000704712F1610F01D1420202D14FF0AD
:1005FC00FF3070474FF00000704700BF10B5054C3E
:10060C00237833B9044B13B10448AFF300800123B2
:10061C00237010BD7000002000000000D05D0008A9
:10062C0008B5034B1BB103490348AFF3008008BD69
:10063C000000000074000020D05D000801704270C2
:10064C008370704700B583B000238DF800308DF8AF
:10065C0001308DF802300B280DD8DFE800F00622AF
:10066C002930373E454C535A6168FF23002211460E
:10067C006846FFF7E3FF009BADF804301B0C8DF8C8
:10068C00063000209DF8043063F307009DF8053018
:10069C0063F30F209DF8063063F3174003B05DF849
:1006AC0004FBFF237F2200216846FFF7C7FFE2E728
:1006BC00FF231A4600216846FFF7C0FFDBE77F23C4
:1006CC00FF2200216846FFF7B9FFD4E70023FF2281
:1006DC0019466846FFF7B2FFCDE70023FF227F21C2
:1006EC006846FFF7ABFFC6E70023FF2211466846BA
:1006FC00FFF7A4FFBFE700237F22FF216846FFF727
:10070C009DFFB8E700231A46FF216846FFF796FFC6
:10071C00B1E77F230022FF216846FFF78FFFAAE78E
:10072C00FF23002219466846FFF788FFA3E7FF2343
:10073C0000227F216846FFF781FF9CE710B4816E91
:10074C0004680023012000E001338B4205D22268AB
:10075C00B2F1FF3FF8D10020F6E710BC7047016002
:10076C00826000234360704701600023436670473A
:10077C000B6803608B68836000234360704738B557
:10078C000446406E072800D938BD0D4600EB4000EA
:10079C0004EB80000430FFF7EBFF2168A26E636E60
:1007AC00881803EB430104EB810188600133636615
:1007BC00AB681A44A266E7E72DE9F04389B000AFB5
:1007CC008146D0F80080866EB50826F00302073209
:1007DC0022F00702ADEB020D6C46C6F387260136FC
:1007EC00F6B24FF0000E724609E051F8040B44F8D3
:1007FC002200013201336345F7D30EF1010ED9F813
:10080C006430734509D90EEB4E0309EB8303596829
:10081C00DB684FEA930C0023EDE702F001FC02F0D9
:10082C0023FC0023FB77BB617B617B60C7F80C80EA
:10083C003E613946381D02F0DDFCF8777B69AB422E
:10084C0016D2FB7F002BF9D1B9697B6954F82320B0
:10085C0000234144022002F059FCF877FB7F002B67
:10086C00ECD1BB690433BB617B6901337B61E5E788
:10087C0002F00EFC02F0EEFB2437BD46BDE8F0831F
:10088C0010B504464FF0000E08E051F8040B42F886
:10089C00040B01336345F8D30EF1010E636E7345FF
:1008AC000AD90EEB4E0304EB830399685A68DB6894
:1008BC004FEA930C0023EDE710BD00687047037CF2
:1008CC0063B10368C268134403608268934213DD0A
:1008DC00026000230374012343747047437C5BB1B3
:1008EC000368C2689B1A03604268934204DA026090
:1008FC0000234374012303747047016041608260DC
:10090C000122027400224274C36070472DE9F04347
:10091C0095B006460D4600242C22214609A804F069
:10092C0056FB0420FFF78EFE8DF82000C0F3072342
:10093C008DF82130C0F307438DF8223007940694CC
:10094C000594049403940294019400942346224643
:10095C0008A909A800F03EFCEB68103B432B00F201
:10096C001982DFE813F0440017021702170217026E
:10097C0017021702170217021702170217021702A3
:10098C001702170217021702170217021702170293
:10099C001702170217021702170217021702170283
:1009AC00170217021702A201B401D701170217028E
:1009BC00EA01170217021702170217021702170291
:1009CC001702170217021702170217021702170253
:1009DC001702170217021702170217021702170243
:1009EC001702170217025A00B3000C0165012B7C89
:1009FC004FF0000163F30F216B7C63F307018CB2A2
:100A0C00631E9BB2B3F5007F01D30120C3E13046D6
:100A1C0000F05EFBB4600120BDE12B7C202B4ED09E
:100A2C006B7CFF2B4ED000238DF84D30AB7C4FF000
:100A3C00000163F30F21EB7C63F307018AB22B7D7A
:100A4C0063F30F216B7D63F307018BB2A87D60F319
:100A5C000F21E87D60F307018CB2287E60F30F2133
:100A6C00687E60F3070189B2A87E8DF84A00E87EA3
:100A7C008DF84B00287F8DF84C0009AF9DF84D0088
:100A8C0007909DF84E00069000200590049003906E
:100A9C000290019100940DF14A01384600F09AFB46
:100AAC006C460CAD0FCD0FC495E80F0084E80F0019
:100ABC0097E80E00304600F04DFF01206BE18DF8F9
:100ACC004E30ADE701238DF84D30AFE72B7C212B59
:100ADC004ED06B7CFF2B4ED000238DF84D30AB7C71
:100AEC004FF0000163F30F21EB7C63F307018AB233
:100AFC002B7D63F30F216B7D63F307018BB2A87D14
:100B0C0060F30F21E87D60F307018CB2287E60F35F
:100B1C000F21687E60F3070189B2A87E8DF84A0028
:100B2C00E87E8DF84B00287F8DF84C0009AF9DF8BE
:100B3C004D0007909DF84E00069000200590049003
:100B4C0003900290019100940DF14A01384600F097
:100B5C0041FB6C460CAD0FCD0FC495E80F0084E83B
:100B6C000F0097E80E00304600F0F4FE012012E171
:100B7C008DF84E30ADE701238DF84D30AFE72B7C6F
:100B8C00222B4ED06B7CFF2B4ED000238DF84D309A
:100B9C00AB7C4FF0000163F30F21EB7C63F3070197
:100BAC008AB22B7D63F30F216B7D63F307018BB24C
:100BBC00A87D60F30F21E87D60F307018CB2287EDD
:100BCC0060F30F21687E60F3070189B2A87E8DF86F
:100BDC004A00E87E8DF84B00287F8DF84C0009AF59
:100BEC009DF84D0007909DF84E0006900020059052
:100BFC00049003900290019100940DF14A01384643
:100C0C0000F0E8FA6C460CAD0FCD0FC495E80F0060
:100C1C0084E80F0097E80E00304600F09BFE0120A0
:100C2C00B9E08DF84E30ADE701238DF84D30AFE7CC
:100C3C002B7C222B32D06B7CFF2B32D000238DF8F7
:100C4C004D30AB7C8DF84A30EB7C8DF84B302B7DE6
:100C5C008DF84C3009AF9DF84D3007939DF84E3010
:100C6C000693002305930493039302930194009439
:100C7C00234622460DF14A01384600F0ABFA6C4689
:100C8C000CAD0FCD0FC495E80F0084E80F0097E86A
:100C9C000E00304600F05EFE01207CE08DF84E30F8
:100CAC00C9E701238DF84D30CBE72B7C4FF00001C9
:100CBC0063F30F216B7C63F307012B7D0093EB7CBB
:100CCC00AA7C89B2304600F0EFF9012063E02B7C5E
:100CDC004FF0000163F30F216B7C63F307011FFAE4
:100CEC0081F9AB7C63F30F21EB7C63F307018CB2CE
:100CFC0095F814806F7DAD7DA14509DA00953B46D2
:100D0C0042464946304600F0CFF909F10109F3E7B4
:100D1C00012040E095F810806F7CAD7C0024B36816
:100D2C00A34208DD00953B4642462146304600F082
:100D3C00BBF90134F3E701202DE06423F3600023B9
:100D4C0086F8393086F865302B7C4FF0000163F360
:100D5C000F216B7C63F307018CB2B368A34201DAF9
:100D6C00012018E04FF000080227A04510DA791C8A
:100D7C00EA19BB1C29442B441B7C00930B7C127C72
:100D8C0003374146304600F08FF908F10108ECE7D3
:100D9C00012000E0002015B0BDE8F08320B1002256
:100DAC004271027101608260704783680133836015
:100DBC00027922B90268934201D30123437170472F
:100DCC000346407910B11B7903B100207047002312
:100DDC00437183607047B0F82826A0F82A2600F5E6
:100DEC000572C0F814260022A0F8282680F83026B8
:100DFC00012280F82E26704708B586460846002347
:100E0C0006E00EEB03024FF0000C82F814C2013323
:100E1C00B3F5806FF5DB0EF50571CEF814160023D3
:100E2C00AEF82636AEF828368EF830368EF83136D7
:100E3C008EF832368EF82E364FF4C873CEF81C3638
:100E4C00012203F026FF08BD08B5D0F82036013387
:100E5C00C0F8203690F8302622B1D0F8181601319F
:100E6C00C0F818160AB1052B00D808BD0023A0F84D
:100E7C002636C0F81836FFF7AEFFF6E700B54FF090
:100E8C00000E4FF6FF730CE05B08013A3AB113F019
:100E9C00010FF9D04AF2010C8CEA5303F5E70EF17D
:100EAC00010E8E4504DA10F80E2053400822EDE7AF
:100EBC0098B25DF804FB10B503460846012283F88E
:100ECC0030260021C3F82016B3F828161144A3F8D5
:100EDC002816B3F826C6D3F8141611F8014B03EBF9
:100EEC000C0E8EF814429444A3F826C6C3F81416BC
:100EFC0003F0CFFE10BD38B50C4690F814324B7091
:100F0C0090F815320B7090F81632CB7090F81732AF
:100F1C008B7090F818324B7190F819320B718988DC
:100F2C00B1F5806F45D8054690F81A32E37290F807
:100F3C001B32A37290F81C32637290F81D3223722C
:100F4C0090F81E32E37390F81F32A37390F820329E
:100F5C00637390F82132237300230E2207E0A81844
:100F6C0090F814C2E01880F810C001330132A1F1DE
:100F7C0010009842F3DC531C2A4492F8142284F893
:100F8C0011222B4493F8143284F81032023905F5EF
:100F9C000570FFF773FFA5F82406B4F810329842D9
:100FAC0009D0238833B1638823B1A38813B10120FE
:100FBC0000E0002038BD0120FCE710B588B00446E5
:100FCC00084663788DF8003023788DF80130E3788B
:100FDC008DF80230A3788DF8033063798DF80430E6
:100FEC0023798DF80530E37A8DF80630A37A8DF8E5
:100FFC000730637A8DF80830237A8DF80930E37B5B
:10100C008DF80A30A37B8DF80B30637B8DF80C3098
:10101C00237B8DF80D3000220E2309E003F1200113
:10102C000DEB010C4FF0FF0E0CF820EC01320133EC
:10103C000F2AF3DD5A1C94F8111220336B4403F879
:10104C00201C94F8101202F120036B4403F8201CAE
:10105C004FF47A732022694603F0CDFB08B010BD23
:10106C0090F82E067047002380F82E3670474260A9
:10107C00016083606423C360002380F8EC30704708
:10108C0010B4046874B1D0F808C08C450ADB01EBCD
:10109C004101625404684A1CA354036802319DF850
:1010AC0004205A5410BC704710B4446874B1D0F882
:1010BC0008C08C450ADB01EB4101625442680A44CA
:1010CC00537043680B449DF804209A7010BC704711
:1010DC0070B582B0064600250FE00024009423462C
:1010EC00224629463046FFF7DFFF0094234622466E
:1010FC0029463046FFF7C4FF0135B368AB42ECDC40
:10110C0002B070BD2DE9F04383B00746C068FFF70D
:10111C00B1F81B49FFF7B6F98046002429E07A683C
:10112C0004EB440302EB0309D05CFFF79FF8414644
:10113C00FFF7F4F8FFF742FAC5B299F80100FFF790
:10114C0095F84146FFF7EAF8FFF738FAC6B299F876
:10115C000200FFF78BF84146FFF7E0F8FFF72EFA95
:10116C00C0B2009033462A4621463846FFF788FF26
:10117C000134BB68A342D2DC03B0BDE8F08300BFEE
:10118C000000C84230B585B00546039100240BE041
:10119C009DF80E3000939DF80D309DF80C202146E3
:1011AC002846FFF781FF0134AB68A342F0DC05B0A1
:1011BC0030BD00B585B003929DF80E3000939DF8BC
:1011CC000D309DF80C20FFF76FFF05B05DF804FBA8
:1011DC00C16070472DE9F84304460D4617461E467C
:1011EC00BDF82090BDF8248042464946FFF785FBA8
:1011FC00A4F81A90A4F81C80A782E6829DF83C30D3
:10120C0084F82930AB786A78297804F12600FFF746
:10121C0015FA9DF8383084F82A30BDF82830E3836D
:10122C00BDF82C302384BDF830306384BDF83430E5
:10123C00A384BDE8F88384B010B588B004460BA82D
:10124C0080E80E0094F8EC00092832D89DF856205E
:10125C00A2F12003042B27D8DFE803F003305478E5
:10126C009C002C2303FB00F010309DF855300793A5
:10127C000692BDF850300593BDF84E300493BDF87E
:10128C004C300393BDF84A300293BDF848300193BB
:10129C00BDF846300093BDF84230BDF840200DF14A
:1012AC0052012044FFF796FF94F8EC30013384F898
:1012BC00EC3008B0BDE8104004B070472C2303FBA1
:1012CC0000F010309DF8553007930692BDF8503061
:1012DC000593BDF84E300493BDF84C300393BDF824
:1012EC004A300293BDF848300193BDF84630009364
:1012FC00BDF84230BDF840200DF152012044FFF7FB
:10130C0069FFD1E72C2303FB00F010309DF855301A
:10131C0007930692BDF850300593BDF84E300493F8
:10132C00BDF84C300393BDF84A300293BDF84830F9
:10133C000193BDF846300093BDF84230BDF8402013
:10134C000DF152012044FFF745FFADE72C2303FBC1
:10135C0000F010309DF8553007930692BDF85030D0
:10136C000593BDF84E300493BDF84C300393BDF893
:10137C004A300293BDF848300193BDF846300093D3
:10138C00BDF84230BDF840200DF152012044FFF76A
:10139C0021FF89E72C2303FB00F010309DF855301A
:1013AC0007930692BDF850300593BDF84E30049368
:1013BC00BDF84C300393BDF84A300293BDF8483069
:1013CC000193BDF846300093BDF84230BDF8402083
:1013DC000DF152012044FFF7FDFE65E738B50546D7
:1013EC000C46CB8A8A8B498BFFF787FA638B6B830E
:1013FC00A38BAB83A38AAB82E38AEB8294F829306C
:10140C0085F8293094F8283094F8272094F8261081
:10141C0005F12600FFF712F994F82A3085F82A30E6
:10142C0038BDD8B138B50C46054649B191F82930CC
:10143C0033B10A8B8B8A9A4203D8238B01332383D3
:10144C0038BD0846FFF73BFA21782846FFF7C0FE67
:10145C002846FFF757FE00232383EEE77047000072
:10146C00002800F0028170B582B00C46054649B1E7
:10147C0091F8293033B10A8B8B8A9A4204D8238B8A
:10148C000133238302B070BD0846FFF718FA2046DB
:10149C00FFF713FA82B2754BA3FB0213D11A03EBBD
:1014AC005100C0F3871000238DF804308DF80530FF
:1014BC008DF80630A0EBC0139BB213449EB20B28E0
:1014CC0015D8DFE800F0061E2F3F505F708091A00A
:1014DC00B1C1FFF7B7F88DF80400C0F307238DF8FE
:1014EC000530C0F307408DF806008DF805600199B2
:1014FC002846FFF747FE2846FFF704FE0023238308
:10150C00BDE7FFF79FF88DF80400C0F307238DF8B3
:10151C000530C0F307408DF8060006F17F038DF807
:10152C000530E4E7FFF78EF88DF80400C0F30723CD
:10153C008DF80530C0F307408DF80600F3438DF8A5
:10154C000630D4E7FFF77EF88DF80400C0F30723CC
:10155C008DF80530C0F307408DF80600C6F17F0307
:10156C008DF80630C3E7FFF76DF88DF80400C0F373
:10157C0007238DF80530C0F307408DF806008DF871
:10158C000460B4E7FFF75EF88DF80400C0F307239E
:10159C008DF80530C0F307408DF8060006F17F0387
:1015AC008DF80430A3E7FFF74DF88DF80400C0F375
:1015BC0007238DF80530C0F307408DF80600F34380
:1015CC008DF8053093E7FFF73DF88DF80400C0F374
:1015DC0007238DF80530C0F307408DF80600C6F1DF
:1015EC007F038DF8053082E7FFF72CF88DF80400A7
:1015FC00C0F307238DF80530C0F307408DF80600C3
:10160C008DF8066073E7FFF71DF88DF80400C0F342
:10161C0007238DF80530C0F307408DF8060006F15E
:10162C007F038DF8063062E7FFF70CF88DF80400A5
:10163C00C0F307238DF80530C0F307408DF8060082
:10164C00F3438DF8043052E7FEF7FCFF8DF80400ED
:10165C00C0F307238DF80530C0F307408DF8060062
:10166C00C6F17F038DF8043041E77047110804027E
:10167C002DE9F04383B091F8297017B903B0BDE898
:10168C00F08305460E4600238DF800308DF80130AE
:10169C008DF802308DF804308DF805308DF8063059
:1016AC0091F8283091F8272091F8261001A8FEF720
:1016BC00C5FF328BB38A9A427DD39DF80430FF2B41
:1016CC000ED04FF000089DF80530FF2B0AD04FF0DC
:1016DC0000099DF80630FF2B00D00027002414E0F1
:1016EC00B846F0E7B946F4E700238DF8003044E043
:1016FC0000238DF801304EE000238DF80230009A63
:10170C0021462846FFF755FD0134AB68A34250D95A
:10171C00696804EB44028B188A5C8DF800205A78B7
:10172C008DF801209B788DF8023003F00DFB244BD3
:10173C00A3FB00231B09322202FB13037BB9B8F174
:10174C00000F02D0FF238DF80030B9F1000F02D04A
:10175C00FF238DF8013017B1FF238DF80230B8F15B
:10176C00000F0AD09DF80030282BBDD9154AA2FBDA
:10177C000312A3EB52138DF80030B9F1000F0AD00D
:10178C009DF80130282BB3D90E4AA2FB0312A3EB10
:10179C0052138DF80130002FB1D09DF80230282B58
:1017AC00AAD9084AA2FB0312A3EB52138DF80230FC
:1017BC00A5E700233383338B013333835EE700BF0C
:1017CC001F85EB51CDCCCCCCF8B591F8293043B179
:1017DC0006460C460A8B8B8A9A4203D8238B01331C
:1017EC002383F8BD0846FFF76AF82046FFF765F833
:1017FC000746002509E0E28C94F8280042EA0042F2
:10180C00C91A3046FFF7D5FC0135E38BAB420DDD31
:10181C00B9B22944B3689942EDDAE38C94F82820E4
:10182C0043EA02423046FFF7C4FCEDE70023238372
:10183C00D4E7844608B1002301E0704701339CF8DB
:10184C00EC209A420DDD2C2202FB03C292F83A20C6
:10185C008A42F3D12C2202FB03C2012082F8390008
:10186C00ECE77047844608B1002301E07047013370
:10187C009CF8EC209A420DDD2C2202FB03C292F85C
:10188C003A208A42F3D12C2202FB03C2002082F8B8
:10189C003900ECE7704784B010B582B0044605A857
:1018AC0080E80E0000238DF804308DF805308DF89B
:1018BC0006309DF83E30213B032B13D8DFE803F0B4
:1018CC0002172C3921212046FFF7B3FF2421204693
:1018DC00FFF7C8FF22212046FFF7C4FF01992046DD
:1018EC00FFF750FC02B0BDE8104004B07047222155
:1018FC002046FFF79EFF21212046FFF7B3FF23214F
:10190C002046FFF7AFFF24212046FFF7ABFF0199DC
:10191C002046FFF737FCE5E723212046FFF789FF38
:10192C0022212046FFF79EFF01992046FFF72AFC53
:10193C00D8E724212046FFF77CFF21212046FFF722
:10194C0091FF22212046FFF78DFF01992046FFF7DA
:10195C0019FCC7E784B010B588B004460BA880E822
:10196C000E009DF85620A2F12003042B24D8DFE8AA
:10197C0003F00338597A9B009DF855300793069273
:10198C00BDF850300593BDF84E300493BDF84C3083
:10199C000393BDF84A300293BDF848300193BDF86B
:1019AC0046300093BDF84230BDF840200DF1520195
:1019BC0004F11000FFF70EFCEC460DF1380EBEE8FA
:1019CC000F00ACE80F009EE80F008CE80F000BAB8B
:1019DC000ECB2046FFF75FFF08B0BDE8104004B007
:1019EC0070479DF8553007930692BDF8503005931B
:1019FC00BDF84E300493BDF84C300393BDF84A301B
:101A0C000293BDF848300193BDF846300093BDF801
:101A1C004230BDF840200DF1520104F13C00FFF7BB
:101A2C00D9FBC9E79DF8553007930692BDF85030A5
:101A3C000593BDF84E300493BDF84C300393BDF8BC
:101A4C004A300293BDF848300193BDF846300093FC
:101A5C00BDF84230BDF840200DF1520104F1680090
:101A6C00FFF7B8FBA8E79DF8553007930692BDF831
:101A7C0050300593BDF84E300493BDF84C300393B1
:101A8C00BDF84A300293BDF848300193BDF846309A
:101A9C000093BDF84230BDF840200DF1520104F125
:101AAC009400FFF797FB87E79DF855300793069254
:101ABC00BDF850300593BDF84E300493BDF84C3052
:101ACC000393BDF84A300293BDF848300193BDF83A
:101ADC0046300093BDF84230BDF840200DF1520164
:101AEC0004F19400FFF776FB66E760B108B591F856
:101AFC00293003B908BDCB8C91F8281043EA014179
:101B0C00FFF740FBF6E7704738B50546002408E0C0
:101B1C002C2104FB01F1103129442846FFF781FCEC
:101B2C00013495F8EC30A34238DD2C2303FB04532D
:101B3C0093F83A30203B042BF2D801A252F823F050
:101B4C001D1B0008611B0008731B0008851B000887
:101B5C00971B00082C2104FB01F110312944284665
:101B6C00FFF77EFCDCE72C2104FB01F1103129444A
:101B7C002846FFF77DFDD3E72C2104FB01F1103142
:101B8C0029442846FFF720FECAE72C2104FB01F16B
:101B9C00103129442846FFF7A8FFC1E738BD00BF24
:101BAC0008B50E4B04221A730D4A1A604FF4C0622A
:101BBC005A60052119770B4919615A61062183F87E
:101BCC002C10094919625A62072183F83C10074905
:101BDC0019635A6300F0CCFA08BD00BF3C1A002010
:101BEC008C1200208C0C00208C0600208C00002015
:101BFC0008B5064B93F8403003B908BD034B0122DE
:101C0C0083F8412000F0C2FAF7E700BF3C1A00202D
:101C1C0070B42E4EB45CF55C9DF80C30F25C01EBAC
:101C2C004103E443ED43D243294901EB031101F194
:101C3C00614101F580114E01830003EB4113E90969
:101C4C0046F82010A90919646909C3F880102909FC
:101C5C00C3F8C010E908C3F80011A908C3F8401173
:101C6C006908C3F88011C3F8C051E109C3F8001228
:101C7C00A109C3F840126109C3F880122109C3F805
:101C8C00C012E108C3F80013A108C3F8401361089F
:101C9C00C3F88013C3F8C043D109C3F800149109E9
:101CAC00C3F840145109C3F880141109C3F8C014C7
:101CBC00D108C3F800159108C3F840155108C3F8B2
:101CCC008015C3F8C02570BC704700BFE85D0008E4
:101CDC00DC19002070B582B005688468631C8360D1
:101CEC002A5DA61C8660EB5C03348460AD5D46689F
:101CFC00B44206D0009589B2007BFFF789FF02B091
:101D0C0070BD00248460F5E7204A936C0133936422
:101D1C00B3F5806F02D010B5002433E013460022D7
:101D2C009A641B4A1168CB6843F00103CB60194BD2
:101D3C0019680B6823F001030B60174B19680B68CB
:101D4C0023F001030B60154B19680B6823F001039A
:101D5C000B601368DA6822F48072DA60DA6822F4B5
:101D6C000072DA60DA6822F48062DA600C4B1A686E
:101D7C000C4B1A6170470121044800EB0410FFF76B
:101D8C00A9FF0134032CF6D910BD00BF3C1A00206A
:101D9C009419002014190020D01800208C18002051
:101DAC00000000200008014038B50025284B83F8BE
:101DBC0040500CE0264C04EB05140021A160204699
:101DCC00FFF788FF01212046FFF784FF0135032D23
:101DDC00F0D9204BE0225A604FF460225A604FF049
:101DEC0060625A601C4B1B6830225A601B4C216885
:101DFC004A601B4801684A601A490A686FF01F055F
:101E0C0015611A6842F001021A602268136843F0E7
:101E1C00010313600268136843F0010313600B683D
:101E2C00DA6842F48072DA60DA6842F40072DA60DE
:101E3C00DA6842F48062DA600B4A1268013A4FF0B9
:101E4C0080414A621A6842F001021A6038BD00BF34
:101E5C003C1A00200000024014190020D018002069
:101E6C008C180020941900205819002010B582B04D
:101E7C000D4B9A6C40F2FF339A420CD0002406E0D2
:101E8C000021094800EB0410FFF724FF0134032C58
:101E9C00F6D902B010BD0020009003460246014660
:101EAC00FFF7B6FEF5E700BF3C1A002000B587B07F
:101EBC000C4B9A6942F004029A619B6903F004038B
:101ECC000193019BF02302930123039300230493BA
:101EDC000223059302A9044801F0DEF907B05DF86E
:101EEC0004FB00BF00100240000801402DE9F04F38
:101EFC0083B0344B5A6942F001025A615B6903F0BA
:101F0C0001030193019B304C4FF01009C4F804906D
:101F1C000025A560E5604FF40078C4F810804FF4FC
:101F2C00006BC4F814B02027A7614FF44056E6614B
:101F3C00264B2360204600F081FEDFF894A030236E
:101F4C0052462449204600F0AFFE234CC4F80490BE
:101F5C00A5608023E360C4F810804FF48063636154
:101F6C00A761E6611D4B2360204600F067FE30231D
:101F7C001B4A1C49204600F097FE1B4CC4F80490E9
:101F8C00A560E560C4F81080C4F814B0A761E661E0
:101F9C00164B2360204600F051FE154BA362154BE7
:101FAC00E3622A462946112000F000FE112000F0C1
:101FBC000DFE302352461049204600F09EFE03B021
:101FCC00BDE8F08F00100240141900201C000240E4
:101FDC001008014004000020D018002058000240D6
:101FEC0014080140DC1900208C18002080000240ED
:101FFC00151D0008791E0008000000202DE9F04195
:10200C0082B02B4BDA6942F00102DA61DB6903F032
:10201C0001030193019B274B1B681B0A264AA2FB59
:10202C0003231B09254A136003EB83014A00244F49
:10203C00A7FB0217FF082349A1FB0212D608224D69
:10204C004FF080422A60EB6000246C616C602C6164
:10205C00AC60284602F008F9224621461C2000F00C
:10206C00A5FD1C2000F0B2FD18494FF06008C1F826
:10207C0000808C604F60CC600C612246284602F0D8
:10208C007CF91349C1F800808C604E60CC600C6107
:10209C004C618C610422284602F06FF9284601F04D
:1020AC0093FF2146284602F0E5F902B0BDE8F08125
:1020BC000010024010000020598B4F0158190020CD
:1020CC00398EE33889888888941900207819002083
:1020DC005C19002008B5024800F0BAFE08BD00BF2C
:1020EC001419002008B5024800F0B2FE08BD00BF6C
:1020FC00D018002008B5024800F0AAFE08BD00BFA9
:10210C008C18002008B5024801F091FF08BD00BFF3
:10211C0094190020144B5B6C0B2B03D80133124A1F
:10212C0053647047104B00225A64104B1B68196A99
:10213C0041F21112114208D1196A40F24442114283
:10214C0003D11A6822F001021A604FF0804300227A
:10215C001A60064B1A68D36823F00103D360024B54
:10216C00012283F8402070473C1A0020941900206B
:10217C0008B5FFF79BFEFFF7B9FEFFF73FFF024BD9
:10218C00012283F8402008BD3C1A002008B5064BFC
:10219C0093F8413003B908BD034B002283F841206A
:1021AC00FFF702FEF7E700BF3C1A002030B589B0FC
:1021BC0000240494059406940794184B9A6942F0F1
:1021CC0010029A619A6902F010020192019A9A69BE
:1021DC0042F004029A619A6902F004020292029A95
:1021EC009A6942F008029A619B6903F00803039311
:1021FC00039B0B4D22464FF40051284601F05AF92F
:10220C004FF4005304930123059306940223079380
:10221C0004A9284601F040F809B030BD0010024076
:10222C000010014008B501460348FEF744FE034B7D
:10223C0001221A7008BD00BF30240020891A00202A
:10224C0008B500F05BFC024B01221A7008BD00BF00
:10225C00881A002072B6FEE700B58BB000230893F5
:10226C0009930193029303930493059306930793A5
:10227C001348144A0260436083604FF6FF72C260D9
:10228C000361836101F0C4FFA0B900230893099393
:10229C0008A90B4802F05CF970B900220192029275
:1022AC000392059201A9064802F038F830B90BB038
:1022BC005DF804FBFFF7CEFFFFF7CCFFFFF7CAFF7B
:1022CC00C44600200008004008B50A480A4B0360C9
:1022DC004FF4E133436000238360C36003610C223D
:1022EC0042618361C36102F056FA00B908BDFFF781
:1022FC00B1FF00BF344600200044004008B50D4833
:10230C000D4B03604FF48273436000238360C36002
:10231C00036143614FF400728261C36103624362E3
:10232C0083620A23C36201F0EFFC00B908BDFFF71A
:10233C0091FF00BF0C4700200038004008B50A4848
:10234C000A4B03604FF4E133436000238360C360A6
:10235C0003610C2242618361C36102F01CFA00B973
:10236C0008BDFFF777FF00BF7C4600200038014016
:10237C0000B591B02822002106A802F028FE002307
:10238C000193029303930493059302230693012272
:10239C000A9210220B920D934FF460130F9306A820
:1023AC0001F0A4F980B90F230193022102910023BB
:1023BC0003934FF480620492059301A801F0C8FBCB
:1023CC0020B911B05DF804FBFFF744FFFFF742FFA3
:1023DC0080B588B000F080FBFFF7CAFFFFF7E6FE80
:1023EC00FFF73AFFFFF770FFFFF788FFFFF7A6FF35
:1023FC00E94EEA4C01223146204602F04AFCE84FF5
:10240C00E84D01223946284602F043FCDFF8988358
:10241C004FF47A7306224146204602F0ECF94FF451
:10242C007A7306224146284602F0E5F9FFF7B8FB1D
:10243C008023DE4ADE49DF48FEF719FE8023DE4AA0
:10244C00DE49DF48FEF713FE8023DE4ADE49DF4813
:10245C00FEF70DFE8023DE4ADE49DF48FEF707FE5D
:10246C001421DE48FEF79AFC2946A7F50570FEF705
:10247C00C3FC2146A6F50570FEF7BEFCD84DD94924
:10248C002846FEF771F9D84C2C22D8492046FEF785
:10249C0066F921462846FEF772F92C22D4492046CB
:1024AC00FEF75DF921462846FEF769F92C22D14941
:1024BC002046FEF754F921462846FEF760F92C22F7
:1024CC00CD492046FEF74BF921462846FEF757F931
:1024DC002C22CA492046FEF742F921462846FEF72F
:1024EC004EF92846FEF72AF9002800F0AA81284662
:1024FC00FEF7C6F9BD4CDFF8BC826D4604F10C0644
:10250C000FCE0FC596E80F0085E80F0094E80E007B
:10251C004046FEF790FEAA4F6D4604F10C060FCE16
:10252C000FC596E80F0085E80F0094E80E003846BA
:10253C00FEF781FEA54E6D4604F10C0CBCE80F00B5
:10254C000FC59CE80F0085E80F0094E80E0030469C
:10255C00FEF771FEA04DEC4604F10C0EBEE80F0028
:10256C00ACE80F009EE80F008CE80F0094E80E001A
:10257C002846FEF760FE9E4CEC4604F10C0EBEE8BD
:10258C000F00ACE80F009EE80F008CE80F0094E8F9
:10259C000E004046FEF74FFEEC4604F10C0EBEE872
:1025AC000F00ACE80F009EE80F008CE80F0094E8D9
:1025BC000E003846FEF73FFEEC4604F10C0EBEE86A
:1025CC000F00ACE80F009EE80F008CE80F0094E8B9
:1025DC000E003046FEF72FFEEC4604F10C0EBEE862
:1025EC000F00ACE80F009EE80F008CE80F0094E899
:1025FC000E002846FEF71FFE7E4CEC4604F10C0E36
:10260C00BEE80F00ACE80F009EE80F008CE80F004E
:10261C0094E80E004046FEF70EFEEC4604F10C0E5C
:10262C00BEE80F00ACE80F009EE80F008CE80F002E
:10263C0094E80E003846FEF7FEFDEC4604F10C0E55
:10264C00BEE80F00ACE80F009EE80F008CE80F000E
:10265C0094E80E003046FEF7EEFDEC4604F10C0E4D
:10266C00BEE80F00ACE80F009EE80F008CE80F00EE
:10267C0094E80E002846FEF7DEFD5F4CEC4604F1B4
:10268C000C0EBEE80F00ACE80F009EE80F008CE8C3
:10269C000F0094E80E004046FEF7CDFDEC4604F129
:1026AC000C0EBEE80F00ACE80F009EE80F008CE8A3
:1026BC000F0094E80E003846FEF7BDFDEC4604F121
:1026CC000C0EBEE80F00ACE80F009EE80F008CE883
:1026DC000F0094E80E003046FEF7ADFDEC4604F119
:1026EC000C0EBEE80F00ACE80F009EE80F008CE863
:1026FC000F0094E80E002846FEF79DFD3F4CEC467B
:10270C0004F10C0EBEE80F00ACE80F009EE80F00C1
:10271C008CE80F0094E80E004046FEF78CFDEC466A
:10272C0004F10C0EBEE80F00ACE80F009EE80F00A1
:10273C008CE80F0094E80E003846FEF77CFDEC4662
:10274C0004F10C0EBEE80F00ACE80F009EE80F0081
:10275C008CE80F0094E80E003046FEF76CFDEC465A
:10276C0004F10C0EBEE80F00ACE80F009EE80F0061
:10277C008CE80F0094E80E002846FEF75CFD4046FE
:10278C00FEF7C0FC3846FEF7BDFC3046FEF7BAFC3F
:10279C002846FEF7B7FC33E00C2000207C460020D6
:1027AC004426002034460020E85E0008683C0020E7
:1027BC008C12002038450020683600208C0C00203C
:1027CC0048440020683000208C060020584300202C
:1027DC00682A00208C000020684200202846002037
:1027EC00901A002000800008FC1A0020CC1D00204C
:1027FC00A01D0020741D0020481D00201C1D002061
:10280C00904B1B78002B76D18F48FEF729FC0028C3
:10281C0040F087808D48FEF7D3FA0028F0D08C4822
:10282C00FEF770FC8B48FEF76DFC8B48FEF76AFCDC
:10283C008A48FEF767FCFFF7DBF98448FEF7C7FA16
:10284C00DEE7874E01250795202306930024059487
:10285C00049403940294502301933C2300932B463D
:10286C00642231467F48FEF7B5FC07952123069379
:10287C0005940494039402944FF448730193C82371
:10288C0000932B464FF47A7231467748FEF7A2FC40
:10289C00764E079522230693059404940394029490
:1028AC006423019300942B46282231467048FEF78E
:1028BC0091FC079523230693059404940394032316
:1028CC0002933023019300942B464FF47A723146D5
:1028DC006848FEF77FFC079524230693059404941F
:1028EC000394029401940094234622463146624894
:1028FC00FEF770FCFEE55448FEF7A6FA5348FEF7C7
:10290C0054FA5348FFF700F95248FFF7FDF85248C4
:10291C00FFF7FAF85148FFF7F7F84A4B00221A7004
:10292C0072E756494848FEF7E6FA002837D0534B71
:10293C005B88013B042B32D8DFE803F0034C5A6868
:10294C0076004E4D424C29462046FDF7DFFF2946C6
:10295C004048FDF7DBFF29463F48FDF7D7FF2946E6
:10296C003E48FDF7D3FF04F110013E48FEF736FD5B
:10297C0004F13C013C48FEF731FD04F168013C4890
:10298C00FEF72CFD04F194013A48FEF727FD04F103
:10299C00C0013948FEF722FD3948FDF70DFF2A48E2
:1029AC00FEF761FB4FF40051364800F089FD3649C3
:1029BC003248FEF702FB2648FEF7A4FB2548FEF73B
:1029CC00A1FB2548FEF79EFB2448FEF79BFBFFF777
:1029DC000FF91FE71E4C29492046FDF797FF04F11C
:1029EC0068012348FEF7FAFC2548FDF7E5FED6E71B
:1029FC00184C22492046FDF789FF04F168011C4858
:102A0C00FEF7ECFC1E48FDF7D7FEC8E7124C1B493D
:102A1C002046FDF77BFF04F168011548FEF7DEFC4C
:102A2C001748FDF7C9FEBAE70C4C14492046FDF7D0
:102A3C006DFF04F168010E48FEF7D0FC1048FDF75D
:102A4C00BBFEACE7881A002030240020284600206A
:102A5C00384500204844002058430020684200209C
:102A6C008C1A0020CC1D0020A01D00200800002086
:102A7C00741D0020481D00201C1D0020081B002078
:102A8C00901A0020001001403446002010B5044676
:102A9C000E4B1A784FF47A73B3FBF2F30C4A1068AE
:102AAC00B0FBF3F000F0A0F868B90F2C01D90120AD
:102ABC000AE0002221464FF0FF3000F077F8054B7A
:102ACC001C60002000E0012010BD00BF0B000020A6
:102ADC00100000200C00002008B5074A136843F0D2
:102AEC0010031360032000F04FF80F20FFF7CEFF08
:102AFC0000F0F0FC002008BD00200240034A1168E1
:102B0C00034B1B780B441360704700BF64470020D5
:102B1C000B000020014B1868704700BF6447002071
:102B2C00002808DB0901C9B200F1604000F56140E2
:102B3C0080F80013704700F00F000901C9B2014B77
:102B4C001954704714ED00E000B500F00700C0F117
:102B5C00070CBCF1040F28BF4FF0040C031D062B0F
:102B6C000FD9C31E4FF0FF3E0EFA0CF021EA000104
:102B7C0099400EFA03FE22EA0E0241EA02005DF8C9
:102B8C0004FB0023EEE70000074AD36823F4E0635C
:102B9C001B041B0C000200F4E060034343F0BF6312
:102BAC0043F40033D360704700ED00E010B50446E9
:102BBC00054BD868C0F30220FFF7C6FF014620463C
:102BCC00FFF7AEFF10BD00BF00ED00E0002807DBF3
:102BDC0000F01F02400901239340024A42F82030C2
:102BEC00704700BF00E100E00138B0F1807F0BD2EC
:102BFC004FF0E0235861054AF02182F823100020A1
:102C0C00986107221A6170470120704700ED00E0BF
:102C1C0030B40124056CAC40C56B6C600468636017
:102C2C004368102B05D0036899600368DA6030BCE8
:102C3C00704703689A600368D960F8E760B310B412
:102C4C0002460168154B0B441548A0FB03031B09F6
:102C5C009B001364134BD363022382F82130086862
:102C6C0020F47F5020F03000536894682343D468DC
:102C7C002343146923435469234394692343D4693C
:102C8C00234303430B6000209063012382F821301F
:102C9C0082F8200010BC704701207047F8FFFDBF80
:102CAC00CDCCCCCC0000024070B5044690F820008E
:102CBC00012820D0012084F8200094F82100C0B213
:102CCC00012804D0002384F82030022070BD02209B
:102CDC0084F821000025A5632668306820F00100E7
:102CEC0030602046FFF794FF2268136843F001031D
:102CFC0013602846EAE70220E8E738B5044690F866
:102D0C002000012832D0012084F8200094F8210002
:102D1C00C0B2012804D0002384F82030022038BD32
:102D2C00022084F821000020A0632568286820F088
:102D3C00010028602046FFF76BFFE36A5BB1226855
:102D4C00136843F00E0313602268136843F0010309
:102D5C0013600020E3E72268136823F00403136078
:102D6C002268136843F00A031360EDE70220D6E7EC
:102D7C00034690F82120D2B2022A06D004228263A4
:102D8C00002280F820200120704701680A6822F098
:102D9C000E020A6001680A6822F001020A60026CE5
:102DAC00C06B012101FA02F2426083F8211000206D
:102DBC0083F820007047000008B590F82130DBB292
:102DCC00022B03D004238363012008BD026813681F
:102DDC0023F00E0313600268136823F001031360E1
:102DEC000368194A934214D0143293421FD0143200
:102DFC0093421ED0143293421ED0143293421ED0F2
:102E0C001432934202D04FF0807203E04FF48012E0
:102E1C0000E001220D4B5A60012380F82130002381
:102E2C0080F82030436B6BB198470020CDE710221F
:102E3C00F0E74FF48072EDE74FF48052EAE74FF47D
:102E4C008032E7E70020C0E70800024000000240A3
:102E5C0038B5C36B1A6804682568016C04238B4071
:102E6C00134235D015F0040F32D0236813F0200F25
:102E7C0003D1236823F0040323600368434A93427D
:102E8C0014D01432934218D01432934217D0143207
:102E9C00934217D01432934217D01432934202D07B
:102EAC004FF0806203E04FF4800200E00422384BC4
:102EBC005A60C36A03B1984738BD4022F7E74FF414
:102ECC008062F4E74FF48042F1E74FF48022EEE7A2
:102EDC0002238B4013423CD015F0020F39D02368EB
:102EEC0013F0200F06D1236823F00A03236001237B
:102EFC0080F821300368254A934214D0143293424F
:102F0C001CD0143293421BD0143293421BD0143277
:102F1C0093421BD01432934202D04FF0007203E064
:102F2C004FF4001200E00222194B5A60002380F883
:102F3C002030836A002BBFD09847BDE72022F3E7EF
:102F4C004FF40072F0E74FF40052EDE74FF400320B
:102F5C00EAE708238B401342AED015F0080FABD034
:102F6C00236823F00E032360026CC16B012303FA68
:102F7C0002F24A60836380F82130002380F820300D
:102F8C00036B002B98D0984796E700BF08000240CF
:102F9C0000000240044B0022DA61044A136943F03A
:102FAC000103136101807047684700200020024034
:102FBC00194BDB6813F0100305D0184AD36943F0A2
:102FCC000203D3611023144AD26812F0040F06D006
:102FDC001249CA6942F00102CA6143F004030E4A65
:102FEC00D26912F0010F09D00C49CA6942F00402EF
:102FFC00CA610949CA6922F00102CA6140F2011290
:10300C00934202D0044AD3607047034AD36923F039
:10301C000103D361704700BF0020024068470020C5
:10302C000A4B1B6913F0800F0BD0084B084A5A60EF
:10303C0002F188325A601B6913F0800F03D1002013
:10304C007047002070470120704700BF00200240ED
:10305C0023016745034A136943F080031361002081
:10306C00704700BF00200240074B1B6913F4007F20
:10307C0007D1054B054A9A6002F188329A6000200C
:10308C0070470120704700BF0020024023016745B4
:10309C00034A136923F4007313610020704700BFC7
:1030AC000020024038B50446FFF734FD0546164BA8
:1030BC00DB6813F0010F0AD0B4F1FF3FF7D024B155
:1030CC00FFF728FD401BA042F1D903201BE00E4B5B
:1030DC00DB6813F0200F02D00B4B2022DA600A4B76
:1030EC00DB6813F0100F0BD1074BDB6913F0010FEA
:1030FC0006D1054BDB6813F0040F01D1002002E070
:10310C00FFF756FF012038BD002002402DE9F8439F
:10311C001E46244B1B7E012B41D004460F46904685
:10312C00204B01221A764CF25030FFF7BBFF0346BE
:10313C0078BB012C08D0022C03D04FF004091C469C
:10314C0007E04FF00209FAE74FF00109F7E7013405
:10315C00E4B24C451DD22101C1F12002A1F12003A2
:10316C0028FA01F106FA02F2114326FA03F3194385
:10317C0089B207EB4400FFF70DFF4CF25030FFF71C
:10318C0091FF094B1D6925F001051D6103460028BF
:10319C00DDD0044A002111761846BDE8F8830223DD
:1031AC00FAE700BF6847002000200240064B0022CF
:1031BC00DA61064B1A6942F004021A611A6942F08C
:1031CC0040021A61704700BF68470020002002408F
:1031DC00064B0022DA61064B1A6942F002021A61B0
:1031EC0058611A6942F040021A6170476847002022
:1031FC0000200240264B1B7E012B46D070B50546A5
:10320C000E46234B01221A760368022B20D04CF277
:10321C005030FFF747FF90BB4FF0FF333360AC6883
:10322C000121EA68AB6803EB8223A34228D920462C
:10323C00FFF7CEFF4CF25030FFF734FF154A1369FD
:10324C0023F0020313610146B8B904F58064E8E782
:10325C004CF25030FFF726FF08B1012110E001209D
:10326C00FFF7A4FF4CF25030FFF71CFF0146094A50
:10327C00136923F00403136102E0346000E00121C0
:10328C00034B00221A76084670BD0221084670478F
:10329C00684700200020024070B582B00024A4468C
:1032AC00A2E07E4DAB4210D007D97D4DAB420CD085
:1032BC0005F58035AB4208D013E0A5F58015AB427F
:1032CC0003D005F57025AB4207D18B68002B55D088
:1032DC00012B4ED04261082403E0A5F58015AB42CA
:1032EC00F3D0BEF1FF0F4BD806464FEA8C02336881
:1032FC000F25954023EA050304FA02F213433360C9
:10330C004B6813F0805F6DD0664B9A6942F00102F6
:10331C009A619B6903F001030193019B4FEA9C02A4
:10332C00951C614B53F825600CF00305AD000F2381
:10333C00AB4026EA03065D4B984228D003F5806328
:10334C00984200F08D8003F58063984200F08A80EB
:10335C0003F58063984218D0042319E0CC68C0E7C9
:10336C00CC680434BDE7CC680834BAE7CC680C34BC
:10337C00B7E702610824B4E70024B2E70424B0E7FD
:10338C00061DACF108029200B1E7032300E0002314
:10339C00AB4033430232444D45F822304B6813F4B2
:1033AC00801F61D0424A936843EA0E0393604B68D6
:1033BC0013F4001F5ED03E4AD36843EA0E03D36079
:1033CC004B6813F4003F5BD0394A536843EA0E0351
:1033DC0053604B6813F4803F58D0354A136843EA66
:1033EC000E0313600CF1010C0B6833FA0CF253D082
:1033FC00012202FA0CF203EA020E32EA0303F1D1C3
:10340C004B68122B3FF64DAF122B3FF66AAF01A55E
:10341C0055F823F0D73200086933000873330008DD
:10342C0085330008EF320008EF320008EF32000855
:10343C00EF320008EF320008EF320008EF320008DC
:10344C00EF320008EF320008EF320008EF320008CC
:10345C00EF320008EF3200086D33000879330008B2
:10346C00012395E7022393E7114A936823EA0E039D
:10347C0093609CE70E4AD36823EA0E03D3609FE760
:10348C000B4A536823EA0E035360A2E7084A1368F9
:10349C0023EA0E031360A5E702B070BD00002210F2
:1034AC0000003110001002400000014000080140F3
:1034BC00000401400AB101617047090401617047C1
:1034CC00C36801EA030221EA030141EA02410161F6
:1034DC007047000082B00E4B9A6942F001029A616B
:1034EC009A6902F001020092009ADA6942F0805265
:1034FC00DA61DB6903F080530193019B054A536841
:10350C0023F0E06343F00073536002B0704700BFD8
:10351C00001002400000014030B587B00023029338
:10352C0003930493059302681B4B9A4201D007B096
:10353C0030BD03F5EC33DA6942F48042DA61DA69C2
:10354C0002F480420092009A9A6942F008029A6151
:10355C009B6903F008030193019B4FF420430293F2
:10356C0002230393032305930C4D02A92846FFF76E
:10357C0093FE4FF48043029300240394049402A915
:10358C002846FFF789FE224621462420FFF70EFB32
:10359C002420FFF71BFBCAE700380040000C014059
:1035AC000268094B9A4200D0704782B003F502338F
:1035BC00DA6942F00402DA61DB6903F00403019377
:1035CC00019B02B0704700BF0008004030B589B0C5
:1035DC00002304930593069307930368344A93429C
:1035EC0004D0344A934233D009B030BD324B9A697F
:1035FC0042F480429A619A6902F480420092009AE5
:10360C009A6942F004029A619B6903F004030193E6
:10361C00019B4FF400730493022305930323079338
:10362C00264D04A92846FFF737FE4FF48063049318
:10363C0000240594069404A92846FFF72DFE224683
:10364C0021462520FFF7B2FA2520FFF7BFFACBE77A
:10365C00194BDA6942F40032DA61DA6902F40032A9
:10366C000292029A9A6942F004029A619B6903F0F1
:10367C0004030393039B0423049302230593032362
:10368C0007930E4D04A92846FFF706FE0823049362
:10369C0000240594069404A92846FFF7FDFD224654
:1036AC0021462620FFF782FA2620FFF78FFA9BE7A8
:1036BC000038014000440040001002400008014066
:1036CC0082B0084B1B68084AA2FB03235B0A00FB71
:1036DC0003F3019300BF019B5A1E0192002BF9D1F9
:1036EC0002B0704710000020D34D6210002800F08B
:1036FC00F18170B582B00446036813F0010F2CD031
:10370C00994B5B6803F00C03042B1DD0964B5B6844
:10371C0003F00C03082B12D06368B3F5803F41D043
:10372C00002B55D103F1804303F504331A6822F4BE
:10373C0080321A601A6822F480221A6037E08A4BB1
:10374C005B6813F4803FE7D0874B1B6813F4003F92
:10375C0003D06368002B00F0BF81236813F0020FC5
:10376C0075D0814B5B6813F00C0F5FD07E4B5B68A0
:10377C0003F00C03082B54D02369002B00F08A8033
:10378C007A4B01221A60FFF7C5F90546764B1B6888
:10379C0013F0020F75D1FFF7BDF9401B0228F5D9C4
:1037AC0003209EE1704A136843F48033136063680E
:1037BC0043B3FFF7AFF905466B4B1B6813F4003F9F
:1037CC00CBD1FFF7A7F9401B6428F5D9032088E17A
:1037DC00B3F5A02F09D0644B1A6822F480321A601A
:1037EC001A6822F480221A60E1E703F18043A3F502
:1037FC003C331A6842F480221A601A6842F4803210
:10380C001A60D4E7FFF786F90546574B1B6813F48B
:10381C00003FA2D0FFF77EF9401B6428F5D90320A6
:10382C005FE1514B5B6813F4803FA5D14E4B1B6895
:10383C0013F0020F03D02369012B40F04F814A4A49
:10384C00136823F0F803616943EAC103136023682A
:10385C0013F0080F33D0A369002B5CD0434B01222B
:10386C00C3F88024FFF756F905463F4B5B6A13F00B
:10387C00020F21D1FFF74EF9401B0228F5D9032086
:10388C002FE1394A136823F0F803616943EAC10355
:10389C001360DCE7354B00221A60FFF73BF9054655
:1038AC00314B1B6813F0020FD1D0FFF733F9401BDB
:1038BC000228F5D9032014E10120FFF701FF23684A
:1038CC0013F0040F00F09680274BDB6913F0805F38
:1038DC0034D1254BDA6942F08052DA61DB6903F0AE
:1038EC0080530193019B0125214B1B6813F4807FAE
:1038FC0026D0E368012B3DD0002B53D103F180433C
:10390C0003F504331A6A22F001021A621A6A22F0D1
:10391C0004021A6233E0154B0022C3F88024FFF72F
:10392C00F9F80546104B5B6A13F0020FC7D0FFF78E
:10393C00F1F8401B0228F5D90320D2E00025D3E78B
:10394C000B4A136843F480731360FFF7E3F80646E1
:10395C00074B1B6813F4807FCBD1FFF7DBF8801B80
:10396C006428F5D90320BCE000100240000042425C
:10397C00007000405F4A136A43F001031362E3686E
:10398C0033B3FFF7C7F806465A4B1B6A13F0020F06
:10399C002FD1FFF7BFF8801B41F288339842F3D93F
:1039AC0003209EE0052B09D0524B1A6A22F001022B
:1039BC001A621A6A22F004021A62E0E74D4B1A6A84
:1039CC0042F004021A621A6A42F001021A62D6E745
:1039DC00FFF7A0F80646474B1B6A13F0020F08D0FE
:1039EC00FFF798F8801B41F288339842F3D90320F3
:1039FC0077E0E5B9E369002B72D03E4A526802F0D9
:103A0C000C02082A56D0022B17D03B4B00221A6608
:103A1C00FFF780F80446374B1B6813F0007F47D044
:103A2C00FFF778F8001B0228F5D9032059E0314A3A
:103A3C00D36923F08053D361DCE72F4B00221A6645
:103A4C00FFF768F805462B4B1B6813F0007F06D078
:103A5C00FFF760F8401B0228F5D9032041E0236AE8
:103A6C00B3F5803F1AD023494B6823F47413226AB0
:103A7C00606A024313434B601F4B01221A66FFF727
:103A8C0049F804461B4B1B6813F0007F0ED1FFF75F
:103A9C0041F8001B0228F5D9032022E0154A53688F
:103AAC0023F40033A1680B435360DCE7002018E0DB
:103ABC00002016E0012B16D00E4B5B6803F480310E
:103ACC00226A914211D103F47013626A93420ED1AF
:103ADC00002006E001207047012002E0012000E0F8
:103AEC00002002B070BD0120FBE70120F9E70120A6
:103AFC00F7E700BF00100240000042420F4B5B682A
:103B0C0003F00C02082A01D00D487047C3F383421E
:103B1C000C49885C13F4803F0BD0084B5B68C3F3F3
:103B2C004043094AD35C064A02FB00F0B0FBF3F0B9
:103B3C007047064B03FB00F0704700BF00100240BB
:103B4C0000127A00F45E0008F05E000800093D00E7
:103B5C00002800F0A08070B50D460446524B1B683F
:103B6C0003F007038B420BD24F4A136823F0070371
:103B7C000B431360136803F007038B4240F08D80F6
:103B8C00236813F0020F17D013F0040F04D0474A28
:103B9C00536843F4E0635360236813F0080F04D0B8
:103BAC00424A536843F460535360404A536823F0CD
:103BBC00F003A1680B435360236813F0010F31D05D
:103BCC006368012B20D0022B25D0384A126812F0E2
:103BDC00020F64D035494A6822F0030213434B604C
:103BEC00FEF798FF0646314B5B6803F00C036268E6
:103BFC00B3EB820F16D0FEF78DFF801B41F288339A
:103C0C009842F0D9032045E0284A126812F4003F8C
:103C1C00E0D101203EE0254A126812F0007FD9D194
:103C2C00012037E0204B1B6803F00703AB420AD995
:103C3C001D4A136823F007032B431360136803F02A
:103C4C000703AB422DD1236813F0040F06D0174A9B
:103C5C00536823F4E063E1680B435360236813F06B
:103C6C00080F07D0114A536823F46053216943EAC3
:103C7C00C1035360FFF742FF0C4B5B68C3F30313A4
:103C8C000B4AD35CD8400B4B18600B4B1868FEF7F3
:103C9C00FDFE002070BD012070470120FAE70120D5
:103CAC00F8E70120F6E700BF0020024000100240B8
:103CBC000C5F0008100000200C000020014B18685D
:103CCC00704700BF1000002008B5FFF7F7FF044B4A
:103CDC005B68C3F30223034AD35CD84008BD00BF22
:103CEC0000100240045F000808B5FFF7E7FF044B23
:103CFC005B68C3F3C223034AD35CD84008BD00BF42
:103D0C0000100240045F0008002856D010B504468D
:103D1C00436A33B94368B3F5827F05D00023C3618E
:103D2C0002E00023036143610023A36294F8513045
:103D3C00002B3CD0022384F851302268136823F006
:103D4C0040031360636803F48273A26802F40442B4
:103D5C001343E26802F400621343226902F0020288
:103D6C001343626902F001021343A26902F4007268
:103D7C001343E26902F038021343226A02F0800214
:103D8C001343A26A02F40052216813430B60638B45
:103D9C00226803F0040353602268D36923F40063A0
:103DAC00D36100206065012384F8513010BD84F884
:103DBC0050302046FFF7B0FBBCE70120704770473E
:103DCC0010B584B0044602685168936803F0410052
:103DDC0001285AD013F0020F02D011F0800F5BD1E2
:103DEC0013F0600F5BD011F0200F58D013F0400F80
:103DFC000FD094F85100C0B2032852D0606D40F03F
:103E0C000400606500200190D068019090680190DA
:103E1C00019813F0200F0CD0636D43F00103636520
:103E2C000023039393680393136823F040031360F8
:103E3C00039B636D002B32D02268536823F0E003A0
:103E4C005360012384F8513011F0030F31D02268F4
:103E5C00536823F003035360E36C4BB1174A5A6366
:103E6C00E06CFEF7A9FF18B1636D43F04003636586
:103E7C00A36CA3B1114A5A63A06CFEF79DFF70B1FD
:103E8C00636D43F04003636509E011F0400FA1D06E
:103E9C00236C2046984702E0636C2046984704B098
:103EAC0010BD00230293D368029393680293029B84
:103EBC00F5E72046FFF783FFF1E700BFCD3E000892
:103ECC0008B5406A0023C387C386FFF778FF08BD97
:103EDC0030B4026A036A23F0010303624568836904
:103EEC0023F073030C681C4322F002028B6813430B
:103EFC000B4A904206D0456084614A684263036273
:103F0C0030BC704723F00803CA681A4322F004033C
:103F1C0025F440754A692A438D691543EBE700BFC8
:103F2C00002C014030B4036A026A22F480720262EF
:103F3C004468C26922F073020D68154323F40073C0
:103F4C008A6843EA02230D4A904206D04460C56158
:103F5C004A68C263036230BC704723F40063CA68CA
:103F6C0043EA022323F4806324F440544A6944EA6C
:103F7C0002148A6944EA0214E8E700BF002C0140ED
:103F8C0030B4036A026A22F4805202624468C26945
:103F9C0022F4E6420D6842EA052223F400538D68B0
:103FAC0043EA0533074DA84206D04460C2614A6813
:103FBC000264036230BC704724F480444D6944EAC7
:103FCC008514F2E7002C014090F83D30DBB2012B58
:103FDC0022D1022380F83D300368114A934210D05D
:103FEC00B3F1804F0DD0A2F59432934209D002F573
:103FFC008062934205D01A6842F001021A600020D8
:10400C0070479A6802F00702062A07D01A6842F035
:10401C0001021A6000207047012070470020704791
:10402C00002C01407047704770477047704770B55F
:10403C0004460368DE681D6915F0020F10D016F0F7
:10404C00020F0DD06FF002021A610123037703688F
:10405C009B6913F0030F5ED0FFF7E6FF0023237775
:10406C0015F0040F12D016F0040F0FD023686FF068
:10407C0004021A610223237723689B6913F4407F9F
:10408C004FD02046FFF7D0FF0023237715F0080F01
:10409C0012D016F0080F0FD023686FF008021A61C7
:1040AC00042323772368DB6913F0030F40D02046E9
:1040BC00FFF7BAFF0023237715F0100F12D016F07C
:1040CC00100F0FD023686FF010021A6108232377AA
:1040DC002368DB6913F4407F31D02046FFF7A4FF3F
:1040EC000023237715F0010F02D016F0010F2DD10C
:1040FC0015F0800F02D016F0800F2FD115F0400F65
:10410C0002D016F0400F31D115F0200F02D016F06E
:10411C00200F33D170BDFFF786FF2046FFF785FFD8
:10412C009CE72046FFF77FFF2046FFF77EFFABE7BB
:10413C002046FFF778FF2046FFF777FFBAE72046C7
:10414C00FFF771FF2046FFF770FFC9E723686FF098
:10415C0001021A612046FDF7DDFFC9E723686FF005
:10416C0080021A61204600F02AFAC7E723686FF034
:10417C0040021A612046FFF759FFC5E723686FF02C
:10418C0020021A61204600F019FAC3E703681F4A9F
:10419C0090420AD0B0F1804F07D0A2F594329042F1
:1041AC0003D002F58062904203D123F070034A6879
:1041BC001343164A90420AD0B0F1804F07D0A2F5B3
:1041CC009432904203D002F58062904203D123F4E2
:1041DC004073CA68134323F080034A691343036096
:1041EC008B68C3620B688362084B98420AD0012328
:1041FC004361036913F0010F03D0036923F001033A
:10420C00036170470B690363F1E700BF002C0140A9
:10421C0040B310B5044690F83D30F3B1022384F856
:10422C003D30214651F8040BFFF7B0FF012384F811
:10423C00463084F83E3084F83F3084F8403084F8BF
:10424C00413084F8423084F8433084F8443084F8A8
:10425C00453084F83D30002010BD80F83C30FFF72D
:10426C009FF9DBE70120704740B310B5044690F886
:10427C003D30F3B1022384F83D30214651F8040B54
:10428C00FFF784FF012384F8463084F83E3084F82D
:10429C003F3084F8403084F8413084F8423084F860
:1042AC00433084F8443084F8453084F83D300020A5
:1042BC0010BD80F83C30FFF7B5FEDBE701207047FE
:1042CC0030B4036A026A22F0100202624468826906
:1042DC0022F4E6420D6842EA052223F020038D68A1
:1042EC0043EA05130C4DA84206D0446082614A682B
:1042FC008263036230BC704723F08003CD6843EACD
:10430C00051323F0400324F440644D6944EA85040A
:10431C008D6944EA8504E8E7002C014090F83C30B4
:10432C00012B28D010B50446012380F83C300C2A10
:10433C001CD8DFE802F0071B1B1B0C1B1B1B111BE3
:10434C001B1B16000068FFF7C3FD00200FE0006880
:10435C00FFF7B6FF00200AE00068FFF7E3FD00203E
:10436C0005E00068FFF70CFE002000E001200023B0
:10437C0084F83C3010BD0220704738B590F83C30C2
:10438C00012B66D004460D46012380F83C300C2AE4
:10439C005AD8DFE802F0075959591B595959305965
:1043AC00595944000068FFF793FD2268936943F064
:1043BC00080393612268936923F0040393612268D4
:1043CC00936929690B43936100203EE00068FFF775
:1043DC0077FF2268936943F40063936122689369C1
:1043EC0023F48063936122689369296943EA01236A
:1043FC009361002029E00068FFF794FD2268D369DF
:10440C0043F00803D3612268D36923F00403D3611A
:10441C002268D36929690B43D361002015E0006839
:10442C00FFF7AEFD2268D36943F40063D3612268C1
:10443C00D36923F48063D3612268D369296943EA81
:10444C000123D361002000E00120002384F83C30DC
:10445C0038BD0220FCE701F01F014FF0010C0CFAF3
:10446C0001FC036A23EA0C030362036A8A401343C8
:10447C000362704710B50446084651BB94F83E30B1
:10448C00DBB2013B18BF0123002B5BD1002839D1D3
:10449C00022384F83E30012201462068FFF7DBFF3F
:1044AC0023682A4A93423DD02368284A93423ED03F
:1044BC00B3F1804F3BD0A2F59432934237D002F542
:1044CC008062934233D01A6842F001021A600020D5
:1044DC0039E0042908D008290DD094F84130DBB21A
:1044EC00013B18BF0123CFE794F83F30DBB2013B0F
:1044FC0018BF0123C8E794F84030DBB2013B18BF6A
:10450C000123C1E7042805D0082807D0022384F82A
:10451C004130C0E7022384F83F30BCE7022384F823
:10452C004030B8E75A6C42F400425A64BCE79A68CF
:10453C0002F00702062A07D01A6842F001021A603C
:10454C00002000E0012010BD0020FCE7002C014001
:10455C0090F83C20012A2CD010B40346012280F89C
:10456C003C20022280F83D2002685068946820F0BC
:10457C00700C086840EA0C0050601A680E488242C1
:10458C000AD0B2F1804F07D0A0F59430824203D00C
:10459C0000F58060824204D124F0800449682143F4
:1045AC009160012283F83D20002083F83C0010BC70
:1045BC0070470220704700BF002C014070477047C5
:1045CC00026802F10C0353E8003F23F490730C32A1
:1045DC0042E800310029F3D1026802F1140353E8D8
:1045EC00003F23F00103143242E800310029F3D1DB
:1045FC00036B012B05D0202380F84230002303638A
:10460C007047026802F10C0353E8003F23F01003DB
:10461C000C3242E800310029F3D1ECE790F841303C
:10462C00DBB2212B01D0022070478368B3F5805F89
:10463C0017D0036A5A1C02621A7803685A60C38C3A
:10464C009BB2013B9BB2C3844BB90268D36823F085
:10465C008003D3600268D36843F04003D36000202A
:10466C0070470369002BE4D1036A1B880268C3F30B
:10467C0008035360036A02330362E0E710B5044693
:10468C000268136923F44053C1680B4313618368B8
:10469C000269134342691A430168CB6823F4B0538F
:1046AC0023F00C031343CB600268536923F440736B
:1046BC0081690B4353610268134B9A4220D0FFF778
:1046CC0003FB024602EB820202EB820263689B0050
:1046DC00B2FBF3F20D48A0FB02314909642303FB42
:1046EC0011231B013233A0FB03035B0903F0F0021F
:1046FC0002EB011203F00F03216813448B6010BD11
:10470C00FFF7F2FA0246DDE7003801401F85EB5156
:10471C002DE9F04383B005460E4617469946DDF861
:10472C0028802B681C6836EA04040CBF0124002482
:10473C00BC4228D1B8F1FF3FF3D0FEF7EBF9A0EB68
:10474C000900404523D8B8F1000F22D02B68DA6855
:10475C0012F0040FE5D0802EE3D0402EE1D01A6881
:10476C0012F0080FDDD0002401941A6801925B68E6
:10477C000193019B2846FFF723FF08236B6485F800
:10478C004040012000E0002003B0BDE8F08303208E
:10479C00FAE70320F8E760B310B5044690F841300F
:1047AC0013B3242384F841302268D36823F40053D4
:1047BC00D3602046FFF762FF2268136923F490430D
:1047CC0013612268536923F02A0353612268D3686A
:1047DC0043F40053D36000206064202384F84130FC
:1047EC0084F84230606310BD80F84030FEF7EEFE76
:1047FC00D7E7012070472DE9F04182B01E4690F8B2
:10480C004130DBB2202B56D104460D469046002990
:10481C0055D00AB901204FE000234364212380F8CE
:10482C004130FEF777F90746A4F82480A4F82680D7
:10483C00A368B3F5805F02D04FF0000814E0236941
:10484C002BB34FF000080FE0202384F841300320F5
:10485C0032E038F8023B2268C3F308035360E28C61
:10486C0092B2013A92B2E284E38C9BB293B100967D
:10487C003B46002280212046FFF74AFF0028E3D167
:10488C00002DE6D015F8012B23685A60E7E7A846FF
:10489C000025E9E700963B46002240212046FFF721
:1048AC0037FF18B9202384F8413005E0202384F821
:1048BC004130032000E0022002B0BDE8F08101206D
:1048CC00FAE7704708B50168CA6822F04002CA606E
:1048DC00202280F84120FFF7F4FF002008BD70472C
:1048EC0008B5406A0023C385C384FFF7F8FF08BDF1
:1048FC00704790F84230DBB2222B69D18368B3F554
:10490C00805F4FD0826AB3F5805F04D0002B56D104
:10491C000369002B53D103685B681370836A0133FE
:10492C008362C38D9BB2013B9BB2C385002B51D1DB
:10493C0000B583B00268D36823F02003D36002680B
:10494C00D36823F48073D3600268536923F00103A6
:10495C005361202380F8423000234363036B012B07
:10496C0033D100230363026802F10C0353E8003FC8
:10497C0023F010030C3242E800310029F3D1036814
:10498C001A6812F0100F06D0002201921A680192D8
:10499C005B680193019B818DFFF7AAFF002003B098
:1049AC005DF804FB0269002AACD1826A03685B687B
:1049BC00C3F308031380836A02338362B1E703688D
:1049CC005B6803F07F031370A8E7FDF72BFCE5E7AA
:1049DC00022070470020704710B582B00446026870
:1049EC001368D068516913F00F0F09D113F0200F21
:1049FC000CD010F0200F09D02046FFF77AFF16E0FC
:104A0C0011F0010115D110F4907F12D1216B012905
:104A1C0079D013F0800F03D010F0800F40F0138189
:104A2C0013F0400F03D010F0400F40F0108102B093
:104A3C0010BD13F0010F06D010F4807F03D0626C10
:104A4C0042F00102626413F0040F04D019B1626CDD
:104A5C0042F00202626413F0020F04D019B1626CCE
:104A6C0042F00402626413F0080F07D010F0200F1C
:104A7C0000D119B1626C42F008026264626C002AC7
:104A8C00D5D013F0200F02D010F0200F29D12368BD
:104A9C005B6903F04003626C12F0080F00D163B342
:104AAC002046FFF78DFD23685B6913F0400F20D083
:104ABC00226802F1140353E8003F23F04003143240
:104ACC0042E800310029F3D1E36B73B1624A5A63B7
:104ADC00E06BFEF771F90028A9D0E06B436B9847A7
:104AEC00A5E72046FFF705FFD1E72046FFF7F7FEC5
:104AFC009DE72046FFF7F3FE99E72046FFF7EFFE10
:104B0C000023636493E713F0100F82D010F0100FA2
:104B1C003FF47FAF00230193136801935368019313
:104B2C00019B536913F0400F51D0E26B13685B6823
:104B3C009BB2002B3FF47BAFA18D99427FF677AFF0
:104B4C00E3859369202B37D0226802F10C0353E8DC
:104B5C00003F23F480730C3242E800310029F3D17A
:104B6C00226802F1140353E8003F23F001031432CE
:104B7C0042E800310029F3D1226802F1140353E812
:104B8C00003F23F04003143242E800310029F3D1F6
:104B9C00202384F8423000232363226802F10C03A3
:104BAC0053E8003F23F010030C3242E80031002997
:104BBC00F3D1E06BFEF7DCF802236363A18DE38D88
:104BCC009BB2C91A89B22046FFF792FE2FE7A18D3E
:104BDC00E38D9BB2C91A89B2E38D9BB2002B3FF4D3
:104BEC0026AF00293FF423AF226802F10C0353E8EF
:104BFC00003F23F490730C3242E800300028F3D1CC
:104C0C00226802F1140353E8003F23F0010314322D
:104C1C0042E800300028F3D1202384F842300023EE
:104C2C002363226802F10C0353E8003F23F01003C6
:104C3C000C3242E800300028F3D102236363204693
:104C4C00FFF756FEF3E62046FFF7E8FCEFE62046BA
:104C5C00FFF738FEEBE600BFED4800088162828565
:104C6C00C28500234364222380F84230036923B1B8
:104C7C000268D36843F48073D3600268536943F0CD
:104C8C00010353610268D36843F02003D360002012
:104C9C00704708B590F84230DBB2202B08D149B1EF
:104CAC000AB9012008BD00230363FFF7D7FFF9E71A
:104CBC000220F7E70120F5E7FEE7FEE7FEE7FEE757
:104CCC00FEE770477047704708B50248FFF778F861
:104CDC0008BD00BF0C47002008B50248FFF77CFE5A
:104CEC0008BD00BF7C46002008B50248FFF774FEE3
:104CFC0008BD00BF3446002070470000FFF7FCFFE2
:104D0C000B480C490C4A002302E0D458C45004331D
:104D1C00C4188C42F9D3094A094C002301E01360F2
:104D2C000432A242FBD300F0A1F9FDF751FB70470E
:104D3C00000000207000002020600008700000209F
:104D4C00D8480020FEE70000164B10B51C68236BFA
:104D5C00B3B9182000F018FA0246206320B952218A
:104D6C00114B124800F0AAF91149124BC0E900137B
:104D7C00114B002183600B2383810120C2E90401C4
:104D8C00216B0E480B694C6958430D4A02FB040019
:104D9C00A3FB0232013340EB0200C1E9043020F0E6
:104DAC00004010BD200000201C5F0008335F00088D
:104DBC000E33CDAB34126DE6ECDE05002DF45158FC
:104DCC002D7F954C002310B50446C0E90033C0E993
:104DDC000433836081814366C28183611946082252
:104DEC005C3000F0F4F80D4B246263620C4BA36250
:104DFC000C4BE3620C4B23630C4B9C4206D003F12F
:104E0C006802944202D0D0339C4205D104F1580080
:104E1C00BDE8104000F04EB910BD00BF554F000862
:104E2C00774F0008AF4F0008D34F00088847002089
:104E3C00024A0349034800F069B800BF140000207F
:104E4C00015400082400002041680C4B10B5994215
:104E5C00044601D000F0CEFAA168094B994202D069
:104E6C00204600F0C7FAE168064B994204D0204670
:104E7C00BDE8104000F0BEBA10BD00BF884700204E
:104E8C00F04700205848002010B50B4B0B4C0C4A37
:104E9C0020461A6004210022FFF794FF04F16800F9
:104EAC0001220921FFF78EFF04F1D0000222BDE898
:104EBC0010401221FFF786BFC04800208847002011
:104ECC003D4E0008014800F0F6B800BFC94800206C
:104EDC00014800F0F1B800BFC948002010B50446E5
:104EEC00FFF7F0FF236A1BB1BDE81040FFF7F0BFDE
:104EFC00044B2362044B1B68002BF5D1FFF7C4FF56
:104F0C00F2E700BF554E0008C04800202DE9F843D9
:104F1C000746884614460026D4E90195B9F10109E3
:104F2C0005D52468002CF7D13046BDE8F883AB8951
:104F3C00012B07D9B5F90E30013303D02946384679
:104F4C00C04706436835E9E710B50C46B1F90E10B9
:104F5C0000F068F80028ABBF636DA3891B1823F41D
:104F6C008053ACBF6365A38110BD2DE9F0411F4692
:104F7C008B890546DB050C46164605D50223002217
:104F8C00B1F90E1000F03CF8A389324623F480539B
:104F9C00A38128463B46B4F90E10BDE8F04100F061
:104FAC0053B810B50C46B1F90E1000F029F8431C9B
:104FBC00A38915BF606523F4805343F48053A38108
:104FCC0018BFA38110BDB1F90E1000F009B803464B
:104FDC000244934200D1704703F8011BF9E700002B
:104FEC0038B50023054D044608462B6000F09AFEA8
:104FFC00431C02D12B6803B1236038BDC448002088
:10500C0038B50446084611460022054D2A601A465A
:10501C0000F0B0FE431C02D12B6803B1236038BDF5
:10502C00C448002038B50446084611460022054DF8
:10503C002A601A4600F0A6FE431C02D12B6803B16D
:10504C00236038BDC448002038B5044608461146D4
:10505C000022054D2A601A4600F0AAFE431C02D11C
:10506C002B6803B1236038BDC448002070B50026FE
:10507C000C4D0D4C641BA410A64209D100F0A2FEED
:10508C0000260A4D0A4C641BA410A64205D170BD23
:10509C0055F8043B98470136EEE755F8043B984722
:1050AC000136F2E718600008186000081860000864
:1050BC001C60000870477047704700001FB514460D
:1050CC001A46094B05461B68D86854B9074B1C4651
:1050DC00CDE9013400912B46054900F0B3F900F0FD
:1050EC00D3F9044BF4E700BF20000020E35F000875
:1050FC00B55F0008A85F000838B50546002940D008
:10510C0051F8043C0C1F002BB8BFE41800F0E6F873
:10511C001C4A136833B9636014602846BDE83840F4
:10512C0000F0E2B8A34208D9206821188B4201BFD5
:10513C0019685B6809182160EDE71A465B680BB1CA
:10514C00A342FAD911685018A0420BD1206801442F
:10515C00501883421160E0D118685B6808441060F5
:10516C005360DAE702D90C232B60D6E720682118AC
:10517C008B4201BF19685B68091821606360546039
:10518C00CBE738BDD0480020024B0146186800F030
:10519C0025B800BF2000002070B50F4E0C463168BA
:1051AC00054611B900F060F930602146284600F040
:1051BC005BF9431C03D14FF0FF34204670BDC41C77
:1051CC0024F00304A042F8D0211A284600F04CF930
:1051DC000130F2D1EFE700BFCC4800202DE9F843B5
:1051EC00CD1C25F0030508350C2D38BF0C25002DE2
:1051FC00064601DBA94204D90C2333600020BDE82C
:10520C00F883DFF8D48000F069F8D8F800301C4639
:10521C0044BB29463046FFF7BFFF431C044658D118
:10522C00D8F800402746002F43D1002C4BD02368E0
:10523C003946304604EB030900F016F9814542D19A
:10524C00216830466D1A2946FFF7A6FF01303AD087
:10525C0023682B442360D8F800305A6862BBC8F826
:10526C0000700FE02268521B20D40B2A17D9611949
:10527C00A342256018BF5960636808BFC8F80010C6
:10528C0062514B60304600F02FF804F10B00231DE7
:10529C0020F00700C21A1CBF1B1AA350AFE76268AC
:1052AC00A3420CBFC8F800205A60EBE723466468A1
:1052BC00AEE73C467F68B6E71A465B68A342FBD173
:1052CC0000235360DEE70C233046336000F00CF80B
:1052DC0094E70560D6E700BFD04800200148FFF7EF
:1052EC00EABE00BFC84800200148FFF7E5BE00BF7A
:1052FC00C8480020B1F90C20F8B5170705460C4634
:10530C0056D44B68002B02DC0B6C002B3DDDE66A9F
:10531C00002E3AD0002312F480522F68216A2B60A1
:10532C0025D0626DA389580705D56368D21A636BC3
:10533C000BB1236CD21A216A00232846E66AB047C7
:10534C00411C24D00023636023692360A389DA0401
:10535C0000D56065616B2F60B9B104F144039942CB
:10536C0002D02846FFF7C8FE002363630DE001233B
:10537C002846B047461C0246D4D12B68002BD1D00E
:10538C001D2B01D0162B2AD12F6000202EE02A686D
:10539C00B4F90C3042B11D2A01D0162A21D10023B8
:1053AC00636023692360D5E7626022692260CEE7DF
:1053BC000F69002FE9D0930718BF00230E6808BFB0
:1053CC004B69F61B0F608B60002EDEDD33463A46D0
:1053DC002846216AD4F828C0E047002807DCB4F935
:1053EC000C304FF0FF3043F04003A381F8BD07446D
:1053FC00361AE9E738B50B6905460C4613B9002592
:10540C00284638BD18B1036A0BB9FFF767FDB4F92C
:10541C000C30002BF3D0626ED00704D4990502D463
:10542C00A06DFFF748FE28462146FFF763FF636E29
:10543C000546DA07E4D4A3899B05E1D4A06DFFF7F8
:10544C003BFEDDE70EB403B5014603AB054853F84C
:10545C00042B0068019300F045F802B05DF804EBF2
:10546C0003B070472000002038B50023054D0446DA
:10547C0008462B6000F08EFC431C02D12B6803B154
:10548C00236038BDC4480020062008B500F09CFB02
:10549C00012000F095FC936810B4013B002B936045
:1054AC0007DA9469A34201DB0A2902D110BC00F08F
:1054BC00CFBA1368581C10601970084610BC70479E
:1054CC00F8B506460F461446D518AC4201D100205B
:1054DC0007E03A46304614F8011BFFF7DCFF431C8B
:1054EC00F3D1F8BD2DE9F04F0D461446984606460B
:1054FC009DB018B1036A0BB9FFF7F0FC6B6ED907BE
:10550C0005D4AB899A0502D4A86DFFF7D4FDAB89FD
:10551C001B0701D52B699BB92946304600F0D6FAFA
:10552C0070B16B6EDC0704D54FF0FF301DB0BDE8D9
:10553C00F08FAB899805F7D4A86DFFF7BDFDF3E7A5
:10554C000023099320238DF8293030234FF00109D3
:10555C00CDF80C80DFF8A8818DF82A3023469A46C6
:10556C0013F8012B0AB1252AF9D1BAEB040B0BD095
:10557C005B46224629463046FFF7A2FF013000F079
:10558C00A780099A5A4409929AF80030002B00F02F
:10559C009F8000234FF0FF32CDE905230AF1010A69
:1055AC00049307938DF853301A935446052214F83C
:1055BC00011B534800F024FB049AD8B9D10644BF10
:1055CC0020238DF85330130744BF2B238DF8533011
:1055DC009AF800302A2B15D0544600204FF00A0CB4
:1055EC00079A214611F8013B303B092B4BD9B0B13E
:1055FC00079214E0A0EB080309FA03F31343A24645
:10560C000493D2E7039B191D1B680391002BBBBFAE
:10561C005B4242F0020207930793B8BF04922378CF
:10562C002E2B0AD163782A2B32D1039B02341A1DFC
:10563C001B68039243EAE3730593DFF8C8A00322C7
:10564C005046217800F0DCFA38B14022049BA0EBE4
:10565C000A00824013430134049314F8011B062200
:10566C0029488DF8281000F0CBFA00283FD0274BA2
:10567C001BBB039B073323F0070308330393099BDE
:10568C003B4409936AE70C4601200CFB0232A8E765
:10569C0000234FF00A0C194601340593204610F8EC
:1056AC00012B303A092A03D9002BC6D00591C4E747
:1056BC00044601230CFB0121F0E703AB00932A46BF
:1056CC003046134B04A9AFF300800746781CD6D1A3
:1056DC006B6ED90705D4AB899A0502D4A86DFFF778
:1056EC00EBFCAB895B063FF51FAF09981EE703ABDC
:1056FC0000932A463046064B04A900F07DF8E4E7F7
:10570C00E45F0008EA5F0008EE5F0008000000009C
:10571C00CD5400082DE9F047164698468A680B6967
:10572C0007469342B8BF1346336091F843200C46AA
:10573C00DDF820900AB1013333602368990642BF2B
:10574C00336802333360256815F0060506D104F181
:10575C00190AE36832689B1AAB422BDC94F843308D
:10576C002268003B18BF0123920630D441463846CC
:10577C0004F14302C847013023D02368226903F0A7
:10578C000603042B14BF002533684FF0000608BF36
:10579C00E56804F11A0408BFED1A54F8123C08BF6E
:1057AC0025EAE5759342C4BF9B1AED18B5421AD190
:1057BC00002008E00123524641463846C8470130D4
:1057CC0003D14FF0FF30BDE8F0870135C1E7302041
:1057DC00E11881F843005A1C94F845102244023316
:1057EC0082F84310C2E70123224641463846C84797
:1057FC000130E6D00136D9E72DE9FF470F7E9146FF
:10580C00782F80460C469A460C9E01F1430207D82D
:10581C00622F0AD8002F00F0DD80582F00F0C380D3
:10582C0004F1420684F842703AE0A7F16303152BA9
:10583C00F6D801A151F823F09D580008B158000882
:10584C002D5800082D5800082D5800082D58000818
:10585C00B15800082D5800082D5800082D58000884
:10586C002D580008C75900083F5900087F590008F7
:10587C002D5800082D580008E95900082D5800082B
:10588C003F5900082D5800082D580008875900086A
:10589C0033681A1D1B68326004F1420684F84230EA
:1058AC000123A8E031682368081D30601E0601D56D
:1058BC000D6803E05D06FBD5B1F90050002D616861
:1058CC0078DA2D20002984F84300A1602DDA0A2310
:1058DC005D486D421646B5FBF3F103FB1157C75DEE
:1058EC0006F8017D2F46BB420D46F4D9082B0BD18F
:1058FC002368DF0708D5236961689942DEBF30232E
:10590C0006F8013C06F1FF36921B22614B462146FC
:10591C004046CDF800A003AAFFF7FCFE01306FD182
:10592C004FF0FF3004B0BDE8F08723F00403236090
:10593C00CDE721683368080653F8045B02D44906A6
:10594C0048BFADB26F2F336014BF0A2308233E4803
:10595C00002184F843106668002EA660BADB21682B
:10596C0021F004012160002DB4D1002EB2D11646D5
:10597C00BCE7236843F0200323607827334884F87E
:10598C004570236831681F0651F8045B02D45F062A
:10599C0048BFADB23160D90744BF43F02003236048
:1059AC001DB11023D4E72848E9E7236823F020032E
:1059BC002360F6E70A232448CDE733682568181DD1
:1059CC00616930602E061B6801D5196002E068061B
:1059DC00FBD5198000231646236197E73368002115
:1059EC001A1D32601E686268304600F009F908B171
:1059FC00801B606063682361002384F8433085E773
:105A0C003246494640462369D047013088D0236846
:105A1C009B0714D4E068039B9842B8BF184681E7F3
:105A2C000123324649464046D04701303FF478AF17
:105A3C000135E36803995B1AAB42F1DCEAE7002518
:105A4C0004F11906F5E700BFF55F000806600008D1
:105A5C00F8B50E461446054618B1036A0BB9FFF7A4
:105A6C003DFAA369A360A3891A0701D5236943B939
:105A7C002146284600F02AF818B14FF0FF37384677
:105A8C00F8BD23682269F6B2981A636937468342D7
:105A9C0005DC21462846FFF7ADFC0028EDD1A368B4
:105AAC00013BA36023685A1C22601E706269431C70
:105ABC009A4204D0A389DB07E1D50A2EDFD1214617
:105ACC002846FFF797FC0028D9D0D6E738B5294BE4
